{"project/contracts/QuestVault.sol":{"QuestVault":{"abi":[{"inputs":[{"internalType":"address","name":"_rewardToken","type":"address"},{"internalType":"uint256","name":"_rewardPerClaim","type":"uint256"},{"internalType":"uint256","name":"_maxClaims","type":"uint256"},{"internalType":"uint64","name":"_expiryTimestamp","type":"uint64"},{"internalType":"address","name":"_creator","type":"address"},{"internalType":"address","name":"_signer","type":"address"},{"internalType":"address","name":"_registry","type":"address"}],"stateMutability":"nonpayable","type":"constructor"},{"inputs":[],"name":"ECDSAInvalidSignature","type":"error"},{"inputs":[{"internalType":"uint256","name":"length","type":"uint256"}],"name":"ECDSAInvalidSignatureLength","type":"error"},{"inputs":[{"internalType":"bytes32","name":"s","type":"bytes32"}],"name":"ECDSAInvalidSignatureS","type":"error"},{"inputs":[{"internalType":"address","name":"token","type":"address"}],"name":"SafeERC20FailedOperation","type":"error"},{"anonymous":false,"inputs":[{"indexed":true,"internalType":"address","name":"user","type":"address"},{"indexed":false,"internalType":"uint256","name":"amount","type":"uint256"}],"name":"ClaimSuccess","type":"event"},{"anonymous":false,"inputs":[{"indexed":false,"internalType":"string","name":"reason","type":"string"}],"name":"QuestClosed","type":"event"},{"inputs":[],"name":"active","outputs":[{"internalType":"bool","name":"","type":"bool"}],"stateMutability":"view","type":"function"},{"inputs":[{"internalType":"bytes","name":"","type":"bytes"}],"name":"checkUpkeep","outputs":[{"internalType":"bool","name":"upkeepNeeded","type":"bool"},{"internalType":"bytes","name":"performData","type":"bytes"}],"stateMutability":"view","type":"function"},{"inputs":[{"internalType":"address","name":"user","type":"address"},{"internalType":"bytes","name":"signature","type":"bytes"}],"name":"claim","outputs":[],"stateMutability":"nonpayable","type":"function"},{"inputs":[],"name":"claimsMade","outputs":[{"internalType":"uint256","name":"","type":"uint256"}],"stateMutability":"view","type":"function"},{"inputs":[],"name":"creator","outputs":[{"internalType":"address","name":"","type":"address"}],"stateMutability":"view","type":"function"},{"inputs":[],"name":"expiryTimestamp","outputs":[{"internalType":"uint64","name":"","type":"uint64"}],"stateMutability":"view","type":"function"},{"inputs":[{"internalType":"address","name":"","type":"address"}],"name":"hasClaimed","outputs":[{"internalType":"bool","name":"","type":"bool"}],"stateMutability":"view","type":"function"},{"inputs":[],"name":"manualClose","outputs":[],"stateMutability":"nonpayable","type":"function"},{"inputs":[],"name":"maxClaims","outputs":[{"internalType":"uint256","name":"","type":"uint256"}],"stateMutability":"view","type":"function"},{"inputs":[{"internalType":"bytes","name":"","type":"bytes"}],"name":"performUpkeep","outputs":[],"stateMutability":"nonpayable","type":"function"},{"inputs":[],"name":"registry","outputs":[{"internalType":"contract PlayerRegistry","name":"","type":"address"}],"stateMutability":"view","type":"function"},{"inputs":[],"name":"rewardPerClaim","outputs":[{"internalType":"uint256","name":"","type":"uint256"}],"stateMutability":"view","type":"function"},{"inputs":[],"name":"rewardToken","outputs":[{"internalType":"address","name":"","type":"address"}],"stateMutability":"view","type":"function"},{"inputs":[],"name":"signer","outputs":[{"internalType":"address","name":"","type":"address"}],"stateMutability":"view","type":"function"},{"inputs":[],"name":"withdrawRemaining","outputs":[],"stateMutability":"nonpayable","type":"function"}],"evm":{"bytecode":{"linkReferences":{},"object":"61016060405234801562000011575f80fd5b5060405162001e8538038062001e8583398181016040528101906200003791906200023b565b8673ffffffffffffffffffffffffffffffffffffffff1660808173ffffffffffffffffffffffffffffffffffffffff16815250508560a081815250508460c081815250508367ffffffffffffffff1660e08167ffffffffffffffff16815250508273ffffffffffffffffffffffffffffffffffffffff166101008173ffffffffffffffffffffffffffffffffffffffff16815250508173ffffffffffffffffffffffffffffffffffffffff166101208173ffffffffffffffffffffffffffffffffffffffff16815250508073ffffffffffffffffffffffffffffffffffffffff166101408173ffffffffffffffffffffffffffffffffffffffff16815250506001805f6101000a81548160ff02191690831515021790555050505050505050620002e9565b5f80fd5b5f73ffffffffffffffffffffffffffffffffffffffff82169050919050565b5f6200018b8262000160565b9050919050565b6200019d816200017f565b8114620001a8575f80fd5b50565b5f81519050620001bb8162000192565b92915050565b5f819050919050565b620001d581620001c1565b8114620001e0575f80fd5b50565b5f81519050620001f381620001ca565b92915050565b5f67ffffffffffffffff82169050919050565b6200021781620001f9565b811462000222575f80fd5b50565b5f8151905062000235816200020c565b92915050565b5f805f805f805f60e0888a0312156200025957620002586200015c565b5b5f620002688a828b01620001ab565b97505060206200027b8a828b01620001e3565b96505060406200028e8a828b01620001e3565b9550506060620002a18a828b0162000225565b9450506080620002b48a828b01620001ab565b93505060a0620002c78a828b01620001ab565b92505060c0620002da8a828b01620001ab565b91505092959891949750929550565b60805160a05160c05160e051610100516101205161014051611ad3620003b25f395f818161049601526108e001525f81816102ea015261079001525f81816102b4015281816104ba01528181610ad40152610c5701525f8181610348015281816104040152818161058801526105ff01525f818161037c015281816104380152818161066b01528181610a420152610ab001525f818161030e0152818161096d0152610a0c01525f818161098e01528181610bb201528181610c790152610cc30152611ad35ff3fe608060405234801561000f575f80fd5b50600436106100f3575f3560e01c80637b10399911610095578063bb1757cf11610064578063bb1757cf14610250578063cf5380b41461026c578063ee38db951461028a578063f7c618c114610294576100f3565b80637b103999146101ec578063a0b094141461020a578063ade6e2aa14610214578063b13b62e714610232576100f3565b80633b62395e116100d15780633b62395e146101515780634585e33b1461016f5780636e04ff0d1461018b57806373b2e80e146101bc576100f3565b806302d05d3f146100f757806302fb0c5e14610115578063238ac93314610133575b5f80fd5b6100ff6102b2565b60405161010c91906111a1565b60405180910390f35b61011d6102d6565b60405161012a91906111d4565b60405180910390f35b61013b6102e8565b60405161014891906111a1565b60405180910390f35b61015961030c565b6040516101669190611205565b60405180910390f35b61018960048036038101906101849190611287565b610330565b005b6101a560048036038101906101a09190611287565b6103e9565b6040516101b392919061135c565b60405180910390f35b6101d660048036038101906101d191906113b4565b610477565b6040516101e391906111d4565b60405180910390f35b6101f4610494565b604051610201919061143a565b60405180910390f35b6102126104b8565b005b61021c610586565b6040516102299190611475565b60405180910390f35b61023a6105aa565b6040516102479190611205565b60405180910390f35b61026a6004803603810190610265919061148e565b6105af565b005b610274610aae565b6040516102819190611205565b60405180910390f35b610292610ad2565b005b61029c610cc1565b6040516102a991906111a1565b60405180910390f35b7f000000000000000000000000000000000000000000000000000000000000000081565b60015f9054906101000a900460ff1681565b7f000000000000000000000000000000000000000000000000000000000000000081565b7f000000000000000000000000000000000000000000000000000000000000000081565b60015f9054906101000a900460ff1680156103a157507f000000000000000000000000000000000000000000000000000000000000000067ffffffffffffffff16421015806103a057507f00000000000000000000000000000000000000000000000000000000000000005f5410155b5b156103e5576103e46040518060400160405280601481526020017f436861696e6c696e6b204175746f6d6174696f6e000000000000000000000000815250610ce5565b5b5050565b5f606060015f9054906101000a900460ff16801561045d57507f000000000000000000000000000000000000000000000000000000000000000067ffffffffffffffff164210158061045c57507f00000000000000000000000000000000000000000000000000000000000000005f5410155b5b915060405180602001604052805f81525090509250929050565b6002602052805f5260405f205f915054906101000a900460ff1681565b7f000000000000000000000000000000000000000000000000000000000000000081565b7f000000000000000000000000000000000000000000000000000000000000000073ffffffffffffffffffffffffffffffffffffffff163373ffffffffffffffffffffffffffffffffffffffff1614610546576040517f08c379a000000000000000000000000000000000000000000000000000000000815260040161053d90611545565b60405180910390fd5b6105846040518060400160405280600c81526020017f4d616e75616c20636c6f73650000000000000000000000000000000000000000815250610ce5565b565b7f000000000000000000000000000000000000000000000000000000000000000081565b5f5481565b60015f9054906101000a900460ff166105fd576040517f08c379a00000000000000000000000000000000000000000000000000000000081526004016105f4906115ad565b60405180910390fd5b7f000000000000000000000000000000000000000000000000000000000000000067ffffffffffffffff164210610669576040517f08c379a000000000000000000000000000000000000000000000000000000000815260040161066090611615565b60405180910390fd5b7f00000000000000000000000000000000000000000000000000000000000000005f54106106cc576040517f08c379a00000000000000000000000000000000000000000000000000000000081526004016106c39061167d565b60405180910390fd5b60025f8473ffffffffffffffffffffffffffffffffffffffff1673ffffffffffffffffffffffffffffffffffffffff1681526020019081526020015f205f9054906101000a900460ff1615610756576040517f08c379a000000000000000000000000000000000000000000000000000000000815260040161074d906116e5565b60405180910390fd5b5f308460405160200161076a929190611748565b6040516020818303038152906040528051906020012090505f61078c82610d4d565b90507f000000000000000000000000000000000000000000000000000000000000000073ffffffffffffffffffffffffffffffffffffffff1661081b85858080601f0160208091040260200160405190810160405280939291908181526020018383808284375f81840152601f19601f8201169050808301925050505050505083610d8090919063ffffffff16565b73ffffffffffffffffffffffffffffffffffffffff1614610871576040517f08c379a0000000000000000000000000000000000000000000000000000000008152600401610868906117bd565b60405180910390fd5b600160025f8773ffffffffffffffffffffffffffffffffffffffff1673ffffffffffffffffffffffffffffffffffffffff1681526020019081526020015f205f6101000a81548160ff02191690831515021790555060015f808282546108d79190611808565b925050819055507f000000000000000000000000000000000000000000000000000000000000000073ffffffffffffffffffffffffffffffffffffffff166393cb9aeb8660646040518363ffffffff1660e01b815260040161093a929190611874565b5f604051808303815f87803b158015610951575f80fd5b505af1158015610963573d5f803e3d5ffd5b505050506109d2857f00000000000000000000000000000000000000000000000000000000000000007f000000000000000000000000000000000000000000000000000000000000000073ffffffffffffffffffffffffffffffffffffffff16610daa9092919063ffffffff16565b8473ffffffffffffffffffffffffffffffffffffffff167fd4c9d8ecc8bf1be6dc655169b10dbe7d7f935d65175441b40c60e52e529818f37f0000000000000000000000000000000000000000000000000000000000000000604051610a389190611205565b60405180910390a27f00000000000000000000000000000000000000000000000000000000000000005f5410610aa757610aa66040518060400160405280601281526020017f4d617820636c61696d7320726561636865640000000000000000000000000000815250610ce5565b5b5050505050565b7f000000000000000000000000000000000000000000000000000000000000000081565b7f000000000000000000000000000000000000000000000000000000000000000073ffffffffffffffffffffffffffffffffffffffff163373ffffffffffffffffffffffffffffffffffffffff1614610b60576040517f08c379a0000000000000000000000000000000000000000000000000000000008152600401610b5790611545565b60405180910390fd5b60015f9054906101000a900460ff1615610baf576040517f08c379a0000000000000000000000000000000000000000000000000000000008152600401610ba6906118e5565b60405180910390fd5b5f7f000000000000000000000000000000000000000000000000000000000000000073ffffffffffffffffffffffffffffffffffffffff166370a08231306040518263ffffffff1660e01b8152600401610c0991906111a1565b602060405180830381865afa158015610c24573d5f803e3d5ffd5b505050506040513d601f19601f82011682018060405250810190610c48919061192d565b90505f811115610cbe57610cbd7f0000000000000000000000000000000000000000000000000000000000000000827f000000000000000000000000000000000000000000000000000000000000000073ffffffffffffffffffffffffffffffffffffffff16610daa9092919063ffffffff16565b5b50565b7f000000000000000000000000000000000000000000000000000000000000000081565b60015f9054906101000a900460ff1615610d4a575f60015f6101000a81548160ff0219169083151502179055507f33e2b1e7f7e38f35a4a2c028afd807aa5148e92af5748f8052cae2fce3004a4d81604051610d41919061199a565b60405180910390a15b50565b5f7f19457468657265756d205369676e6564204d6573736167653a0a3332000000005f5281601c52603c5f209050919050565b5f805f80610d8e8686610e29565b925092509250610d9e8282610e7e565b82935050505092915050565b610e24838473ffffffffffffffffffffffffffffffffffffffff1663a9059cbb8585604051602401610ddd9291906119ba565b604051602081830303815290604052915060e01b6020820180517bffffffffffffffffffffffffffffffffffffffffffffffffffffffff8381831617835250505050610fe0565b505050565b5f805f6041845103610e69575f805f602087015192506040870151915060608701515f1a9050610e5b8882858561107b565b955095509550505050610e77565b5f600285515f1b9250925092505b9250925092565b5f6003811115610e9157610e906119e1565b5b826003811115610ea457610ea36119e1565b5b0315610fdc5760016003811115610ebe57610ebd6119e1565b5b826003811115610ed157610ed06119e1565b5b03610f08576040517ff645eedf00000000000000000000000000000000000000000000000000000000815260040160405180910390fd5b60026003811115610f1c57610f1b6119e1565b5b826003811115610f2f57610f2e6119e1565b5b03610f7357805f1c6040517ffce698f7000000000000000000000000000000000000000000000000000000008152600401610f6a9190611205565b60405180910390fd5b600380811115610f8657610f856119e1565b5b826003811115610f9957610f986119e1565b5b03610fdb57806040517fd78bce0c000000000000000000000000000000000000000000000000000000008152600401610fd29190611a26565b60405180910390fd5b5b5050565b5f8060205f8451602086015f885af180610fff576040513d5f823e3d81fd5b3d92505f519150505f8214611018576001811415611033565b5f8473ffffffffffffffffffffffffffffffffffffffff163b145b1561107557836040517f5274afe700000000000000000000000000000000000000000000000000000000815260040161106c91906111a1565b60405180910390fd5b50505050565b5f805f7f7fffffffffffffffffffffffffffffff5d576e7357a4501ddfe92f46681b20a0845f1c11156110b7575f600385925092509250611158565b5f6001888888886040515f81526020016040526040516110da9493929190611a5a565b6020604051602081039080840390855afa1580156110fa573d5f803e3d5ffd5b5050506020604051035190505f73ffffffffffffffffffffffffffffffffffffffff168173ffffffffffffffffffffffffffffffffffffffff160361114b575f60015f801b93509350935050611158565b805f805f1b935093509350505b9450945094915050565b5f73ffffffffffffffffffffffffffffffffffffffff82169050919050565b5f61118b82611162565b9050919050565b61119b81611181565b82525050565b5f6020820190506111b45f830184611192565b92915050565b5f8115159050919050565b6111ce816111ba565b82525050565b5f6020820190506111e75f8301846111c5565b92915050565b5f819050919050565b6111ff816111ed565b82525050565b5f6020820190506112185f8301846111f6565b92915050565b5f80fd5b5f80fd5b5f80fd5b5f80fd5b5f80fd5b5f8083601f84011261124757611246611226565b5b8235905067ffffffffffffffff8111156112645761126361122a565b5b6020830191508360018202830111156112805761127f61122e565b5b9250929050565b5f806020838503121561129d5761129c61121e565b5b5f83013567ffffffffffffffff8111156112ba576112b9611222565b5b6112c685828601611232565b92509250509250929050565b5f81519050919050565b5f82825260208201905092915050565b5f5b838110156113095780820151818401526020810190506112ee565b5f8484015250505050565b5f601f19601f8301169050919050565b5f61132e826112d2565b61133881856112dc565b93506113488185602086016112ec565b61135181611314565b840191505092915050565b5f60408201905061136f5f8301856111c5565b81810360208301526113818184611324565b90509392505050565b61139381611181565b811461139d575f80fd5b50565b5f813590506113ae8161138a565b92915050565b5f602082840312156113c9576113c861121e565b5b5f6113d6848285016113a0565b91505092915050565b5f819050919050565b5f6114026113fd6113f884611162565b6113df565b611162565b9050919050565b5f611413826113e8565b9050919050565b5f61142482611409565b9050919050565b6114348161141a565b82525050565b5f60208201905061144d5f83018461142b565b92915050565b5f67ffffffffffffffff82169050919050565b61146f81611453565b82525050565b5f6020820190506114885f830184611466565b92915050565b5f805f604084860312156114a5576114a461121e565b5b5f6114b2868287016113a0565b935050602084013567ffffffffffffffff8111156114d3576114d2611222565b5b6114df86828701611232565b92509250509250925092565b5f82825260208201905092915050565b7f51756573745661756c743a204f6e6c792063726561746f7200000000000000005f82015250565b5f61152f6018836114eb565b915061153a826114fb565b602082019050919050565b5f6020820190508181035f83015261155c81611523565b9050919050565b7f51756573745661756c743a205175657374206e6f7420616374697665000000005f82015250565b5f611597601c836114eb565b91506115a282611563565b602082019050919050565b5f6020820190508181035f8301526115c48161158b565b9050919050565b7f51756573745661756c743a2051756573742065787069726564000000000000005f82015250565b5f6115ff6019836114eb565b915061160a826115cb565b602082019050919050565b5f6020820190508181035f83015261162c816115f3565b9050919050565b7f51756573745661756c743a204d617820636c61696d73207265616368656400005f82015250565b5f611667601e836114eb565b915061167282611633565b602082019050919050565b5f6020820190508181035f8301526116948161165b565b9050919050565b7f51756573745661756c743a20416c726561647920636c61696d656400000000005f82015250565b5f6116cf601b836114eb565b91506116da8261169b565b602082019050919050565b5f6020820190508181035f8301526116fc816116c3565b9050919050565b5f8160601b9050919050565b5f61171982611703565b9050919050565b5f61172a8261170f565b9050919050565b61174261173d82611181565b611720565b82525050565b5f6117538285611731565b6014820191506117638284611731565b6014820191508190509392505050565b7f51756573745661756c743a20496e76616c6964207369676e61747572650000005f82015250565b5f6117a7601d836114eb565b91506117b282611773565b602082019050919050565b5f6020820190508181035f8301526117d48161179b565b9050919050565b7f4e487b71000000000000000000000000000000000000000000000000000000005f52601160045260245ffd5b5f611812826111ed565b915061181d836111ed565b9250828201905080821115611835576118346117db565b5b92915050565b5f819050919050565b5f61185e6118596118548461183b565b6113df565b6111ed565b9050919050565b61186e81611844565b82525050565b5f6040820190506118875f830185611192565b6118946020830184611865565b9392505050565b7f51756573745661756c743a205175657374207374696c6c2061637469766500005f82015250565b5f6118cf601e836114eb565b91506118da8261189b565b602082019050919050565b5f6020820190508181035f8301526118fc816118c3565b9050919050565b61190c816111ed565b8114611916575f80fd5b50565b5f8151905061192781611903565b92915050565b5f602082840312156119425761194161121e565b5b5f61194f84828501611919565b91505092915050565b5f81519050919050565b5f61196c82611958565b61197681856114eb565b93506119868185602086016112ec565b61198f81611314565b840191505092915050565b5f6020820190508181035f8301526119b28184611962565b905092915050565b5f6040820190506119cd5f830185611192565b6119da60208301846111f6565b9392505050565b7f4e487b71000000000000000000000000000000000000000000000000000000005f52602160045260245ffd5b5f819050919050565b611a2081611a0e565b82525050565b5f602082019050611a395f830184611a17565b92915050565b5f60ff82169050919050565b611a5481611a3f565b82525050565b5f608082019050611a6d5f830187611a17565b611a7a6020830186611a4b565b611a876040830185611a17565b611a946060830184611a17565b9594505050505056fea2646970667358221220f193d819fd25a3bebe6c1b2475fe4a5e2011e04b1e5b97ea2a6a805ced15faa964736f6c63430008140033","opcodes":"PUSH2 0x160 PUSH1 0x40 MSTORE CALLVALUE DUP1 ISZERO PUSH3 0x11 JUMPI PUSH0 DUP1 REVERT JUMPDEST POP PUSH1 0x40 MLOAD PUSH3 0x1E85 CODESIZE SUB DUP1 PUSH3 0x1E85 DUP4 CODECOPY DUP2 DUP2 ADD PUSH1 0x40 MSTORE DUP2 ADD SWAP1 PUSH3 0x37 SWAP2 SWAP1 PUSH3 0x23B JUMP JUMPDEST DUP7 PUSH20 0xFFFFFFFFFFFFFFFFFFFFFFFFFFFFFFFFFFFFFFFF AND PUSH1 0x80 DUP2 PUSH20 0xFFFFFFFFFFFFFFFFFFFFFFFFFFFFFFFFFFFFFFFF AND DUP2 MSTORE POP POP DUP6 PUSH1 0xA0 DUP2 DUP2 MSTORE POP POP DUP5 PUSH1 0xC0 DUP2 DUP2 MSTORE POP POP DUP4 PUSH8 0xFFFFFFFFFFFFFFFF AND PUSH1 0xE0 DUP2 PUSH8 0xFFFFFFFFFFFFFFFF AND DUP2 MSTORE POP POP DUP3 PUSH20 0xFFFFFFFFFFFFFFFFFFFFFFFFFFFFFFFFFFFFFFFF AND PUSH2 0x100 DUP2 PUSH20 0xFFFFFFFFFFFFFFFFFFFFFFFFFFFFFFFFFFFFFFFF AND DUP2 MSTORE POP POP DUP2 PUSH20 0xFFFFFFFFFFFFFFFFFFFFFFFFFFFFFFFFFFFFFFFF AND PUSH2 0x120 DUP2 PUSH20 0xFFFFFFFFFFFFFFFFFFFFFFFFFFFFFFFFFFFFFFFF AND DUP2 MSTORE POP POP DUP1 PUSH20 0xFFFFFFFFFFFFFFFFFFFFFFFFFFFFFFFFFFFFFFFF AND PUSH2 0x140 DUP2 PUSH20 0xFFFFFFFFFFFFFFFFFFFFFFFFFFFFFFFFFFFFFFFF AND DUP2 MSTORE POP POP PUSH1 0x1 DUP1 PUSH0 PUSH2 0x100 EXP DUP2 SLOAD DUP2 PUSH1 0xFF MUL NOT AND SWAP1 DUP4 ISZERO ISZERO MUL OR SWAP1 SSTORE POP POP POP POP POP POP POP POP PUSH3 0x2E9 JUMP JUMPDEST PUSH0 DUP1 REVERT JUMPDEST PUSH0 PUSH20 0xFFFFFFFFFFFFFFFFFFFFFFFFFFFFFFFFFFFFFFFF DUP3 AND SWAP1 POP SWAP2 SWAP1 POP JUMP JUMPDEST PUSH0 PUSH3 0x18B DUP3 PUSH3 0x160 JUMP JUMPDEST SWAP1 POP SWAP2 SWAP1 POP JUMP JUMPDEST PUSH3 0x19D DUP2 PUSH3 0x17F JUMP JUMPDEST DUP2 EQ PUSH3 0x1A8 JUMPI PUSH0 DUP1 REVERT JUMPDEST POP JUMP JUMPDEST PUSH0 DUP2 MLOAD SWAP1 POP PUSH3 0x1BB DUP2 PUSH3 0x192 JUMP JUMPDEST SWAP3 SWAP2 POP POP JUMP JUMPDEST PUSH0 DUP2 SWAP1 POP SWAP2 SWAP1 POP JUMP JUMPDEST PUSH3 0x1D5 DUP2 PUSH3 0x1C1 JUMP JUMPDEST DUP2 EQ PUSH3 0x1E0 JUMPI PUSH0 DUP1 REVERT JUMPDEST POP JUMP JUMPDEST PUSH0 DUP2 MLOAD SWAP1 POP PUSH3 0x1F3 DUP2 PUSH3 0x1CA JUMP JUMPDEST SWAP3 SWAP2 POP POP JUMP JUMPDEST PUSH0 PUSH8 0xFFFFFFFFFFFFFFFF DUP3 AND SWAP1 POP SWAP2 SWAP1 POP JUMP JUMPDEST PUSH3 0x217 DUP2 PUSH3 0x1F9 JUMP JUMPDEST DUP2 EQ PUSH3 0x222 JUMPI PUSH0 DUP1 REVERT JUMPDEST POP JUMP JUMPDEST PUSH0 DUP2 MLOAD SWAP1 POP PUSH3 0x235 DUP2 PUSH3 0x20C JUMP JUMPDEST SWAP3 SWAP2 POP POP JUMP JUMPDEST PUSH0 DUP1 PUSH0 DUP1 PUSH0 DUP1 PUSH0 PUSH1 0xE0 DUP9 DUP11 SUB SLT ISZERO PUSH3 0x259 JUMPI PUSH3 0x258 PUSH3 0x15C JUMP JUMPDEST JUMPDEST PUSH0 PUSH3 0x268 DUP11 DUP3 DUP12 ADD PUSH3 0x1AB JUMP JUMPDEST SWAP8 POP POP PUSH1 0x20 PUSH3 0x27B DUP11 DUP3 DUP12 ADD PUSH3 0x1E3 JUMP JUMPDEST SWAP7 POP POP PUSH1 0x40 PUSH3 0x28E DUP11 DUP3 DUP12 ADD PUSH3 0x1E3 JUMP JUMPDEST SWAP6 POP POP PUSH1 0x60 PUSH3 0x2A1 DUP11 DUP3 DUP12 ADD PUSH3 0x225 JUMP JUMPDEST SWAP5 POP POP PUSH1 0x80 PUSH3 0x2B4 DUP11 DUP3 DUP12 ADD PUSH3 0x1AB JUMP JUMPDEST SWAP4 POP POP PUSH1 0xA0 PUSH3 0x2C7 DUP11 DUP3 DUP12 ADD PUSH3 0x1AB JUMP JUMPDEST SWAP3 POP POP PUSH1 0xC0 PUSH3 0x2DA DUP11 DUP3 DUP12 ADD PUSH3 0x1AB JUMP JUMPDEST SWAP2 POP POP SWAP3 SWAP6 SWAP9 SWAP2 SWAP5 SWAP8 POP SWAP3 SWAP6 POP JUMP JUMPDEST PUSH1 0x80 MLOAD PUSH1 0xA0 MLOAD PUSH1 0xC0 MLOAD PUSH1 0xE0 MLOAD PUSH2 0x100 MLOAD PUSH2 0x120 MLOAD PUSH2 0x140 MLOAD PUSH2 0x1AD3 PUSH3 0x3B2 PUSH0 CODECOPY PUSH0 DUP2 DUP2 PUSH2 0x496 ADD MSTORE PUSH2 0x8E0 ADD MSTORE PUSH0 DUP2 DUP2 PUSH2 0x2EA ADD MSTORE PUSH2 0x790 ADD MSTORE PUSH0 DUP2 DUP2 PUSH2 0x2B4 ADD MSTORE DUP2 DUP2 PUSH2 0x4BA ADD MSTORE DUP2 DUP2 PUSH2 0xAD4 ADD MSTORE PUSH2 0xC57 ADD MSTORE PUSH0 DUP2 DUP2 PUSH2 0x348 ADD MSTORE DUP2 DUP2 PUSH2 0x404 ADD MSTORE DUP2 DUP2 PUSH2 0x588 ADD MSTORE PUSH2 0x5FF ADD MSTORE PUSH0 DUP2 DUP2 PUSH2 0x37C ADD MSTORE DUP2 DUP2 PUSH2 0x438 ADD MSTORE DUP2 DUP2 PUSH2 0x66B ADD MSTORE DUP2 DUP2 PUSH2 0xA42 ADD MSTORE PUSH2 0xAB0 ADD MSTORE PUSH0 DUP2 DUP2 PUSH2 0x30E ADD MSTORE DUP2 DUP2 PUSH2 0x96D ADD MSTORE PUSH2 0xA0C ADD MSTORE PUSH0 DUP2 DUP2 PUSH2 0x98E ADD MSTORE DUP2 DUP2 PUSH2 0xBB2 ADD MSTORE DUP2 DUP2 PUSH2 0xC79 ADD MSTORE PUSH2 0xCC3 ADD MSTORE PUSH2 0x1AD3 PUSH0 RETURN INVALID PUSH1 0x80 PUSH1 0x40 MSTORE CALLVALUE DUP1 ISZERO PUSH2 0xF JUMPI PUSH0 DUP1 REVERT JUMPDEST POP PUSH1 0x4 CALLDATASIZE LT PUSH2 0xF3 JUMPI PUSH0 CALLDATALOAD PUSH1 0xE0 SHR DUP1 PUSH4 0x7B103999 GT PUSH2 0x95 JUMPI DUP1 PUSH4 0xBB1757CF GT PUSH2 0x64 JUMPI DUP1 PUSH4 0xBB1757CF EQ PUSH2 0x250 JUMPI DUP1 PUSH4 0xCF5380B4 EQ PUSH2 0x26C JUMPI DUP1 PUSH4 0xEE38DB95 EQ PUSH2 0x28A JUMPI DUP1 PUSH4 0xF7C618C1 EQ PUSH2 0x294 JUMPI PUSH2 0xF3 JUMP JUMPDEST DUP1 PUSH4 0x7B103999 EQ PUSH2 0x1EC JUMPI DUP1 PUSH4 0xA0B09414 EQ PUSH2 0x20A JUMPI DUP1 PUSH4 0xADE6E2AA EQ PUSH2 0x214 JUMPI DUP1 PUSH4 0xB13B62E7 EQ PUSH2 0x232 JUMPI PUSH2 0xF3 JUMP JUMPDEST DUP1 PUSH4 0x3B62395E GT PUSH2 0xD1 JUMPI DUP1 PUSH4 0x3B62395E EQ PUSH2 0x151 JUMPI DUP1 PUSH4 0x4585E33B EQ PUSH2 0x16F JUMPI DUP1 PUSH4 0x6E04FF0D EQ PUSH2 0x18B JUMPI DUP1 PUSH4 0x73B2E80E EQ PUSH2 0x1BC JUMPI PUSH2 0xF3 JUMP JUMPDEST DUP1 PUSH4 0x2D05D3F EQ PUSH2 0xF7 JUMPI DUP1 PUSH4 0x2FB0C5E EQ PUSH2 0x115 JUMPI DUP1 PUSH4 0x238AC933 EQ PUSH2 0x133 JUMPI JUMPDEST PUSH0 DUP1 REVERT JUMPDEST PUSH2 0xFF PUSH2 0x2B2 JUMP JUMPDEST PUSH1 0x40 MLOAD PUSH2 0x10C SWAP2 SWAP1 PUSH2 0x11A1 JUMP JUMPDEST PUSH1 0x40 MLOAD DUP1 SWAP2 SUB SWAP1 RETURN JUMPDEST PUSH2 0x11D PUSH2 0x2D6 JUMP JUMPDEST PUSH1 0x40 MLOAD PUSH2 0x12A SWAP2 SWAP1 PUSH2 0x11D4 JUMP JUMPDEST PUSH1 0x40 MLOAD DUP1 SWAP2 SUB SWAP1 RETURN JUMPDEST PUSH2 0x13B PUSH2 0x2E8 JUMP JUMPDEST PUSH1 0x40 MLOAD PUSH2 0x148 SWAP2 SWAP1 PUSH2 0x11A1 JUMP JUMPDEST PUSH1 0x40 MLOAD DUP1 SWAP2 SUB SWAP1 RETURN JUMPDEST PUSH2 0x159 PUSH2 0x30C JUMP JUMPDEST PUSH1 0x40 MLOAD PUSH2 0x166 SWAP2 SWAP1 PUSH2 0x1205 JUMP JUMPDEST PUSH1 0x40 MLOAD DUP1 SWAP2 SUB SWAP1 RETURN JUMPDEST PUSH2 0x189 PUSH1 0x4 DUP1 CALLDATASIZE SUB DUP2 ADD SWAP1 PUSH2 0x184 SWAP2 SWAP1 PUSH2 0x1287 JUMP JUMPDEST PUSH2 0x330 JUMP JUMPDEST STOP JUMPDEST PUSH2 0x1A5 PUSH1 0x4 DUP1 CALLDATASIZE SUB DUP2 ADD SWAP1 PUSH2 0x1A0 SWAP2 SWAP1 PUSH2 0x1287 JUMP JUMPDEST PUSH2 0x3E9 JUMP JUMPDEST PUSH1 0x40 MLOAD PUSH2 0x1B3 SWAP3 SWAP2 SWAP1 PUSH2 0x135C JUMP JUMPDEST PUSH1 0x40 MLOAD DUP1 SWAP2 SUB SWAP1 RETURN JUMPDEST PUSH2 0x1D6 PUSH1 0x4 DUP1 CALLDATASIZE SUB DUP2 ADD SWAP1 PUSH2 0x1D1 SWAP2 SWAP1 PUSH2 0x13B4 JUMP JUMPDEST PUSH2 0x477 JUMP JUMPDEST PUSH1 0x40 MLOAD PUSH2 0x1E3 SWAP2 SWAP1 PUSH2 0x11D4 JUMP JUMPDEST PUSH1 0x40 MLOAD DUP1 SWAP2 SUB SWAP1 RETURN JUMPDEST PUSH2 0x1F4 PUSH2 0x494 JUMP JUMPDEST PUSH1 0x40 MLOAD PUSH2 0x201 SWAP2 SWAP1 PUSH2 0x143A JUMP JUMPDEST PUSH1 0x40 MLOAD DUP1 SWAP2 SUB SWAP1 RETURN JUMPDEST PUSH2 0x212 PUSH2 0x4B8 JUMP JUMPDEST STOP JUMPDEST PUSH2 0x21C PUSH2 0x586 JUMP JUMPDEST PUSH1 0x40 MLOAD PUSH2 0x229 SWAP2 SWAP1 PUSH2 0x1475 JUMP JUMPDEST PUSH1 0x40 MLOAD DUP1 SWAP2 SUB SWAP1 RETURN JUMPDEST PUSH2 0x23A PUSH2 0x5AA JUMP JUMPDEST PUSH1 0x40 MLOAD PUSH2 0x247 SWAP2 SWAP1 PUSH2 0x1205 JUMP JUMPDEST PUSH1 0x40 MLOAD DUP1 SWAP2 SUB SWAP1 RETURN JUMPDEST PUSH2 0x26A PUSH1 0x4 DUP1 CALLDATASIZE SUB DUP2 ADD SWAP1 PUSH2 0x265 SWAP2 SWAP1 PUSH2 0x148E JUMP JUMPDEST PUSH2 0x5AF JUMP JUMPDEST STOP JUMPDEST PUSH2 0x274 PUSH2 0xAAE JUMP JUMPDEST PUSH1 0x40 MLOAD PUSH2 0x281 SWAP2 SWAP1 PUSH2 0x1205 JUMP JUMPDEST PUSH1 0x40 MLOAD DUP1 SWAP2 SUB SWAP1 RETURN JUMPDEST PUSH2 0x292 PUSH2 0xAD2 JUMP JUMPDEST STOP JUMPDEST PUSH2 0x29C PUSH2 0xCC1 JUMP JUMPDEST PUSH1 0x40 MLOAD PUSH2 0x2A9 SWAP2 SWAP1 PUSH2 0x11A1 JUMP JUMPDEST PUSH1 0x40 MLOAD DUP1 SWAP2 SUB SWAP1 RETURN JUMPDEST PUSH32 0x0 DUP2 JUMP JUMPDEST PUSH1 0x1 PUSH0 SWAP1 SLOAD SWAP1 PUSH2 0x100 EXP SWAP1 DIV PUSH1 0xFF AND DUP2 JUMP JUMPDEST PUSH32 0x0 DUP2 JUMP JUMPDEST PUSH32 0x0 DUP2 JUMP JUMPDEST PUSH1 0x1 PUSH0 SWAP1 SLOAD SWAP1 PUSH2 0x100 EXP SWAP1 DIV PUSH1 0xFF AND DUP1 ISZERO PUSH2 0x3A1 JUMPI POP PUSH32 0x0 PUSH8 0xFFFFFFFFFFFFFFFF AND TIMESTAMP LT ISZERO DUP1 PUSH2 0x3A0 JUMPI POP PUSH32 0x0 PUSH0 SLOAD LT ISZERO JUMPDEST JUMPDEST ISZERO PUSH2 0x3E5 JUMPI PUSH2 0x3E4 PUSH1 0x40 MLOAD DUP1 PUSH1 0x40 ADD PUSH1 0x40 MSTORE DUP1 PUSH1 0x14 DUP2 MSTORE PUSH1 0x20 ADD PUSH32 0x436861696E6C696E6B204175746F6D6174696F6E000000000000000000000000 DUP2 MSTORE POP PUSH2 0xCE5 JUMP JUMPDEST JUMPDEST POP POP JUMP JUMPDEST PUSH0 PUSH1 0x60 PUSH1 0x1 PUSH0 SWAP1 SLOAD SWAP1 PUSH2 0x100 EXP SWAP1 DIV PUSH1 0xFF AND DUP1 ISZERO PUSH2 0x45D JUMPI POP PUSH32 0x0 PUSH8 0xFFFFFFFFFFFFFFFF AND TIMESTAMP LT ISZERO DUP1 PUSH2 0x45C JUMPI POP PUSH32 0x0 PUSH0 SLOAD LT ISZERO JUMPDEST JUMPDEST SWAP2 POP PUSH1 0x40 MLOAD DUP1 PUSH1 0x20 ADD PUSH1 0x40 MSTORE DUP1 PUSH0 DUP2 MSTORE POP SWAP1 POP SWAP3 POP SWAP3 SWAP1 POP JUMP JUMPDEST PUSH1 0x2 PUSH1 0x20 MSTORE DUP1 PUSH0 MSTORE PUSH1 0x40 PUSH0 KECCAK256 PUSH0 SWAP2 POP SLOAD SWAP1 PUSH2 0x100 EXP SWAP1 DIV PUSH1 0xFF AND DUP2 JUMP JUMPDEST PUSH32 0x0 DUP2 JUMP JUMPDEST PUSH32 0x0 PUSH20 0xFFFFFFFFFFFFFFFFFFFFFFFFFFFFFFFFFFFFFFFF AND CALLER PUSH20 0xFFFFFFFFFFFFFFFFFFFFFFFFFFFFFFFFFFFFFFFF AND EQ PUSH2 0x546 JUMPI PUSH1 0x40 MLOAD PUSH32 0x8C379A000000000000000000000000000000000000000000000000000000000 DUP2 MSTORE PUSH1 0x4 ADD PUSH2 0x53D SWAP1 PUSH2 0x1545 JUMP JUMPDEST PUSH1 0x40 MLOAD DUP1 SWAP2 SUB SWAP1 REVERT JUMPDEST PUSH2 0x584 PUSH1 0x40 MLOAD DUP1 PUSH1 0x40 ADD PUSH1 0x40 MSTORE DUP1 PUSH1 0xC DUP2 MSTORE PUSH1 0x20 ADD PUSH32 0x4D616E75616C20636C6F73650000000000000000000000000000000000000000 DUP2 MSTORE POP PUSH2 0xCE5 JUMP JUMPDEST JUMP JUMPDEST PUSH32 0x0 DUP2 JUMP JUMPDEST PUSH0 SLOAD DUP2 JUMP JUMPDEST PUSH1 0x1 PUSH0 SWAP1 SLOAD SWAP1 PUSH2 0x100 EXP SWAP1 DIV PUSH1 0xFF AND PUSH2 0x5FD JUMPI PUSH1 0x40 MLOAD PUSH32 0x8C379A000000000000000000000000000000000000000000000000000000000 DUP2 MSTORE PUSH1 0x4 ADD PUSH2 0x5F4 SWAP1 PUSH2 0x15AD JUMP JUMPDEST PUSH1 0x40 MLOAD DUP1 SWAP2 SUB SWAP1 REVERT JUMPDEST PUSH32 0x0 PUSH8 0xFFFFFFFFFFFFFFFF AND TIMESTAMP LT PUSH2 0x669 JUMPI PUSH1 0x40 MLOAD PUSH32 0x8C379A000000000000000000000000000000000000000000000000000000000 DUP2 MSTORE PUSH1 0x4 ADD PUSH2 0x660 SWAP1 PUSH2 0x1615 JUMP JUMPDEST PUSH1 0x40 MLOAD DUP1 SWAP2 SUB SWAP1 REVERT JUMPDEST PUSH32 0x0 PUSH0 SLOAD LT PUSH2 0x6CC JUMPI PUSH1 0x40 MLOAD PUSH32 0x8C379A000000000000000000000000000000000000000000000000000000000 DUP2 MSTORE PUSH1 0x4 ADD PUSH2 0x6C3 SWAP1 PUSH2 0x167D JUMP JUMPDEST PUSH1 0x40 MLOAD DUP1 SWAP2 SUB SWAP1 REVERT JUMPDEST PUSH1 0x2 PUSH0 DUP5 PUSH20 0xFFFFFFFFFFFFFFFFFFFFFFFFFFFFFFFFFFFFFFFF AND PUSH20 0xFFFFFFFFFFFFFFFFFFFFFFFFFFFFFFFFFFFFFFFF AND DUP2 MSTORE PUSH1 0x20 ADD SWAP1 DUP2 MSTORE PUSH1 0x20 ADD PUSH0 KECCAK256 PUSH0 SWAP1 SLOAD SWAP1 PUSH2 0x100 EXP SWAP1 DIV PUSH1 0xFF AND ISZERO PUSH2 0x756 JUMPI PUSH1 0x40 MLOAD PUSH32 0x8C379A000000000000000000000000000000000000000000000000000000000 DUP2 MSTORE PUSH1 0x4 ADD PUSH2 0x74D SWAP1 PUSH2 0x16E5 JUMP JUMPDEST PUSH1 0x40 MLOAD DUP1 SWAP2 SUB SWAP1 REVERT JUMPDEST PUSH0 ADDRESS DUP5 PUSH1 0x40 MLOAD PUSH1 0x20 ADD PUSH2 0x76A SWAP3 SWAP2 SWAP1 PUSH2 0x1748 JUMP JUMPDEST PUSH1 0x40 MLOAD PUSH1 0x20 DUP2 DUP4 SUB SUB DUP2 MSTORE SWAP1 PUSH1 0x40 MSTORE DUP1 MLOAD SWAP1 PUSH1 0x20 ADD KECCAK256 SWAP1 POP PUSH0 PUSH2 0x78C DUP3 PUSH2 0xD4D JUMP JUMPDEST SWAP1 POP PUSH32 0x0 PUSH20 0xFFFFFFFFFFFFFFFFFFFFFFFFFFFFFFFFFFFFFFFF AND PUSH2 0x81B DUP6 DUP6 DUP1 DUP1 PUSH1 0x1F ADD PUSH1 0x20 DUP1 SWAP2 DIV MUL PUSH1 0x20 ADD PUSH1 0x40 MLOAD SWAP1 DUP2 ADD PUSH1 0x40 MSTORE DUP1 SWAP4 SWAP3 SWAP2 SWAP1 DUP2 DUP2 MSTORE PUSH1 0x20 ADD DUP4 DUP4 DUP1 DUP3 DUP5 CALLDATACOPY PUSH0 DUP2 DUP5 ADD MSTORE PUSH1 0x1F NOT PUSH1 0x1F DUP3 ADD AND SWAP1 POP DUP1 DUP4 ADD SWAP3 POP POP POP POP POP POP POP DUP4 PUSH2 0xD80 SWAP1 SWAP2 SWAP1 PUSH4 0xFFFFFFFF AND JUMP JUMPDEST PUSH20 0xFFFFFFFFFFFFFFFFFFFFFFFFFFFFFFFFFFFFFFFF AND EQ PUSH2 0x871 JUMPI PUSH1 0x40 MLOAD PUSH32 0x8C379A000000000000000000000000000000000000000000000000000000000 DUP2 MSTORE PUSH1 0x4 ADD PUSH2 0x868 SWAP1 PUSH2 0x17BD JUMP JUMPDEST PUSH1 0x40 MLOAD DUP1 SWAP2 SUB SWAP1 REVERT JUMPDEST PUSH1 0x1 PUSH1 0x2 PUSH0 DUP8 PUSH20 0xFFFFFFFFFFFFFFFFFFFFFFFFFFFFFFFFFFFFFFFF AND PUSH20 0xFFFFFFFFFFFFFFFFFFFFFFFFFFFFFFFFFFFFFFFF AND DUP2 MSTORE PUSH1 0x20 ADD SWAP1 DUP2 MSTORE PUSH1 0x20 ADD PUSH0 KECCAK256 PUSH0 PUSH2 0x100 EXP DUP2 SLOAD DUP2 PUSH1 0xFF MUL NOT AND SWAP1 DUP4 ISZERO ISZERO MUL OR SWAP1 SSTORE POP PUSH1 0x1 PUSH0 DUP1 DUP3 DUP3 SLOAD PUSH2 0x8D7 SWAP2 SWAP1 PUSH2 0x1808 JUMP JUMPDEST SWAP3 POP POP DUP2 SWAP1 SSTORE POP PUSH32 0x0 PUSH20 0xFFFFFFFFFFFFFFFFFFFFFFFFFFFFFFFFFFFFFFFF AND PUSH4 0x93CB9AEB DUP7 PUSH1 0x64 PUSH1 0x40 MLOAD DUP4 PUSH4 0xFFFFFFFF AND PUSH1 0xE0 SHL DUP2 MSTORE PUSH1 0x4 ADD PUSH2 0x93A SWAP3 SWAP2 SWAP1 PUSH2 0x1874 JUMP JUMPDEST PUSH0 PUSH1 0x40 MLOAD DUP1 DUP4 SUB DUP2 PUSH0 DUP8 DUP1 EXTCODESIZE ISZERO DUP1 ISZERO PUSH2 0x951 JUMPI PUSH0 DUP1 REVERT JUMPDEST POP GAS CALL ISZERO DUP1 ISZERO PUSH2 0x963 JUMPI RETURNDATASIZE PUSH0 DUP1 RETURNDATACOPY RETURNDATASIZE PUSH0 REVERT JUMPDEST POP POP POP POP PUSH2 0x9D2 DUP6 PUSH32 0x0 PUSH32 0x0 PUSH20 0xFFFFFFFFFFFFFFFFFFFFFFFFFFFFFFFFFFFFFFFF AND PUSH2 0xDAA SWAP1 SWAP3 SWAP2 SWAP1 PUSH4 0xFFFFFFFF AND JUMP JUMPDEST DUP5 PUSH20 0xFFFFFFFFFFFFFFFFFFFFFFFFFFFFFFFFFFFFFFFF AND PUSH32 0xD4C9D8ECC8BF1BE6DC655169B10DBE7D7F935D65175441B40C60E52E529818F3 PUSH32 0x0 PUSH1 0x40 MLOAD PUSH2 0xA38 SWAP2 SWAP1 PUSH2 0x1205 JUMP JUMPDEST PUSH1 0x40 MLOAD DUP1 SWAP2 SUB SWAP1 LOG2 PUSH32 0x0 PUSH0 SLOAD LT PUSH2 0xAA7 JUMPI PUSH2 0xAA6 PUSH1 0x40 MLOAD DUP1 PUSH1 0x40 ADD PUSH1 0x40 MSTORE DUP1 PUSH1 0x12 DUP2 MSTORE PUSH1 0x20 ADD PUSH32 0x4D617820636C61696D7320726561636865640000000000000000000000000000 DUP2 MSTORE POP PUSH2 0xCE5 JUMP JUMPDEST JUMPDEST POP POP POP POP POP JUMP JUMPDEST PUSH32 0x0 DUP2 JUMP JUMPDEST PUSH32 0x0 PUSH20 0xFFFFFFFFFFFFFFFFFFFFFFFFFFFFFFFFFFFFFFFF AND CALLER PUSH20 0xFFFFFFFFFFFFFFFFFFFFFFFFFFFFFFFFFFFFFFFF AND EQ PUSH2 0xB60 JUMPI PUSH1 0x40 MLOAD PUSH32 0x8C379A000000000000000000000000000000000000000000000000000000000 DUP2 MSTORE PUSH1 0x4 ADD PUSH2 0xB57 SWAP1 PUSH2 0x1545 JUMP JUMPDEST PUSH1 0x40 MLOAD DUP1 SWAP2 SUB SWAP1 REVERT JUMPDEST PUSH1 0x1 PUSH0 SWAP1 SLOAD SWAP1 PUSH2 0x100 EXP SWAP1 DIV PUSH1 0xFF AND ISZERO PUSH2 0xBAF JUMPI PUSH1 0x40 MLOAD PUSH32 0x8C379A000000000000000000000000000000000000000000000000000000000 DUP2 MSTORE PUSH1 0x4 ADD PUSH2 0xBA6 SWAP1 PUSH2 0x18E5 JUMP JUMPDEST PUSH1 0x40 MLOAD DUP1 SWAP2 SUB SWAP1 REVERT JUMPDEST PUSH0 PUSH32 0x0 PUSH20 0xFFFFFFFFFFFFFFFFFFFFFFFFFFFFFFFFFFFFFFFF AND PUSH4 0x70A08231 ADDRESS PUSH1 0x40 MLOAD DUP3 PUSH4 0xFFFFFFFF AND PUSH1 0xE0 SHL DUP2 MSTORE PUSH1 0x4 ADD PUSH2 0xC09 SWAP2 SWAP1 PUSH2 0x11A1 JUMP JUMPDEST PUSH1 0x20 PUSH1 0x40 MLOAD DUP1 DUP4 SUB DUP2 DUP7 GAS STATICCALL ISZERO DUP1 ISZERO PUSH2 0xC24 JUMPI RETURNDATASIZE PUSH0 DUP1 RETURNDATACOPY RETURNDATASIZE PUSH0 REVERT JUMPDEST POP POP POP POP PUSH1 0x40 MLOAD RETURNDATASIZE PUSH1 0x1F NOT PUSH1 0x1F DUP3 ADD AND DUP3 ADD DUP1 PUSH1 0x40 MSTORE POP DUP2 ADD SWAP1 PUSH2 0xC48 SWAP2 SWAP1 PUSH2 0x192D JUMP JUMPDEST SWAP1 POP PUSH0 DUP2 GT ISZERO PUSH2 0xCBE JUMPI PUSH2 0xCBD PUSH32 0x0 DUP3 PUSH32 0x0 PUSH20 0xFFFFFFFFFFFFFFFFFFFFFFFFFFFFFFFFFFFFFFFF AND PUSH2 0xDAA SWAP1 SWAP3 SWAP2 SWAP1 PUSH4 0xFFFFFFFF AND JUMP JUMPDEST JUMPDEST POP JUMP JUMPDEST PUSH32 0x0 DUP2 JUMP JUMPDEST PUSH1 0x1 PUSH0 SWAP1 SLOAD SWAP1 PUSH2 0x100 EXP SWAP1 DIV PUSH1 0xFF AND ISZERO PUSH2 0xD4A JUMPI PUSH0 PUSH1 0x1 PUSH0 PUSH2 0x100 EXP DUP2 SLOAD DUP2 PUSH1 0xFF MUL NOT AND SWAP1 DUP4 ISZERO ISZERO MUL OR SWAP1 SSTORE POP PUSH32 0x33E2B1E7F7E38F35A4A2C028AFD807AA5148E92AF5748F8052CAE2FCE3004A4D DUP2 PUSH1 0x40 MLOAD PUSH2 0xD41 SWAP2 SWAP1 PUSH2 0x199A JUMP JUMPDEST PUSH1 0x40 MLOAD DUP1 SWAP2 SUB SWAP1 LOG1 JUMPDEST POP JUMP JUMPDEST PUSH0 PUSH32 0x19457468657265756D205369676E6564204D6573736167653A0A333200000000 PUSH0 MSTORE DUP2 PUSH1 0x1C MSTORE PUSH1 0x3C PUSH0 KECCAK256 SWAP1 POP SWAP2 SWAP1 POP JUMP JUMPDEST PUSH0 DUP1 PUSH0 DUP1 PUSH2 0xD8E DUP7 DUP7 PUSH2 0xE29 JUMP JUMPDEST SWAP3 POP SWAP3 POP SWAP3 POP PUSH2 0xD9E DUP3 DUP3 PUSH2 0xE7E JUMP JUMPDEST DUP3 SWAP4 POP POP POP POP SWAP3 SWAP2 POP POP JUMP JUMPDEST PUSH2 0xE24 DUP4 DUP5 PUSH20 0xFFFFFFFFFFFFFFFFFFFFFFFFFFFFFFFFFFFFFFFF AND PUSH4 0xA9059CBB DUP6 DUP6 PUSH1 0x40 MLOAD PUSH1 0x24 ADD PUSH2 0xDDD SWAP3 SWAP2 SWAP1 PUSH2 0x19BA JUMP JUMPDEST PUSH1 0x40 MLOAD PUSH1 0x20 DUP2 DUP4 SUB SUB DUP2 MSTORE SWAP1 PUSH1 0x40 MSTORE SWAP2 POP PUSH1 0xE0 SHL PUSH1 0x20 DUP3 ADD DUP1 MLOAD PUSH28 0xFFFFFFFFFFFFFFFFFFFFFFFFFFFFFFFFFFFFFFFFFFFFFFFFFFFFFFFF DUP4 DUP2 DUP4 AND OR DUP4 MSTORE POP POP POP POP PUSH2 0xFE0 JUMP JUMPDEST POP POP POP JUMP JUMPDEST PUSH0 DUP1 PUSH0 PUSH1 0x41 DUP5 MLOAD SUB PUSH2 0xE69 JUMPI PUSH0 DUP1 PUSH0 PUSH1 0x20 DUP8 ADD MLOAD SWAP3 POP PUSH1 0x40 DUP8 ADD MLOAD SWAP2 POP PUSH1 0x60 DUP8 ADD MLOAD PUSH0 BYTE SWAP1 POP PUSH2 0xE5B DUP9 DUP3 DUP6 DUP6 PUSH2 0x107B JUMP JUMPDEST SWAP6 POP SWAP6 POP SWAP6 POP POP POP POP PUSH2 0xE77 JUMP JUMPDEST PUSH0 PUSH1 0x2 DUP6 MLOAD PUSH0 SHL SWAP3 POP SWAP3 POP SWAP3 POP JUMPDEST SWAP3 POP SWAP3 POP SWAP3 JUMP JUMPDEST PUSH0 PUSH1 0x3 DUP2 GT ISZERO PUSH2 0xE91 JUMPI PUSH2 0xE90 PUSH2 0x19E1 JUMP JUMPDEST JUMPDEST DUP3 PUSH1 0x3 DUP2 GT ISZERO PUSH2 0xEA4 JUMPI PUSH2 0xEA3 PUSH2 0x19E1 JUMP JUMPDEST JUMPDEST SUB ISZERO PUSH2 0xFDC JUMPI PUSH1 0x1 PUSH1 0x3 DUP2 GT ISZERO PUSH2 0xEBE JUMPI PUSH2 0xEBD PUSH2 0x19E1 JUMP JUMPDEST JUMPDEST DUP3 PUSH1 0x3 DUP2 GT ISZERO PUSH2 0xED1 JUMPI PUSH2 0xED0 PUSH2 0x19E1 JUMP JUMPDEST JUMPDEST SUB PUSH2 0xF08 JUMPI PUSH1 0x40 MLOAD PUSH32 0xF645EEDF00000000000000000000000000000000000000000000000000000000 DUP2 MSTORE PUSH1 0x4 ADD PUSH1 0x40 MLOAD DUP1 SWAP2 SUB SWAP1 REVERT JUMPDEST PUSH1 0x2 PUSH1 0x3 DUP2 GT ISZERO PUSH2 0xF1C JUMPI PUSH2 0xF1B PUSH2 0x19E1 JUMP JUMPDEST JUMPDEST DUP3 PUSH1 0x3 DUP2 GT ISZERO PUSH2 0xF2F JUMPI PUSH2 0xF2E PUSH2 0x19E1 JUMP JUMPDEST JUMPDEST SUB PUSH2 0xF73 JUMPI DUP1 PUSH0 SHR PUSH1 0x40 MLOAD PUSH32 0xFCE698F700000000000000000000000000000000000000000000000000000000 DUP2 MSTORE PUSH1 0x4 ADD PUSH2 0xF6A SWAP2 SWAP1 PUSH2 0x1205 JUMP JUMPDEST PUSH1 0x40 MLOAD DUP1 SWAP2 SUB SWAP1 REVERT JUMPDEST PUSH1 0x3 DUP1 DUP2 GT ISZERO PUSH2 0xF86 JUMPI PUSH2 0xF85 PUSH2 0x19E1 JUMP JUMPDEST JUMPDEST DUP3 PUSH1 0x3 DUP2 GT ISZERO PUSH2 0xF99 JUMPI PUSH2 0xF98 PUSH2 0x19E1 JUMP JUMPDEST JUMPDEST SUB PUSH2 0xFDB JUMPI DUP1 PUSH1 0x40 MLOAD PUSH32 0xD78BCE0C00000000000000000000000000000000000000000000000000000000 DUP2 MSTORE PUSH1 0x4 ADD PUSH2 0xFD2 SWAP2 SWAP1 PUSH2 0x1A26 JUMP JUMPDEST PUSH1 0x40 MLOAD DUP1 SWAP2 SUB SWAP1 REVERT JUMPDEST JUMPDEST POP POP JUMP JUMPDEST PUSH0 DUP1 PUSH1 0x20 PUSH0 DUP5 MLOAD PUSH1 0x20 DUP7 ADD PUSH0 DUP9 GAS CALL DUP1 PUSH2 0xFFF JUMPI PUSH1 0x40 MLOAD RETURNDATASIZE PUSH0 DUP3 RETURNDATACOPY RETURNDATASIZE DUP2 REVERT JUMPDEST RETURNDATASIZE SWAP3 POP PUSH0 MLOAD SWAP2 POP POP PUSH0 DUP3 EQ PUSH2 0x1018 JUMPI PUSH1 0x1 DUP2 EQ ISZERO PUSH2 0x1033 JUMP JUMPDEST PUSH0 DUP5 PUSH20 0xFFFFFFFFFFFFFFFFFFFFFFFFFFFFFFFFFFFFFFFF AND EXTCODESIZE EQ JUMPDEST ISZERO PUSH2 0x1075 JUMPI DUP4 PUSH1 0x40 MLOAD PUSH32 0x5274AFE700000000000000000000000000000000000000000000000000000000 DUP2 MSTORE PUSH1 0x4 ADD PUSH2 0x106C SWAP2 SWAP1 PUSH2 0x11A1 JUMP JUMPDEST PUSH1 0x40 MLOAD DUP1 SWAP2 SUB SWAP1 REVERT JUMPDEST POP POP POP POP JUMP JUMPDEST PUSH0 DUP1 PUSH0 PUSH32 0x7FFFFFFFFFFFFFFFFFFFFFFFFFFFFFFF5D576E7357A4501DDFE92F46681B20A0 DUP5 PUSH0 SHR GT ISZERO PUSH2 0x10B7 JUMPI PUSH0 PUSH1 0x3 DUP6 SWAP3 POP SWAP3 POP SWAP3 POP PUSH2 0x1158 JUMP JUMPDEST PUSH0 PUSH1 0x1 DUP9 DUP9 DUP9 DUP9 PUSH1 0x40 MLOAD PUSH0 DUP2 MSTORE PUSH1 0x20 ADD PUSH1 0x40 MSTORE PUSH1 0x40 MLOAD PUSH2 0x10DA SWAP5 SWAP4 SWAP3 SWAP2 SWAP1 PUSH2 0x1A5A JUMP JUMPDEST PUSH1 0x20 PUSH1 0x40 MLOAD PUSH1 0x20 DUP2 SUB SWAP1 DUP1 DUP5 SUB SWAP1 DUP6 GAS STATICCALL ISZERO DUP1 ISZERO PUSH2 0x10FA JUMPI RETURNDATASIZE PUSH0 DUP1 RETURNDATACOPY RETURNDATASIZE PUSH0 REVERT JUMPDEST POP POP POP PUSH1 0x20 PUSH1 0x40 MLOAD SUB MLOAD SWAP1 POP PUSH0 PUSH20 0xFFFFFFFFFFFFFFFFFFFFFFFFFFFFFFFFFFFFFFFF AND DUP2 PUSH20 0xFFFFFFFFFFFFFFFFFFFFFFFFFFFFFFFFFFFFFFFF AND SUB PUSH2 0x114B JUMPI PUSH0 PUSH1 0x1 PUSH0 DUP1 SHL SWAP4 POP SWAP4 POP SWAP4 POP POP PUSH2 0x1158 JUMP JUMPDEST DUP1 PUSH0 DUP1 PUSH0 SHL SWAP4 POP SWAP4 POP SWAP4 POP POP JUMPDEST SWAP5 POP SWAP5 POP SWAP5 SWAP2 POP POP JUMP JUMPDEST PUSH0 PUSH20 0xFFFFFFFFFFFFFFFFFFFFFFFFFFFFFFFFFFFFFFFF DUP3 AND SWAP1 POP SWAP2 SWAP1 POP JUMP JUMPDEST PUSH0 PUSH2 0x118B DUP3 PUSH2 0x1162 JUMP JUMPDEST SWAP1 POP SWAP2 SWAP1 POP JUMP JUMPDEST PUSH2 0x119B DUP2 PUSH2 0x1181 JUMP JUMPDEST DUP3 MSTORE POP POP JUMP JUMPDEST PUSH0 PUSH1 0x20 DUP3 ADD SWAP1 POP PUSH2 0x11B4 PUSH0 DUP4 ADD DUP5 PUSH2 0x1192 JUMP JUMPDEST SWAP3 SWAP2 POP POP JUMP JUMPDEST PUSH0 DUP2 ISZERO ISZERO SWAP1 POP SWAP2 SWAP1 POP JUMP JUMPDEST PUSH2 0x11CE DUP2 PUSH2 0x11BA JUMP JUMPDEST DUP3 MSTORE POP POP JUMP JUMPDEST PUSH0 PUSH1 0x20 DUP3 ADD SWAP1 POP PUSH2 0x11E7 PUSH0 DUP4 ADD DUP5 PUSH2 0x11C5 JUMP JUMPDEST SWAP3 SWAP2 POP POP JUMP JUMPDEST PUSH0 DUP2 SWAP1 POP SWAP2 SWAP1 POP JUMP JUMPDEST PUSH2 0x11FF DUP2 PUSH2 0x11ED JUMP JUMPDEST DUP3 MSTORE POP POP JUMP JUMPDEST PUSH0 PUSH1 0x20 DUP3 ADD SWAP1 POP PUSH2 0x1218 PUSH0 DUP4 ADD DUP5 PUSH2 0x11F6 JUMP JUMPDEST SWAP3 SWAP2 POP POP JUMP JUMPDEST PUSH0 DUP1 REVERT JUMPDEST PUSH0 DUP1 REVERT JUMPDEST PUSH0 DUP1 REVERT JUMPDEST PUSH0 DUP1 REVERT JUMPDEST PUSH0 DUP1 REVERT JUMPDEST PUSH0 DUP1 DUP4 PUSH1 0x1F DUP5 ADD SLT PUSH2 0x1247 JUMPI PUSH2 0x1246 PUSH2 0x1226 JUMP JUMPDEST JUMPDEST DUP3 CALLDATALOAD SWAP1 POP PUSH8 0xFFFFFFFFFFFFFFFF DUP2 GT ISZERO PUSH2 0x1264 JUMPI PUSH2 0x1263 PUSH2 0x122A JUMP JUMPDEST JUMPDEST PUSH1 0x20 DUP4 ADD SWAP2 POP DUP4 PUSH1 0x1 DUP3 MUL DUP4 ADD GT ISZERO PUSH2 0x1280 JUMPI PUSH2 0x127F PUSH2 0x122E JUMP JUMPDEST JUMPDEST SWAP3 POP SWAP3 SWAP1 POP JUMP JUMPDEST PUSH0 DUP1 PUSH1 0x20 DUP4 DUP6 SUB SLT ISZERO PUSH2 0x129D JUMPI PUSH2 0x129C PUSH2 0x121E JUMP JUMPDEST JUMPDEST PUSH0 DUP4 ADD CALLDATALOAD PUSH8 0xFFFFFFFFFFFFFFFF DUP2 GT ISZERO PUSH2 0x12BA JUMPI PUSH2 0x12B9 PUSH2 0x1222 JUMP JUMPDEST JUMPDEST PUSH2 0x12C6 DUP6 DUP3 DUP7 ADD PUSH2 0x1232 JUMP JUMPDEST SWAP3 POP SWAP3 POP POP SWAP3 POP SWAP3 SWAP1 POP JUMP JUMPDEST PUSH0 DUP2 MLOAD SWAP1 POP SWAP2 SWAP1 POP JUMP JUMPDEST PUSH0 DUP3 DUP3 MSTORE PUSH1 0x20 DUP3 ADD SWAP1 POP SWAP3 SWAP2 POP POP JUMP JUMPDEST PUSH0 JUMPDEST DUP4 DUP2 LT ISZERO PUSH2 0x1309 JUMPI DUP1 DUP3 ADD MLOAD DUP2 DUP5 ADD MSTORE PUSH1 0x20 DUP2 ADD SWAP1 POP PUSH2 0x12EE JUMP JUMPDEST PUSH0 DUP5 DUP5 ADD MSTORE POP POP POP POP JUMP JUMPDEST PUSH0 PUSH1 0x1F NOT PUSH1 0x1F DUP4 ADD AND SWAP1 POP SWAP2 SWAP1 POP JUMP JUMPDEST PUSH0 PUSH2 0x132E DUP3 PUSH2 0x12D2 JUMP JUMPDEST PUSH2 0x1338 DUP2 DUP6 PUSH2 0x12DC JUMP JUMPDEST SWAP4 POP PUSH2 0x1348 DUP2 DUP6 PUSH1 0x20 DUP7 ADD PUSH2 0x12EC JUMP JUMPDEST PUSH2 0x1351 DUP2 PUSH2 0x1314 JUMP JUMPDEST DUP5 ADD SWAP2 POP POP SWAP3 SWAP2 POP POP JUMP JUMPDEST PUSH0 PUSH1 0x40 DUP3 ADD SWAP1 POP PUSH2 0x136F PUSH0 DUP4 ADD DUP6 PUSH2 0x11C5 JUMP JUMPDEST DUP2 DUP2 SUB PUSH1 0x20 DUP4 ADD MSTORE PUSH2 0x1381 DUP2 DUP5 PUSH2 0x1324 JUMP JUMPDEST SWAP1 POP SWAP4 SWAP3 POP POP POP JUMP JUMPDEST PUSH2 0x1393 DUP2 PUSH2 0x1181 JUMP JUMPDEST DUP2 EQ PUSH2 0x139D JUMPI PUSH0 DUP1 REVERT JUMPDEST POP JUMP JUMPDEST PUSH0 DUP2 CALLDATALOAD SWAP1 POP PUSH2 0x13AE DUP2 PUSH2 0x138A JUMP JUMPDEST SWAP3 SWAP2 POP POP JUMP JUMPDEST PUSH0 PUSH1 0x20 DUP3 DUP5 SUB SLT ISZERO PUSH2 0x13C9 JUMPI PUSH2 0x13C8 PUSH2 0x121E JUMP JUMPDEST JUMPDEST PUSH0 PUSH2 0x13D6 DUP5 DUP3 DUP6 ADD PUSH2 0x13A0 JUMP JUMPDEST SWAP2 POP POP SWAP3 SWAP2 POP POP JUMP JUMPDEST PUSH0 DUP2 SWAP1 POP SWAP2 SWAP1 POP JUMP JUMPDEST PUSH0 PUSH2 0x1402 PUSH2 0x13FD PUSH2 0x13F8 DUP5 PUSH2 0x1162 JUMP JUMPDEST PUSH2 0x13DF JUMP JUMPDEST PUSH2 0x1162 JUMP JUMPDEST SWAP1 POP SWAP2 SWAP1 POP JUMP JUMPDEST PUSH0 PUSH2 0x1413 DUP3 PUSH2 0x13E8 JUMP JUMPDEST SWAP1 POP SWAP2 SWAP1 POP JUMP JUMPDEST PUSH0 PUSH2 0x1424 DUP3 PUSH2 0x1409 JUMP JUMPDEST SWAP1 POP SWAP2 SWAP1 POP JUMP JUMPDEST PUSH2 0x1434 DUP2 PUSH2 0x141A JUMP JUMPDEST DUP3 MSTORE POP POP JUMP JUMPDEST PUSH0 PUSH1 0x20 DUP3 ADD SWAP1 POP PUSH2 0x144D PUSH0 DUP4 ADD DUP5 PUSH2 0x142B JUMP JUMPDEST SWAP3 SWAP2 POP POP JUMP JUMPDEST PUSH0 PUSH8 0xFFFFFFFFFFFFFFFF DUP3 AND SWAP1 POP SWAP2 SWAP1 POP JUMP JUMPDEST PUSH2 0x146F DUP2 PUSH2 0x1453 JUMP JUMPDEST DUP3 MSTORE POP POP JUMP JUMPDEST PUSH0 PUSH1 0x20 DUP3 ADD SWAP1 POP PUSH2 0x1488 PUSH0 DUP4 ADD DUP5 PUSH2 0x1466 JUMP JUMPDEST SWAP3 SWAP2 POP POP JUMP JUMPDEST PUSH0 DUP1 PUSH0 PUSH1 0x40 DUP5 DUP7 SUB SLT ISZERO PUSH2 0x14A5 JUMPI PUSH2 0x14A4 PUSH2 0x121E JUMP JUMPDEST JUMPDEST PUSH0 PUSH2 0x14B2 DUP7 DUP3 DUP8 ADD PUSH2 0x13A0 JUMP JUMPDEST SWAP4 POP POP PUSH1 0x20 DUP5 ADD CALLDATALOAD PUSH8 0xFFFFFFFFFFFFFFFF DUP2 GT ISZERO PUSH2 0x14D3 JUMPI PUSH2 0x14D2 PUSH2 0x1222 JUMP JUMPDEST JUMPDEST PUSH2 0x14DF DUP7 DUP3 DUP8 ADD PUSH2 0x1232 JUMP JUMPDEST SWAP3 POP SWAP3 POP POP SWAP3 POP SWAP3 POP SWAP3 JUMP JUMPDEST PUSH0 DUP3 DUP3 MSTORE PUSH1 0x20 DUP3 ADD SWAP1 POP SWAP3 SWAP2 POP POP JUMP JUMPDEST PUSH32 0x51756573745661756C743A204F6E6C792063726561746F720000000000000000 PUSH0 DUP3 ADD MSTORE POP JUMP JUMPDEST PUSH0 PUSH2 0x152F PUSH1 0x18 DUP4 PUSH2 0x14EB JUMP JUMPDEST SWAP2 POP PUSH2 0x153A DUP3 PUSH2 0x14FB JUMP JUMPDEST PUSH1 0x20 DUP3 ADD SWAP1 POP SWAP2 SWAP1 POP JUMP JUMPDEST PUSH0 PUSH1 0x20 DUP3 ADD SWAP1 POP DUP2 DUP2 SUB PUSH0 DUP4 ADD MSTORE PUSH2 0x155C DUP2 PUSH2 0x1523 JUMP JUMPDEST SWAP1 POP SWAP2 SWAP1 POP JUMP JUMPDEST PUSH32 0x51756573745661756C743A205175657374206E6F742061637469766500000000 PUSH0 DUP3 ADD MSTORE POP JUMP JUMPDEST PUSH0 PUSH2 0x1597 PUSH1 0x1C DUP4 PUSH2 0x14EB JUMP JUMPDEST SWAP2 POP PUSH2 0x15A2 DUP3 PUSH2 0x1563 JUMP JUMPDEST PUSH1 0x20 DUP3 ADD SWAP1 POP SWAP2 SWAP1 POP JUMP JUMPDEST PUSH0 PUSH1 0x20 DUP3 ADD SWAP1 POP DUP2 DUP2 SUB PUSH0 DUP4 ADD MSTORE PUSH2 0x15C4 DUP2 PUSH2 0x158B JUMP JUMPDEST SWAP1 POP SWAP2 SWAP1 POP JUMP JUMPDEST PUSH32 0x51756573745661756C743A205175657374206578706972656400000000000000 PUSH0 DUP3 ADD MSTORE POP JUMP JUMPDEST PUSH0 PUSH2 0x15FF PUSH1 0x19 DUP4 PUSH2 0x14EB JUMP JUMPDEST SWAP2 POP PUSH2 0x160A DUP3 PUSH2 0x15CB JUMP JUMPDEST PUSH1 0x20 DUP3 ADD SWAP1 POP SWAP2 SWAP1 POP JUMP JUMPDEST PUSH0 PUSH1 0x20 DUP3 ADD SWAP1 POP DUP2 DUP2 SUB PUSH0 DUP4 ADD MSTORE PUSH2 0x162C DUP2 PUSH2 0x15F3 JUMP JUMPDEST SWAP1 POP SWAP2 SWAP1 POP JUMP JUMPDEST PUSH32 0x51756573745661756C743A204D617820636C61696D7320726561636865640000 PUSH0 DUP3 ADD MSTORE POP JUMP JUMPDEST PUSH0 PUSH2 0x1667 PUSH1 0x1E DUP4 PUSH2 0x14EB JUMP JUMPDEST SWAP2 POP PUSH2 0x1672 DUP3 PUSH2 0x1633 JUMP JUMPDEST PUSH1 0x20 DUP3 ADD SWAP1 POP SWAP2 SWAP1 POP JUMP JUMPDEST PUSH0 PUSH1 0x20 DUP3 ADD SWAP1 POP DUP2 DUP2 SUB PUSH0 DUP4 ADD MSTORE PUSH2 0x1694 DUP2 PUSH2 0x165B JUMP JUMPDEST SWAP1 POP SWAP2 SWAP1 POP JUMP JUMPDEST PUSH32 0x51756573745661756C743A20416C726561647920636C61696D65640000000000 PUSH0 DUP3 ADD MSTORE POP JUMP JUMPDEST PUSH0 PUSH2 0x16CF PUSH1 0x1B DUP4 PUSH2 0x14EB JUMP JUMPDEST SWAP2 POP PUSH2 0x16DA DUP3 PUSH2 0x169B JUMP JUMPDEST PUSH1 0x20 DUP3 ADD SWAP1 POP SWAP2 SWAP1 POP JUMP JUMPDEST PUSH0 PUSH1 0x20 DUP3 ADD SWAP1 POP DUP2 DUP2 SUB PUSH0 DUP4 ADD MSTORE PUSH2 0x16FC DUP2 PUSH2 0x16C3 JUMP JUMPDEST SWAP1 POP SWAP2 SWAP1 POP JUMP JUMPDEST PUSH0 DUP2 PUSH1 0x60 SHL SWAP1 POP SWAP2 SWAP1 POP JUMP JUMPDEST PUSH0 PUSH2 0x1719 DUP3 PUSH2 0x1703 JUMP JUMPDEST SWAP1 POP SWAP2 SWAP1 POP JUMP JUMPDEST PUSH0 PUSH2 0x172A DUP3 PUSH2 0x170F JUMP JUMPDEST SWAP1 POP SWAP2 SWAP1 POP JUMP JUMPDEST PUSH2 0x1742 PUSH2 0x173D DUP3 PUSH2 0x1181 JUMP JUMPDEST PUSH2 0x1720 JUMP JUMPDEST DUP3 MSTORE POP POP JUMP JUMPDEST PUSH0 PUSH2 0x1753 DUP3 DUP6 PUSH2 0x1731 JUMP JUMPDEST PUSH1 0x14 DUP3 ADD SWAP2 POP PUSH2 0x1763 DUP3 DUP5 PUSH2 0x1731 JUMP JUMPDEST PUSH1 0x14 DUP3 ADD SWAP2 POP DUP2 SWAP1 POP SWAP4 SWAP3 POP POP POP JUMP JUMPDEST PUSH32 0x51756573745661756C743A20496E76616C6964207369676E6174757265000000 PUSH0 DUP3 ADD MSTORE POP JUMP JUMPDEST PUSH0 PUSH2 0x17A7 PUSH1 0x1D DUP4 PUSH2 0x14EB JUMP JUMPDEST SWAP2 POP PUSH2 0x17B2 DUP3 PUSH2 0x1773 JUMP JUMPDEST PUSH1 0x20 DUP3 ADD SWAP1 POP SWAP2 SWAP1 POP JUMP JUMPDEST PUSH0 PUSH1 0x20 DUP3 ADD SWAP1 POP DUP2 DUP2 SUB PUSH0 DUP4 ADD MSTORE PUSH2 0x17D4 DUP2 PUSH2 0x179B JUMP JUMPDEST SWAP1 POP SWAP2 SWAP1 POP JUMP JUMPDEST PUSH32 0x4E487B7100000000000000000000000000000000000000000000000000000000 PUSH0 MSTORE PUSH1 0x11 PUSH1 0x4 MSTORE PUSH1 0x24 PUSH0 REVERT JUMPDEST PUSH0 PUSH2 0x1812 DUP3 PUSH2 0x11ED JUMP JUMPDEST SWAP2 POP PUSH2 0x181D DUP4 PUSH2 0x11ED JUMP JUMPDEST SWAP3 POP DUP3 DUP3 ADD SWAP1 POP DUP1 DUP3 GT ISZERO PUSH2 0x1835 JUMPI PUSH2 0x1834 PUSH2 0x17DB JUMP JUMPDEST JUMPDEST SWAP3 SWAP2 POP POP JUMP JUMPDEST PUSH0 DUP2 SWAP1 POP SWAP2 SWAP1 POP JUMP JUMPDEST PUSH0 PUSH2 0x185E PUSH2 0x1859 PUSH2 0x1854 DUP5 PUSH2 0x183B JUMP JUMPDEST PUSH2 0x13DF JUMP JUMPDEST PUSH2 0x11ED JUMP JUMPDEST SWAP1 POP SWAP2 SWAP1 POP JUMP JUMPDEST PUSH2 0x186E DUP2 PUSH2 0x1844 JUMP JUMPDEST DUP3 MSTORE POP POP JUMP JUMPDEST PUSH0 PUSH1 0x40 DUP3 ADD SWAP1 POP PUSH2 0x1887 PUSH0 DUP4 ADD DUP6 PUSH2 0x1192 JUMP JUMPDEST PUSH2 0x1894 PUSH1 0x20 DUP4 ADD DUP5 PUSH2 0x1865 JUMP JUMPDEST SWAP4 SWAP3 POP POP POP JUMP JUMPDEST PUSH32 0x51756573745661756C743A205175657374207374696C6C206163746976650000 PUSH0 DUP3 ADD MSTORE POP JUMP JUMPDEST PUSH0 PUSH2 0x18CF PUSH1 0x1E DUP4 PUSH2 0x14EB JUMP JUMPDEST SWAP2 POP PUSH2 0x18DA DUP3 PUSH2 0x189B JUMP JUMPDEST PUSH1 0x20 DUP3 ADD SWAP1 POP SWAP2 SWAP1 POP JUMP JUMPDEST PUSH0 PUSH1 0x20 DUP3 ADD SWAP1 POP DUP2 DUP2 SUB PUSH0 DUP4 ADD MSTORE PUSH2 0x18FC DUP2 PUSH2 0x18C3 JUMP JUMPDEST SWAP1 POP SWAP2 SWAP1 POP JUMP JUMPDEST PUSH2 0x190C DUP2 PUSH2 0x11ED JUMP JUMPDEST DUP2 EQ PUSH2 0x1916 JUMPI PUSH0 DUP1 REVERT JUMPDEST POP JUMP JUMPDEST PUSH0 DUP2 MLOAD SWAP1 POP PUSH2 0x1927 DUP2 PUSH2 0x1903 JUMP JUMPDEST SWAP3 SWAP2 POP POP JUMP JUMPDEST PUSH0 PUSH1 0x20 DUP3 DUP5 SUB SLT ISZERO PUSH2 0x1942 JUMPI PUSH2 0x1941 PUSH2 0x121E JUMP JUMPDEST JUMPDEST PUSH0 PUSH2 0x194F DUP5 DUP3 DUP6 ADD PUSH2 0x1919 JUMP JUMPDEST SWAP2 POP POP SWAP3 SWAP2 POP POP JUMP JUMPDEST PUSH0 DUP2 MLOAD SWAP1 POP SWAP2 SWAP1 POP JUMP JUMPDEST PUSH0 PUSH2 0x196C DUP3 PUSH2 0x1958 JUMP JUMPDEST PUSH2 0x1976 DUP2 DUP6 PUSH2 0x14EB JUMP JUMPDEST SWAP4 POP PUSH2 0x1986 DUP2 DUP6 PUSH1 0x20 DUP7 ADD PUSH2 0x12EC JUMP JUMPDEST PUSH2 0x198F DUP2 PUSH2 0x1314 JUMP JUMPDEST DUP5 ADD SWAP2 POP POP SWAP3 SWAP2 POP POP JUMP JUMPDEST PUSH0 PUSH1 0x20 DUP3 ADD SWAP1 POP DUP2 DUP2 SUB PUSH0 DUP4 ADD MSTORE PUSH2 0x19B2 DUP2 DUP5 PUSH2 0x1962 JUMP JUMPDEST SWAP1 POP SWAP3 SWAP2 POP POP JUMP JUMPDEST PUSH0 PUSH1 0x40 DUP3 ADD SWAP1 POP PUSH2 0x19CD PUSH0 DUP4 ADD DUP6 PUSH2 0x1192 JUMP JUMPDEST PUSH2 0x19DA PUSH1 0x20 DUP4 ADD DUP5 PUSH2 0x11F6 JUMP JUMPDEST SWAP4 SWAP3 POP POP POP JUMP JUMPDEST PUSH32 0x4E487B7100000000000000000000000000000000000000000000000000000000 PUSH0 MSTORE PUSH1 0x21 PUSH1 0x4 MSTORE PUSH1 0x24 PUSH0 REVERT JUMPDEST PUSH0 DUP2 SWAP1 POP SWAP2 SWAP1 POP JUMP JUMPDEST PUSH2 0x1A20 DUP2 PUSH2 0x1A0E JUMP JUMPDEST DUP3 MSTORE POP POP JUMP JUMPDEST PUSH0 PUSH1 0x20 DUP3 ADD SWAP1 POP PUSH2 0x1A39 PUSH0 DUP4 ADD DUP5 PUSH2 0x1A17 JUMP JUMPDEST SWAP3 SWAP2 POP POP JUMP JUMPDEST PUSH0 PUSH1 0xFF DUP3 AND SWAP1 POP SWAP2 SWAP1 POP JUMP JUMPDEST PUSH2 0x1A54 DUP2 PUSH2 0x1A3F JUMP JUMPDEST DUP3 MSTORE POP POP JUMP JUMPDEST PUSH0 PUSH1 0x80 DUP3 ADD SWAP1 POP PUSH2 0x1A6D PUSH0 DUP4 ADD DUP8 PUSH2 0x1A17 JUMP JUMPDEST PUSH2 0x1A7A PUSH1 0x20 DUP4 ADD DUP7 PUSH2 0x1A4B JUMP JUMPDEST PUSH2 0x1A87 PUSH1 0x40 DUP4 ADD DUP6 PUSH2 0x1A17 JUMP JUMPDEST PUSH2 0x1A94 PUSH1 0x60 DUP4 ADD DUP5 PUSH2 0x1A17 JUMP JUMPDEST SWAP6 SWAP5 POP POP POP POP POP JUMP INVALID LOG2 PUSH5 0x6970667358 0x22 SLT KECCAK256 CALL SWAP4 0xD8 NOT REVERT 0x25 LOG3 0xBE 0xBE PUSH13 0x1B2475FE4A5E2011E04B1E5B97 0xEA 0x2A PUSH11 0x805CED15FAA964736F6C63 NUMBER STOP ADDMOD EQ STOP CALLER "},"methodIdentifiers":{"active()":"02fb0c5e","checkUpkeep(bytes)":"6e04ff0d","claim(address,bytes)":"bb1757cf","claimsMade()":"b13b62e7","creator()":"02d05d3f","expiryTimestamp()":"ade6e2aa","hasClaimed(address)":"73b2e80e","manualClose()":"a0b09414","maxClaims()":"cf5380b4","performUpkeep(bytes)":"4585e33b","registry()":"7b103999","rewardPerClaim()":"3b62395e","rewardToken()":"f7c618c1","signer()":"238ac933","withdrawRemaining()":"ee38db95"}}}}}