{"project/contracts/PlayerRegistry.sol":{"PlayerRegistry":{"abi":[{"inputs":[],"stateMutability":"nonpayable","type":"constructor"},{"inputs":[{"internalType":"address","name":"owner","type":"address"}],"name":"OwnableInvalidOwner","type":"error"},{"inputs":[{"internalType":"address","name":"account","type":"address"}],"name":"OwnableUnauthorizedAccount","type":"error"},{"anonymous":false,"inputs":[{"indexed":true,"internalType":"address","name":"previousOwner","type":"address"},{"indexed":true,"internalType":"address","name":"newOwner","type":"address"}],"name":"OwnershipTransferred","type":"event"},{"anonymous":false,"inputs":[{"indexed":true,"internalType":"address","name":"player","type":"address"},{"indexed":false,"internalType":"uint32","name":"questsCompleted","type":"uint32"},{"indexed":false,"internalType":"uint64","name":"xp","type":"uint64"},{"indexed":false,"internalType":"uint8","name":"level","type":"uint8"}],"name":"PlayerUpdated","type":"event"},{"anonymous":false,"inputs":[{"indexed":true,"internalType":"address","name":"updater","type":"address"},{"indexed":false,"internalType":"bool","name":"status","type":"bool"}],"name":"UpdaterStatusChanged","type":"event"},{"inputs":[{"internalType":"address","name":"user","type":"address"}],"name":"getPlayer","outputs":[{"components":[{"internalType":"uint32","name":"questsCompleted","type":"uint32"},{"internalType":"uint64","name":"xp","type":"uint64"},{"internalType":"uint8","name":"level","type":"uint8"},{"internalType":"uint64","name":"lastClaimAt","type":"uint64"}],"internalType":"struct PlayerRegistry.Player","name":"","type":"tuple"}],"stateMutability":"view","type":"function"},{"inputs":[{"internalType":"address","name":"","type":"address"}],"name":"isAuthorizedUpdater","outputs":[{"internalType":"bool","name":"","type":"bool"}],"stateMutability":"view","type":"function"},{"inputs":[],"name":"owner","outputs":[{"internalType":"address","name":"","type":"address"}],"stateMutability":"view","type":"function"},{"inputs":[{"internalType":"address","name":"","type":"address"}],"name":"players","outputs":[{"internalType":"uint32","name":"questsCompleted","type":"uint32"},{"internalType":"uint64","name":"xp","type":"uint64"},{"internalType":"uint8","name":"level","type":"uint8"},{"internalType":"uint64","name":"lastClaimAt","type":"uint64"}],"stateMutability":"view","type":"function"},{"inputs":[],"name":"renounceOwnership","outputs":[],"stateMutability":"nonpayable","type":"function"},{"inputs":[{"internalType":"address","name":"updater","type":"address"},{"internalType":"bool","name":"status","type":"bool"}],"name":"setUpdaterStatus","outputs":[],"stateMutability":"nonpayable","type":"function"},{"inputs":[{"internalType":"address","name":"newOwner","type":"address"}],"name":"transferOwnership","outputs":[],"stateMutability":"nonpayable","type":"function"},{"inputs":[{"internalType":"address","name":"user","type":"address"},{"internalType":"uint256","name":"xpReward","type":"uint256"}],"name":"updatePlayer","outputs":[],"stateMutability":"nonpayable","type":"function"}],"evm":{"bytecode":{"linkReferences":{},"object":"608060405234801561000f575f80fd5b50338061003557604051631e4fbdf760e01b81525f600482015260240160405180910390fd5b61003e81610044565b50610093565b5f80546001600160a01b038381166001600160a01b0319831681178455604051919092169283917f8be0079c531659141344cd1fd0a4f28419497f9722a3daafe3b4186f6b6457e09190a35050565b610714806100a05f395ff3fe608060405234801561000f575f80fd5b5060043610610085575f3560e01c8063b865bccc11610058578063b865bccc146101b0578063bcfd7026146101e2578063e2eb41ff146101f5578063f2fde38b1461027d575f80fd5b80635c12cd4b14610089578063715018a6146101795780638da5cb5b1461018357806393cb9aeb1461019d575b5f80fd5b6101246100973660046105b3565b604080516080810182525f808252602082018190529181018290526060810191909152506001600160a01b03165f908152600160209081526040918290208251608081018452905463ffffffff8116825267ffffffffffffffff640100000000820481169383019390935260ff600160601b82041693820193909352600160681b90920416606082015290565b6040516101709190815163ffffffff16815260208083015167ffffffffffffffff9081169183019190915260408084015160ff1690830152606092830151169181019190915260800190565b60405180910390f35b610181610290565b005b5f546040516001600160a01b039091168152602001610170565b6101816101ab3660046105d3565b6102a3565b6101d26101be3660046105b3565b60026020525f908152604090205460ff1681565b6040519015158152602001610170565b6101816101f03660046105fb565b61047a565b6102446102033660046105b3565b60016020525f908152604090205463ffffffff81169067ffffffffffffffff640100000000820481169160ff600160601b82041691600160681b9091041684565b6040805163ffffffff909516855267ffffffffffffffff938416602086015260ff90921691840191909152166060820152608001610170565b61018161028b3660046105b3565b6104e0565b61029861051d565b6102a15f610549565b565b335f9081526002602052604090205460ff166103175760405162461bcd60e51b815260206004820152602860248201527f506c6179657252656769737472793a204e6f7420617574686f72697a656420746044820152676f2075706461746560c01b60648201526084015b60405180910390fd5b6001600160a01b0382165f908152600160208190526040822080549092839161034790849063ffffffff16610648565b92506101000a81548163ffffffff021916908363ffffffff16021790555081815f0160048282829054906101000a900467ffffffffffffffff1661038b919061066c565b82546101009290920a67ffffffffffffffff818102199093169183160217909155825467ffffffffffffffff60681b1916600160681b42831602178084556103e192506103e8916401000000009091041661068d565b6103ec9060016106bf565b815460ff60601b198116600160601b60ff93841681029182178086556040805163ffffffff95861695909416949094178352640100000000810467ffffffffffffffff16602084015204909216908201526001600160a01b038416907f9f41ceb248391fb8d24622459ef5020aed1ea6922bd4a8aebd56269785a6d4459060600160405180910390a2505050565b61048261051d565b6001600160a01b0382165f81815260026020908152604091829020805460ff191685151590811790915591519182527fdc486691936a2cc9b6cb6c594ebcee1ed20dc97d15108c6ae8c393b67ee98ebb910160405180910390a25050565b6104e861051d565b6001600160a01b03811661051157604051631e4fbdf760e01b81525f600482015260240161030e565b61051a81610549565b50565b5f546001600160a01b031633146102a15760405163118cdaa760e01b815233600482015260240161030e565b5f80546001600160a01b038381166001600160a01b0319831681178455604051919092169283917f8be0079c531659141344cd1fd0a4f28419497f9722a3daafe3b4186f6b6457e09190a35050565b80356001600160a01b03811681146105ae575f80fd5b919050565b5f602082840312156105c3575f80fd5b6105cc82610598565b9392505050565b5f80604083850312156105e4575f80fd5b6105ed83610598565b946020939093013593505050565b5f806040838503121561060c575f80fd5b61061583610598565b915060208301358015158114610629575f80fd5b809150509250929050565b634e487b7160e01b5f52601160045260245ffd5b63ffffffff81811683821601908082111561066557610665610634565b5092915050565b67ffffffffffffffff81811683821601908082111561066557610665610634565b5f67ffffffffffffffff808416806106b357634e487b7160e01b5f52601260045260245ffd5b92169190910492915050565b60ff81811683821601908111156106d8576106d8610634565b9291505056fea264697066735822122014b01470a70095a9567bb8a6e09968258e2a9731c5136e2947be1c1873d9c61764736f6c63430008140033","opcodes":"PUSH1 0x80 PUSH1 0x40 MSTORE CALLVALUE DUP1 ISZERO PUSH2 0xF JUMPI PUSH0 DUP1 REVERT JUMPDEST POP CALLER DUP1 PUSH2 0x35 JUMPI PUSH1 0x40 MLOAD PUSH4 0x1E4FBDF7 PUSH1 0xE0 SHL DUP2 MSTORE PUSH0 PUSH1 0x4 DUP3 ADD MSTORE PUSH1 0x24 ADD PUSH1 0x40 MLOAD DUP1 SWAP2 SUB SWAP1 REVERT JUMPDEST PUSH2 0x3E DUP2 PUSH2 0x44 JUMP JUMPDEST POP PUSH2 0x93 JUMP JUMPDEST PUSH0 DUP1 SLOAD PUSH1 0x1 PUSH1 0x1 PUSH1 0xA0 SHL SUB DUP4 DUP2 AND PUSH1 0x1 PUSH1 0x1 PUSH1 0xA0 SHL SUB NOT DUP4 AND DUP2 OR DUP5 SSTORE PUSH1 0x40 MLOAD SWAP2 SWAP1 SWAP3 AND SWAP3 DUP4 SWAP2 PUSH32 0x8BE0079C531659141344CD1FD0A4F28419497F9722A3DAAFE3B4186F6B6457E0 SWAP2 SWAP1 LOG3 POP POP JUMP JUMPDEST PUSH2 0x714 DUP1 PUSH2 0xA0 PUSH0 CODECOPY PUSH0 RETURN INVALID PUSH1 0x80 PUSH1 0x40 MSTORE CALLVALUE DUP1 ISZERO PUSH2 0xF JUMPI PUSH0 DUP1 REVERT JUMPDEST POP PUSH1 0x4 CALLDATASIZE LT PUSH2 0x85 JUMPI PUSH0 CALLDATALOAD PUSH1 0xE0 SHR DUP1 PUSH4 0xB865BCCC GT PUSH2 0x58 JUMPI DUP1 PUSH4 0xB865BCCC EQ PUSH2 0x1B0 JUMPI DUP1 PUSH4 0xBCFD7026 EQ PUSH2 0x1E2 JUMPI DUP1 PUSH4 0xE2EB41FF EQ PUSH2 0x1F5 JUMPI DUP1 PUSH4 0xF2FDE38B EQ PUSH2 0x27D JUMPI PUSH0 DUP1 REVERT JUMPDEST DUP1 PUSH4 0x5C12CD4B EQ PUSH2 0x89 JUMPI DUP1 PUSH4 0x715018A6 EQ PUSH2 0x179 JUMPI DUP1 PUSH4 0x8DA5CB5B EQ PUSH2 0x183 JUMPI DUP1 PUSH4 0x93CB9AEB EQ PUSH2 0x19D JUMPI JUMPDEST PUSH0 DUP1 REVERT JUMPDEST PUSH2 0x124 PUSH2 0x97 CALLDATASIZE PUSH1 0x4 PUSH2 0x5B3 JUMP JUMPDEST PUSH1 0x40 DUP1 MLOAD PUSH1 0x80 DUP2 ADD DUP3 MSTORE PUSH0 DUP1 DUP3 MSTORE PUSH1 0x20 DUP3 ADD DUP2 SWAP1 MSTORE SWAP2 DUP2 ADD DUP3 SWAP1 MSTORE PUSH1 0x60 DUP2 ADD SWAP2 SWAP1 SWAP2 MSTORE POP PUSH1 0x1 PUSH1 0x1 PUSH1 0xA0 SHL SUB AND PUSH0 SWAP1 DUP2 MSTORE PUSH1 0x1 PUSH1 0x20 SWAP1 DUP2 MSTORE PUSH1 0x40 SWAP2 DUP3 SWAP1 KECCAK256 DUP3 MLOAD PUSH1 0x80 DUP2 ADD DUP5 MSTORE SWAP1 SLOAD PUSH4 0xFFFFFFFF DUP2 AND DUP3 MSTORE PUSH8 0xFFFFFFFFFFFFFFFF PUSH5 0x100000000 DUP3 DIV DUP2 AND SWAP4 DUP4 ADD SWAP4 SWAP1 SWAP4 MSTORE PUSH1 0xFF PUSH1 0x1 PUSH1 0x60 SHL DUP3 DIV AND SWAP4 DUP3 ADD SWAP4 SWAP1 SWAP4 MSTORE PUSH1 0x1 PUSH1 0x68 SHL SWAP1 SWAP3 DIV AND PUSH1 0x60 DUP3 ADD MSTORE SWAP1 JUMP JUMPDEST PUSH1 0x40 MLOAD PUSH2 0x170 SWAP2 SWAP1 DUP2 MLOAD PUSH4 0xFFFFFFFF AND DUP2 MSTORE PUSH1 0x20 DUP1 DUP4 ADD MLOAD PUSH8 0xFFFFFFFFFFFFFFFF SWAP1 DUP2 AND SWAP2 DUP4 ADD SWAP2 SWAP1 SWAP2 MSTORE PUSH1 0x40 DUP1 DUP5 ADD MLOAD PUSH1 0xFF AND SWAP1 DUP4 ADD MSTORE PUSH1 0x60 SWAP3 DUP4 ADD MLOAD AND SWAP2 DUP2 ADD SWAP2 SWAP1 SWAP2 MSTORE PUSH1 0x80 ADD SWAP1 JUMP JUMPDEST PUSH1 0x40 MLOAD DUP1 SWAP2 SUB SWAP1 RETURN JUMPDEST PUSH2 0x181 PUSH2 0x290 JUMP JUMPDEST STOP JUMPDEST PUSH0 SLOAD PUSH1 0x40 MLOAD PUSH1 0x1 PUSH1 0x1 PUSH1 0xA0 SHL SUB SWAP1 SWAP2 AND DUP2 MSTORE PUSH1 0x20 ADD PUSH2 0x170 JUMP JUMPDEST PUSH2 0x181 PUSH2 0x1AB CALLDATASIZE PUSH1 0x4 PUSH2 0x5D3 JUMP JUMPDEST PUSH2 0x2A3 JUMP JUMPDEST PUSH2 0x1D2 PUSH2 0x1BE CALLDATASIZE PUSH1 0x4 PUSH2 0x5B3 JUMP JUMPDEST PUSH1 0x2 PUSH1 0x20 MSTORE PUSH0 SWAP1 DUP2 MSTORE PUSH1 0x40 SWAP1 KECCAK256 SLOAD PUSH1 0xFF AND DUP2 JUMP JUMPDEST PUSH1 0x40 MLOAD SWAP1 ISZERO ISZERO DUP2 MSTORE PUSH1 0x20 ADD PUSH2 0x170 JUMP JUMPDEST PUSH2 0x181 PUSH2 0x1F0 CALLDATASIZE PUSH1 0x4 PUSH2 0x5FB JUMP JUMPDEST PUSH2 0x47A JUMP JUMPDEST PUSH2 0x244 PUSH2 0x203 CALLDATASIZE PUSH1 0x4 PUSH2 0x5B3 JUMP JUMPDEST PUSH1 0x1 PUSH1 0x20 MSTORE PUSH0 SWAP1 DUP2 MSTORE PUSH1 0x40 SWAP1 KECCAK256 SLOAD PUSH4 0xFFFFFFFF DUP2 AND SWAP1 PUSH8 0xFFFFFFFFFFFFFFFF PUSH5 0x100000000 DUP3 DIV DUP2 AND SWAP2 PUSH1 0xFF PUSH1 0x1 PUSH1 0x60 SHL DUP3 DIV AND SWAP2 PUSH1 0x1 PUSH1 0x68 SHL SWAP1 SWAP2 DIV AND DUP5 JUMP JUMPDEST PUSH1 0x40 DUP1 MLOAD PUSH4 0xFFFFFFFF SWAP1 SWAP6 AND DUP6 MSTORE PUSH8 0xFFFFFFFFFFFFFFFF SWAP4 DUP5 AND PUSH1 0x20 DUP7 ADD MSTORE PUSH1 0xFF SWAP1 SWAP3 AND SWAP2 DUP5 ADD SWAP2 SWAP1 SWAP2 MSTORE AND PUSH1 0x60 DUP3 ADD MSTORE PUSH1 0x80 ADD PUSH2 0x170 JUMP JUMPDEST PUSH2 0x181 PUSH2 0x28B CALLDATASIZE PUSH1 0x4 PUSH2 0x5B3 JUMP JUMPDEST PUSH2 0x4E0 JUMP JUMPDEST PUSH2 0x298 PUSH2 0x51D JUMP JUMPDEST PUSH2 0x2A1 PUSH0 PUSH2 0x549 JUMP JUMPDEST JUMP JUMPDEST CALLER PUSH0 SWAP1 DUP2 MSTORE PUSH1 0x2 PUSH1 0x20 MSTORE PUSH1 0x40 SWAP1 KECCAK256 SLOAD PUSH1 0xFF AND PUSH2 0x317 JUMPI PUSH1 0x40 MLOAD PUSH3 0x461BCD PUSH1 0xE5 SHL DUP2 MSTORE PUSH1 0x20 PUSH1 0x4 DUP3 ADD MSTORE PUSH1 0x28 PUSH1 0x24 DUP3 ADD MSTORE PUSH32 0x506C6179657252656769737472793A204E6F7420617574686F72697A65642074 PUSH1 0x44 DUP3 ADD MSTORE PUSH8 0x6F20757064617465 PUSH1 0xC0 SHL PUSH1 0x64 DUP3 ADD MSTORE PUSH1 0x84 ADD JUMPDEST PUSH1 0x40 MLOAD DUP1 SWAP2 SUB SWAP1 REVERT JUMPDEST PUSH1 0x1 PUSH1 0x1 PUSH1 0xA0 SHL SUB DUP3 AND PUSH0 SWAP1 DUP2 MSTORE PUSH1 0x1 PUSH1 0x20 DUP2 SWAP1 MSTORE PUSH1 0x40 DUP3 KECCAK256 DUP1 SLOAD SWAP1 SWAP3 DUP4 SWAP2 PUSH2 0x347 SWAP1 DUP5 SWAP1 PUSH4 0xFFFFFFFF AND PUSH2 0x648 JUMP JUMPDEST SWAP3 POP PUSH2 0x100 EXP DUP2 SLOAD DUP2 PUSH4 0xFFFFFFFF MUL NOT AND SWAP1 DUP4 PUSH4 0xFFFFFFFF AND MUL OR SWAP1 SSTORE POP DUP2 DUP2 PUSH0 ADD PUSH1 0x4 DUP3 DUP3 DUP3 SWAP1 SLOAD SWAP1 PUSH2 0x100 EXP SWAP1 DIV PUSH8 0xFFFFFFFFFFFFFFFF AND PUSH2 0x38B SWAP2 SWAP1 PUSH2 0x66C JUMP JUMPDEST DUP3 SLOAD PUSH2 0x100 SWAP3 SWAP1 SWAP3 EXP PUSH8 0xFFFFFFFFFFFFFFFF DUP2 DUP2 MUL NOT SWAP1 SWAP4 AND SWAP2 DUP4 AND MUL OR SWAP1 SWAP2 SSTORE DUP3 SLOAD PUSH8 0xFFFFFFFFFFFFFFFF PUSH1 0x68 SHL NOT AND PUSH1 0x1 PUSH1 0x68 SHL TIMESTAMP DUP4 AND MUL OR DUP1 DUP5 SSTORE PUSH2 0x3E1 SWAP3 POP PUSH2 0x3E8 SWAP2 PUSH5 0x100000000 SWAP1 SWAP2 DIV AND PUSH2 0x68D JUMP JUMPDEST PUSH2 0x3EC SWAP1 PUSH1 0x1 PUSH2 0x6BF JUMP JUMPDEST DUP2 SLOAD PUSH1 0xFF PUSH1 0x60 SHL NOT DUP2 AND PUSH1 0x1 PUSH1 0x60 SHL PUSH1 0xFF SWAP4 DUP5 AND DUP2 MUL SWAP2 DUP3 OR DUP1 DUP7 SSTORE PUSH1 0x40 DUP1 MLOAD PUSH4 0xFFFFFFFF SWAP6 DUP7 AND SWAP6 SWAP1 SWAP5 AND SWAP5 SWAP1 SWAP5 OR DUP4 MSTORE PUSH5 0x100000000 DUP2 DIV PUSH8 0xFFFFFFFFFFFFFFFF AND PUSH1 0x20 DUP5 ADD MSTORE DIV SWAP1 SWAP3 AND SWAP1 DUP3 ADD MSTORE PUSH1 0x1 PUSH1 0x1 PUSH1 0xA0 SHL SUB DUP5 AND SWAP1 PUSH32 0x9F41CEB248391FB8D24622459EF5020AED1EA6922BD4A8AEBD56269785A6D445 SWAP1 PUSH1 0x60 ADD PUSH1 0x40 MLOAD DUP1 SWAP2 SUB SWAP1 LOG2 POP POP POP JUMP JUMPDEST PUSH2 0x482 PUSH2 0x51D JUMP JUMPDEST PUSH1 0x1 PUSH1 0x1 PUSH1 0xA0 SHL SUB DUP3 AND PUSH0 DUP2 DUP2 MSTORE PUSH1 0x2 PUSH1 0x20 SWAP1 DUP2 MSTORE PUSH1 0x40 SWAP2 DUP3 SWAP1 KECCAK256 DUP1 SLOAD PUSH1 0xFF NOT AND DUP6 ISZERO ISZERO SWAP1 DUP2 OR SWAP1 SWAP2 SSTORE SWAP2 MLOAD SWAP2 DUP3 MSTORE PUSH32 0xDC486691936A2CC9B6CB6C594EBCEE1ED20DC97D15108C6AE8C393B67EE98EBB SWAP2 ADD PUSH1 0x40 MLOAD DUP1 SWAP2 SUB SWAP1 LOG2 POP POP JUMP JUMPDEST PUSH2 0x4E8 PUSH2 0x51D JUMP JUMPDEST PUSH1 0x1 PUSH1 0x1 PUSH1 0xA0 SHL SUB DUP2 AND PUSH2 0x511 JUMPI PUSH1 0x40 MLOAD PUSH4 0x1E4FBDF7 PUSH1 0xE0 SHL DUP2 MSTORE PUSH0 PUSH1 0x4 DUP3 ADD MSTORE PUSH1 0x24 ADD PUSH2 0x30E JUMP JUMPDEST PUSH2 0x51A DUP2 PUSH2 0x549 JUMP JUMPDEST POP JUMP JUMPDEST PUSH0 SLOAD PUSH1 0x1 PUSH1 0x1 PUSH1 0xA0 SHL SUB AND CALLER EQ PUSH2 0x2A1 JUMPI PUSH1 0x40 MLOAD PUSH4 0x118CDAA7 PUSH1 0xE0 SHL DUP2 MSTORE CALLER PUSH1 0x4 DUP3 ADD MSTORE PUSH1 0x24 ADD PUSH2 0x30E JUMP JUMPDEST PUSH0 DUP1 SLOAD PUSH1 0x1 PUSH1 0x1 PUSH1 0xA0 SHL SUB DUP4 DUP2 AND PUSH1 0x1 PUSH1 0x1 PUSH1 0xA0 SHL SUB NOT DUP4 AND DUP2 OR DUP5 SSTORE PUSH1 0x40 MLOAD SWAP2 SWAP1 SWAP3 AND SWAP3 DUP4 SWAP2 PUSH32 0x8BE0079C531659141344CD1FD0A4F28419497F9722A3DAAFE3B4186F6B6457E0 SWAP2 SWAP1 LOG3 POP POP JUMP JUMPDEST DUP1 CALLDATALOAD PUSH1 0x1 PUSH1 0x1 PUSH1 0xA0 SHL SUB DUP2 AND DUP2 EQ PUSH2 0x5AE JUMPI PUSH0 DUP1 REVERT JUMPDEST SWAP2 SWAP1 POP JUMP JUMPDEST PUSH0 PUSH1 0x20 DUP3 DUP5 SUB SLT ISZERO PUSH2 0x5C3 JUMPI PUSH0 DUP1 REVERT JUMPDEST PUSH2 0x5CC DUP3 PUSH2 0x598 JUMP JUMPDEST SWAP4 SWAP3 POP POP POP JUMP JUMPDEST PUSH0 DUP1 PUSH1 0x40 DUP4 DUP6 SUB SLT ISZERO PUSH2 0x5E4 JUMPI PUSH0 DUP1 REVERT JUMPDEST PUSH2 0x5ED DUP4 PUSH2 0x598 JUMP JUMPDEST SWAP5 PUSH1 0x20 SWAP4 SWAP1 SWAP4 ADD CALLDATALOAD SWAP4 POP POP POP JUMP JUMPDEST PUSH0 DUP1 PUSH1 0x40 DUP4 DUP6 SUB SLT ISZERO PUSH2 0x60C JUMPI PUSH0 DUP1 REVERT JUMPDEST PUSH2 0x615 DUP4 PUSH2 0x598 JUMP JUMPDEST SWAP2 POP PUSH1 0x20 DUP4 ADD CALLDATALOAD DUP1 ISZERO ISZERO DUP2 EQ PUSH2 0x629 JUMPI PUSH0 DUP1 REVERT JUMPDEST DUP1 SWAP2 POP POP SWAP3 POP SWAP3 SWAP1 POP JUMP JUMPDEST PUSH4 0x4E487B71 PUSH1 0xE0 SHL PUSH0 MSTORE PUSH1 0x11 PUSH1 0x4 MSTORE PUSH1 0x24 PUSH0 REVERT JUMPDEST PUSH4 0xFFFFFFFF DUP2 DUP2 AND DUP4 DUP3 AND ADD SWAP1 DUP1 DUP3 GT ISZERO PUSH2 0x665 JUMPI PUSH2 0x665 PUSH2 0x634 JUMP JUMPDEST POP SWAP3 SWAP2 POP POP JUMP JUMPDEST PUSH8 0xFFFFFFFFFFFFFFFF DUP2 DUP2 AND DUP4 DUP3 AND ADD SWAP1 DUP1 DUP3 GT ISZERO PUSH2 0x665 JUMPI PUSH2 0x665 PUSH2 0x634 JUMP JUMPDEST PUSH0 PUSH8 0xFFFFFFFFFFFFFFFF DUP1 DUP5 AND DUP1 PUSH2 0x6B3 JUMPI PUSH4 0x4E487B71 PUSH1 0xE0 SHL PUSH0 MSTORE PUSH1 0x12 PUSH1 0x4 MSTORE PUSH1 0x24 PUSH0 REVERT JUMPDEST SWAP3 AND SWAP2 SWAP1 SWAP2 DIV SWAP3 SWAP2 POP POP JUMP JUMPDEST PUSH1 0xFF DUP2 DUP2 AND DUP4 DUP3 AND ADD SWAP1 DUP2 GT ISZERO PUSH2 0x6D8 JUMPI PUSH2 0x6D8 PUSH2 0x634 JUMP JUMPDEST SWAP3 SWAP2 POP POP JUMP INVALID LOG2 PUSH5 0x6970667358 0x22 SLT KECCAK256 EQ 0xB0 EQ PUSH17 0xA70095A9567BB8A6E09968258E2A9731C5 SGT PUSH15 0x2947BE1C1873D9C61764736F6C6343 STOP ADDMOD EQ STOP CALLER "},"methodIdentifiers":{"getPlayer(address)":"5c12cd4b","isAuthorizedUpdater(address)":"b865bccc","owner()":"8da5cb5b","players(address)":"e2eb41ff","renounceOwnership()":"715018a6","setUpdaterStatus(address,bool)":"bcfd7026","transferOwnership(address)":"f2fde38b","updatePlayer(address,uint256)":"93cb9aeb"}}}}}