{"project/contracts/QuestVault.sol":{"QuestVault":{"abi":[{"inputs":[{"internalType":"address","name":"_rewardToken","type":"address"},{"internalType":"uint256","name":"_rewardPerClaim","type":"uint256"},{"internalType":"uint256","name":"_maxClaims","type":"uint256"},{"internalType":"uint64","name":"_expiryTimestamp","type":"uint64"},{"internalType":"address","name":"_creator","type":"address"},{"internalType":"address","name":"_signer","type":"address"},{"internalType":"address","name":"_registry","type":"address"}],"stateMutability":"nonpayable","type":"constructor"},{"inputs":[],"name":"ECDSAInvalidSignature","type":"error"},{"inputs":[{"internalType":"uint256","name":"length","type":"uint256"}],"name":"ECDSAInvalidSignatureLength","type":"error"},{"inputs":[{"internalType":"bytes32","name":"s","type":"bytes32"}],"name":"ECDSAInvalidSignatureS","type":"error"},{"inputs":[{"internalType":"address","name":"token","type":"address"}],"name":"SafeERC20FailedOperation","type":"error"},{"anonymous":false,"inputs":[{"indexed":true,"internalType":"address","name":"user","type":"address"},{"indexed":false,"internalType":"uint256","name":"amount","type":"uint256"}],"name":"ClaimSuccess","type":"event"},{"anonymous":false,"inputs":[{"indexed":false,"internalType":"string","name":"reason","type":"string"}],"name":"QuestClosed","type":"event"},{"inputs":[],"name":"active","outputs":[{"internalType":"bool","name":"","type":"bool"}],"stateMutability":"view","type":"function"},{"inputs":[{"internalType":"bytes","name":"","type":"bytes"}],"name":"checkUpkeep","outputs":[{"internalType":"bool","name":"upkeepNeeded","type":"bool"},{"internalType":"bytes","name":"performData","type":"bytes"}],"stateMutability":"view","type":"function"},{"inputs":[{"internalType":"address","name":"user","type":"address"},{"internalType":"bytes","name":"signature","type":"bytes"}],"name":"claim","outputs":[],"stateMutability":"nonpayable","type":"function"},{"inputs":[],"name":"claimsMade","outputs":[{"internalType":"uint256","name":"","type":"uint256"}],"stateMutability":"view","type":"function"},{"inputs":[],"name":"creator","outputs":[{"internalType":"address","name":"","type":"address"}],"stateMutability":"view","type":"function"},{"inputs":[],"name":"expiryTimestamp","outputs":[{"internalType":"uint64","name":"","type":"uint64"}],"stateMutability":"view","type":"function"},{"inputs":[{"internalType":"address","name":"","type":"address"}],"name":"hasClaimed","outputs":[{"internalType":"bool","name":"","type":"bool"}],"stateMutability":"view","type":"function"},{"inputs":[],"name":"manualClose","outputs":[],"stateMutability":"nonpayable","type":"function"},{"inputs":[],"name":"maxClaims","outputs":[{"internalType":"uint256","name":"","type":"uint256"}],"stateMutability":"view","type":"function"},{"inputs":[{"internalType":"bytes","name":"","type":"bytes"}],"name":"performUpkeep","outputs":[],"stateMutability":"nonpayable","type":"function"},{"inputs":[],"name":"registry","outputs":[{"internalType":"contract PlayerRegistry","name":"","type":"address"}],"stateMutability":"view","type":"function"},{"inputs":[],"name":"rewardPerClaim","outputs":[{"internalType":"uint256","name":"","type":"uint256"}],"stateMutability":"view","type":"function"},{"inputs":[],"name":"rewardToken","outputs":[{"internalType":"address","name":"","type":"address"}],"stateMutability":"view","type":"function"},{"inputs":[],"name":"signer","outputs":[{"internalType":"address","name":"","type":"address"}],"stateMutability":"view","type":"function"},{"inputs":[],"name":"withdrawRemaining","outputs":[],"stateMutability":"nonpayable","type":"function"}],"evm":{"bytecode":{"linkReferences":{},"object":"61016060405234801562000011575f80fd5b506040516200121f3803806200121f83398101604081905262000034916200009b565b6001600160a01b0396871660805260a09590955260c0939093526001600160401b0390911660e05283166101005282166101205216610140526001805460ff19168117905562000127565b80516001600160a01b038116811462000096575f80fd5b919050565b5f805f805f805f60e0888a031215620000b2575f80fd5b620000bd886200007f565b602089015160408a015160608b015192995090975095506001600160401b0381168114620000e9575f80fd5b9350620000f9608089016200007f565b92506200010960a089016200007f565b91506200011960c089016200007f565b905092959891949750929550565b60805160a05160c05160e051610100516101205161014051611030620001ef5f395f818161020e01526107fe01525f818161015a01526106dd01525f818160f90152818161041f0152818161097b0152610af501525f818161023d015281816102f8015281816103a2015261050f01525f81816102980152818161032c015281816103d601528181610588015261091001525f81816101810152818161088701526108d801525f81816102c70152818161086201528181610a4d0152610ad301526110305ff3fe608060405234801561000f575f80fd5b50600436106100f0575f3560e01c80637b10399911610093578063bb1757cf11610063578063bb1757cf14610280578063cf5380b414610293578063ee38db95146102ba578063f7c618c1146102c2575f80fd5b80637b10399914610209578063a0b0941414610230578063ade6e2aa14610238578063b13b62e714610278575f80fd5b80633b62395e116100ce5780633b62395e1461017c5780634585e33b146101b15780636e04ff0d146101c657806373b2e80e146101e7575f80fd5b806302d05d3f146100f457806302fb0c5e14610138578063238ac93314610155575b5f80fd5b61011b7f000000000000000000000000000000000000000000000000000000000000000081565b6040516001600160a01b0390911681526020015b60405180910390f35b6001546101459060ff1681565b604051901515815260200161012f565b61011b7f000000000000000000000000000000000000000000000000000000000000000081565b6101a37f000000000000000000000000000000000000000000000000000000000000000081565b60405190815260200161012f565b6101c46101bf366004610e70565b6102e9565b005b6101d96101d4366004610e70565b61038e565b60405161012f929190610ef2565b6101456101f5366004610f2f565b60026020525f908152604090205460ff1681565b61011b7f000000000000000000000000000000000000000000000000000000000000000081565b6101c4610414565b61025f7f000000000000000000000000000000000000000000000000000000000000000081565b60405167ffffffffffffffff909116815260200161012f565b6101a35f5481565b6101c461028e366004610f4f565b6104bb565b6101a37f000000000000000000000000000000000000000000000000000000000000000081565b6101c4610970565b61011b7f000000000000000000000000000000000000000000000000000000000000000081565b60015460ff16801561035057507f000000000000000000000000000000000000000000000000000000000000000067ffffffffffffffff164210158061035057507f00000000000000000000000000000000000000000000000000000000000000005f5410155b1561038a5761038a6040518060400160405280601481526020017321b430b4b73634b7359020baba37b6b0ba34b7b760611b815250610b1d565b5050565b6001545f9060609060ff1680156103fa57507f000000000000000000000000000000000000000000000000000000000000000067ffffffffffffffff16421015806103fa57507f00000000000000000000000000000000000000000000000000000000000000005f5410155b915060405180602001604052805f81525090509250929050565b336001600160a01b037f0000000000000000000000000000000000000000000000000000000000000000161461048c5760405162461bcd60e51b815260206004820152601860248201527728bab2b9ba2b30bab63a1d1027b7363c9031b932b0ba37b960411b60448201526064015b60405180910390fd5b6104b96040518060400160405280600c81526020016b4d616e75616c20636c6f736560a01b815250610b1d565b565b60015460ff1661050d5760405162461bcd60e51b815260206004820152601c60248201527f51756573745661756c743a205175657374206e6f7420616374697665000000006044820152606401610483565b7f000000000000000000000000000000000000000000000000000000000000000067ffffffffffffffff1642106105865760405162461bcd60e51b815260206004820152601960248201527f51756573745661756c743a2051756573742065787069726564000000000000006044820152606401610483565b7f00000000000000000000000000000000000000000000000000000000000000005f54106105f65760405162461bcd60e51b815260206004820152601e60248201527f51756573745661756c743a204d617820636c61696d73207265616368656400006044820152606401610483565b6001600160a01b0383165f9081526002602052604090205460ff161561065e5760405162461bcd60e51b815260206004820152601b60248201527f51756573745661756c743a20416c726561647920636c61696d656400000000006044820152606401610483565b6040516bffffffffffffffffffffffff1930606090811b8216602084015285901b1660348201525f906048016040516020818303038152906040528051906020012090505f6106d9827f19457468657265756d205369676e6564204d6573736167653a0a3332000000005f908152601c91909152603c902090565b90507f00000000000000000000000000000000000000000000000000000000000000006001600160a01b031661074685858080601f0160208091040260200160405190810160405280939291908181526020018383808284375f920191909152508693925050610b6f9050565b6001600160a01b03161461079c5760405162461bcd60e51b815260206004820152601d60248201527f51756573745661756c743a20496e76616c6964207369676e61747572650000006044820152606401610483565b6001600160a01b0385165f908152600260205260408120805460ff19166001908117909155815490919081906107d3908490610f9e565b90915550506040516393cb9aeb60e01b81526001600160a01b038681166004830152606460248301527f000000000000000000000000000000000000000000000000000000000000000016906393cb9aeb906044015f604051808303815f87803b15801561083f575f80fd5b505af1158015610851573d5f803e3d5ffd5b506108ab9250506001600160a01b037f0000000000000000000000000000000000000000000000000000000000000000169050867f0000000000000000000000000000000000000000000000000000000000000000610b99565b846001600160a01b03167fd4c9d8ecc8bf1be6dc655169b10dbe7d7f935d65175441b40c60e52e529818f37f000000000000000000000000000000000000000000000000000000000000000060405161090691815260200190565b60405180910390a27f00000000000000000000000000000000000000000000000000000000000000005f5410610969576109696040518060400160405280601281526020017113585e0818db185a5b5cc81c995858da195960721b815250610b1d565b5050505050565b336001600160a01b037f000000000000000000000000000000000000000000000000000000000000000016146109e35760405162461bcd60e51b815260206004820152601860248201527728bab2b9ba2b30bab63a1d1027b7363c9031b932b0ba37b960411b6044820152606401610483565b60015460ff1615610a365760405162461bcd60e51b815260206004820152601e60248201527f51756573745661756c743a205175657374207374696c6c2061637469766500006044820152606401610483565b6040516370a0823160e01b81523060048201525f907f00000000000000000000000000000000000000000000000000000000000000006001600160a01b0316906370a0823190602401602060405180830381865afa158015610a9a573d5f803e3d5ffd5b505050506040513d601f19601f82011682018060405250810190610abe9190610fbd565b90508015610b1a57610b1a6001600160a01b037f0000000000000000000000000000000000000000000000000000000000000000167f000000000000000000000000000000000000000000000000000000000000000083610b99565b50565b60015460ff16610b2a5750565b6001805460ff191690556040517f33e2b1e7f7e38f35a4a2c028afd807aa5148e92af5748f8052cae2fce3004a4d90610b64908390610fd4565b60405180910390a150565b5f805f80610b7d8686610bf0565b925092509250610b8d8282610c39565b50909150505b92915050565b604080516001600160a01b038416602482015260448082018490528251808303909101815260649091019091526020810180516001600160e01b031663a9059cbb60e01b179052610beb908490610cf1565b505050565b5f805f8351604103610c27576020840151604085015160608601515f1a610c1988828585610d63565b955095509550505050610c32565b505081515f91506002905b9250925092565b5f826003811115610c4c57610c4c610fe6565b03610c55575050565b6001826003811115610c6957610c69610fe6565b03610c875760405163f645eedf60e01b815260040160405180910390fd5b6002826003811115610c9b57610c9b610fe6565b03610cbc5760405163fce698f760e01b815260048101829052602401610483565b6003826003811115610cd057610cd0610fe6565b0361038a576040516335e2f38360e21b815260048101829052602401610483565b5f8060205f8451602086015f885af180610d10576040513d5f823e3d81fd5b50505f513d91508115610d27578060011415610d34565b6001600160a01b0384163b155b15610d5d57604051635274afe760e01b81526001600160a01b0385166004820152602401610483565b50505050565b5f80807f7fffffffffffffffffffffffffffffff5d576e7357a4501ddfe92f46681b20a0841115610d9c57505f91506003905082610e21565b604080515f808252602082018084528a905260ff891692820192909252606081018790526080810186905260019060a0016020604051602081039080840390855afa158015610ded573d5f803e3d5ffd5b5050604051601f1901519150506001600160a01b038116610e1857505f925060019150829050610e21565b92505f91508190505b9450945094915050565b5f8083601f840112610e3b575f80fd5b50813567ffffffffffffffff811115610e52575f80fd5b602083019150836020828501011115610e69575f80fd5b9250929050565b5f8060208385031215610e81575f80fd5b823567ffffffffffffffff811115610e97575f80fd5b610ea385828601610e2b565b90969095509350505050565b5f81518084525f5b81811015610ed357602081850181015186830182015201610eb7565b505f602082860101526020601f19601f83011685010191505092915050565b8215158152604060208201525f610f0c6040830184610eaf565b949350505050565b80356001600160a01b0381168114610f2a575f80fd5b919050565b5f60208284031215610f3f575f80fd5b610f4882610f14565b9392505050565b5f805f60408486031215610f61575f80fd5b610f6a84610f14565b9250602084013567ffffffffffffffff811115610f85575f80fd5b610f9186828701610e2b565b9497909650939450505050565b80820180821115610b9357634e487b7160e01b5f52601160045260245ffd5b5f60208284031215610fcd575f80fd5b5051919050565b602081525f610f486020830184610eaf565b634e487b7160e01b5f52602160045260245ffdfea2646970667358221220a32e0dc843b037766ca9f5c1c1ec3df637223ad93b92f7c0eb624bcf739e3eba64736f6c63430008140033","opcodes":"PUSH2 0x160 PUSH1 0x40 MSTORE CALLVALUE DUP1 ISZERO PUSH3 0x11 JUMPI PUSH0 DUP1 REVERT JUMPDEST POP PUSH1 0x40 MLOAD PUSH3 0x121F CODESIZE SUB DUP1 PUSH3 0x121F DUP4 CODECOPY DUP2 ADD PUSH1 0x40 DUP2 SWAP1 MSTORE PUSH3 0x34 SWAP2 PUSH3 0x9B JUMP JUMPDEST PUSH1 0x1 PUSH1 0x1 PUSH1 0xA0 SHL SUB SWAP7 DUP8 AND PUSH1 0x80 MSTORE PUSH1 0xA0 SWAP6 SWAP1 SWAP6 MSTORE PUSH1 0xC0 SWAP4 SWAP1 SWAP4 MSTORE PUSH1 0x1 PUSH1 0x1 PUSH1 0x40 SHL SUB SWAP1 SWAP2 AND PUSH1 0xE0 MSTORE DUP4 AND PUSH2 0x100 MSTORE DUP3 AND PUSH2 0x120 MSTORE AND PUSH2 0x140 MSTORE PUSH1 0x1 DUP1 SLOAD PUSH1 0xFF NOT AND DUP2 OR SWAP1 SSTORE PUSH3 0x127 JUMP JUMPDEST DUP1 MLOAD PUSH1 0x1 PUSH1 0x1 PUSH1 0xA0 SHL SUB DUP2 AND DUP2 EQ PUSH3 0x96 JUMPI PUSH0 DUP1 REVERT JUMPDEST SWAP2 SWAP1 POP JUMP JUMPDEST PUSH0 DUP1 PUSH0 DUP1 PUSH0 DUP1 PUSH0 PUSH1 0xE0 DUP9 DUP11 SUB SLT ISZERO PUSH3 0xB2 JUMPI PUSH0 DUP1 REVERT JUMPDEST PUSH3 0xBD DUP9 PUSH3 0x7F JUMP JUMPDEST PUSH1 0x20 DUP10 ADD MLOAD PUSH1 0x40 DUP11 ADD MLOAD PUSH1 0x60 DUP12 ADD MLOAD SWAP3 SWAP10 POP SWAP1 SWAP8 POP SWAP6 POP PUSH1 0x1 PUSH1 0x1 PUSH1 0x40 SHL SUB DUP2 AND DUP2 EQ PUSH3 0xE9 JUMPI PUSH0 DUP1 REVERT JUMPDEST SWAP4 POP PUSH3 0xF9 PUSH1 0x80 DUP10 ADD PUSH3 0x7F JUMP JUMPDEST SWAP3 POP PUSH3 0x109 PUSH1 0xA0 DUP10 ADD PUSH3 0x7F JUMP JUMPDEST SWAP2 POP PUSH3 0x119 PUSH1 0xC0 DUP10 ADD PUSH3 0x7F JUMP JUMPDEST SWAP1 POP SWAP3 SWAP6 SWAP9 SWAP2 SWAP5 SWAP8 POP SWAP3 SWAP6 POP JUMP JUMPDEST PUSH1 0x80 MLOAD PUSH1 0xA0 MLOAD PUSH1 0xC0 MLOAD PUSH1 0xE0 MLOAD PUSH2 0x100 MLOAD PUSH2 0x120 MLOAD PUSH2 0x140 MLOAD PUSH2 0x1030 PUSH3 0x1EF PUSH0 CODECOPY PUSH0 DUP2 DUP2 PUSH2 0x20E ADD MSTORE PUSH2 0x7FE ADD MSTORE PUSH0 DUP2 DUP2 PUSH2 0x15A ADD MSTORE PUSH2 0x6DD ADD MSTORE PUSH0 DUP2 DUP2 PUSH1 0xF9 ADD MSTORE DUP2 DUP2 PUSH2 0x41F ADD MSTORE DUP2 DUP2 PUSH2 0x97B ADD MSTORE PUSH2 0xAF5 ADD MSTORE PUSH0 DUP2 DUP2 PUSH2 0x23D ADD MSTORE DUP2 DUP2 PUSH2 0x2F8 ADD MSTORE DUP2 DUP2 PUSH2 0x3A2 ADD MSTORE PUSH2 0x50F ADD MSTORE PUSH0 DUP2 DUP2 PUSH2 0x298 ADD MSTORE DUP2 DUP2 PUSH2 0x32C ADD MSTORE DUP2 DUP2 PUSH2 0x3D6 ADD MSTORE DUP2 DUP2 PUSH2 0x588 ADD MSTORE PUSH2 0x910 ADD MSTORE PUSH0 DUP2 DUP2 PUSH2 0x181 ADD MSTORE DUP2 DUP2 PUSH2 0x887 ADD MSTORE PUSH2 0x8D8 ADD MSTORE PUSH0 DUP2 DUP2 PUSH2 0x2C7 ADD MSTORE DUP2 DUP2 PUSH2 0x862 ADD MSTORE DUP2 DUP2 PUSH2 0xA4D ADD MSTORE PUSH2 0xAD3 ADD MSTORE PUSH2 0x1030 PUSH0 RETURN INVALID PUSH1 0x80 PUSH1 0x40 MSTORE CALLVALUE DUP1 ISZERO PUSH2 0xF JUMPI PUSH0 DUP1 REVERT JUMPDEST POP PUSH1 0x4 CALLDATASIZE LT PUSH2 0xF0 JUMPI PUSH0 CALLDATALOAD PUSH1 0xE0 SHR DUP1 PUSH4 0x7B103999 GT PUSH2 0x93 JUMPI DUP1 PUSH4 0xBB1757CF GT PUSH2 0x63 JUMPI DUP1 PUSH4 0xBB1757CF EQ PUSH2 0x280 JUMPI DUP1 PUSH4 0xCF5380B4 EQ PUSH2 0x293 JUMPI DUP1 PUSH4 0xEE38DB95 EQ PUSH2 0x2BA JUMPI DUP1 PUSH4 0xF7C618C1 EQ PUSH2 0x2C2 JUMPI PUSH0 DUP1 REVERT JUMPDEST DUP1 PUSH4 0x7B103999 EQ PUSH2 0x209 JUMPI DUP1 PUSH4 0xA0B09414 EQ PUSH2 0x230 JUMPI DUP1 PUSH4 0xADE6E2AA EQ PUSH2 0x238 JUMPI DUP1 PUSH4 0xB13B62E7 EQ PUSH2 0x278 JUMPI PUSH0 DUP1 REVERT JUMPDEST DUP1 PUSH4 0x3B62395E GT PUSH2 0xCE JUMPI DUP1 PUSH4 0x3B62395E EQ PUSH2 0x17C JUMPI DUP1 PUSH4 0x4585E33B EQ PUSH2 0x1B1 JUMPI DUP1 PUSH4 0x6E04FF0D EQ PUSH2 0x1C6 JUMPI DUP1 PUSH4 0x73B2E80E EQ PUSH2 0x1E7 JUMPI PUSH0 DUP1 REVERT JUMPDEST DUP1 PUSH4 0x2D05D3F EQ PUSH2 0xF4 JUMPI DUP1 PUSH4 0x2FB0C5E EQ PUSH2 0x138 JUMPI DUP1 PUSH4 0x238AC933 EQ PUSH2 0x155 JUMPI JUMPDEST PUSH0 DUP1 REVERT JUMPDEST PUSH2 0x11B PUSH32 0x0 DUP2 JUMP JUMPDEST PUSH1 0x40 MLOAD PUSH1 0x1 PUSH1 0x1 PUSH1 0xA0 SHL SUB SWAP1 SWAP2 AND DUP2 MSTORE PUSH1 0x20 ADD JUMPDEST PUSH1 0x40 MLOAD DUP1 SWAP2 SUB SWAP1 RETURN JUMPDEST PUSH1 0x1 SLOAD PUSH2 0x145 SWAP1 PUSH1 0xFF AND DUP2 JUMP JUMPDEST PUSH1 0x40 MLOAD SWAP1 ISZERO ISZERO DUP2 MSTORE PUSH1 0x20 ADD PUSH2 0x12F JUMP JUMPDEST PUSH2 0x11B PUSH32 0x0 DUP2 JUMP JUMPDEST PUSH2 0x1A3 PUSH32 0x0 DUP2 JUMP JUMPDEST PUSH1 0x40 MLOAD SWAP1 DUP2 MSTORE PUSH1 0x20 ADD PUSH2 0x12F JUMP JUMPDEST PUSH2 0x1C4 PUSH2 0x1BF CALLDATASIZE PUSH1 0x4 PUSH2 0xE70 JUMP JUMPDEST PUSH2 0x2E9 JUMP JUMPDEST STOP JUMPDEST PUSH2 0x1D9 PUSH2 0x1D4 CALLDATASIZE PUSH1 0x4 PUSH2 0xE70 JUMP JUMPDEST PUSH2 0x38E JUMP JUMPDEST PUSH1 0x40 MLOAD PUSH2 0x12F SWAP3 SWAP2 SWAP1 PUSH2 0xEF2 JUMP JUMPDEST PUSH2 0x145 PUSH2 0x1F5 CALLDATASIZE PUSH1 0x4 PUSH2 0xF2F JUMP JUMPDEST PUSH1 0x2 PUSH1 0x20 MSTORE PUSH0 SWAP1 DUP2 MSTORE PUSH1 0x40 SWAP1 KECCAK256 SLOAD PUSH1 0xFF AND DUP2 JUMP JUMPDEST PUSH2 0x11B PUSH32 0x0 DUP2 JUMP JUMPDEST PUSH2 0x1C4 PUSH2 0x414 JUMP JUMPDEST PUSH2 0x25F PUSH32 0x0 DUP2 JUMP JUMPDEST PUSH1 0x40 MLOAD PUSH8 0xFFFFFFFFFFFFFFFF SWAP1 SWAP2 AND DUP2 MSTORE PUSH1 0x20 ADD PUSH2 0x12F JUMP JUMPDEST PUSH2 0x1A3 PUSH0 SLOAD DUP2 JUMP JUMPDEST PUSH2 0x1C4 PUSH2 0x28E CALLDATASIZE PUSH1 0x4 PUSH2 0xF4F JUMP JUMPDEST PUSH2 0x4BB JUMP JUMPDEST PUSH2 0x1A3 PUSH32 0x0 DUP2 JUMP JUMPDEST PUSH2 0x1C4 PUSH2 0x970 JUMP JUMPDEST PUSH2 0x11B PUSH32 0x0 DUP2 JUMP JUMPDEST PUSH1 0x1 SLOAD PUSH1 0xFF AND DUP1 ISZERO PUSH2 0x350 JUMPI POP PUSH32 0x0 PUSH8 0xFFFFFFFFFFFFFFFF AND TIMESTAMP LT ISZERO DUP1 PUSH2 0x350 JUMPI POP PUSH32 0x0 PUSH0 SLOAD LT ISZERO JUMPDEST ISZERO PUSH2 0x38A JUMPI PUSH2 0x38A PUSH1 0x40 MLOAD DUP1 PUSH1 0x40 ADD PUSH1 0x40 MSTORE DUP1 PUSH1 0x14 DUP2 MSTORE PUSH1 0x20 ADD PUSH20 0x21B430B4B73634B7359020BABA37B6B0BA34B7B7 PUSH1 0x61 SHL DUP2 MSTORE POP PUSH2 0xB1D JUMP JUMPDEST POP POP JUMP JUMPDEST PUSH1 0x1 SLOAD PUSH0 SWAP1 PUSH1 0x60 SWAP1 PUSH1 0xFF AND DUP1 ISZERO PUSH2 0x3FA JUMPI POP PUSH32 0x0 PUSH8 0xFFFFFFFFFFFFFFFF AND TIMESTAMP LT ISZERO DUP1 PUSH2 0x3FA JUMPI POP PUSH32 0x0 PUSH0 SLOAD LT ISZERO JUMPDEST SWAP2 POP PUSH1 0x40 MLOAD DUP1 PUSH1 0x20 ADD PUSH1 0x40 MSTORE DUP1 PUSH0 DUP2 MSTORE POP SWAP1 POP SWAP3 POP SWAP3 SWAP1 POP JUMP JUMPDEST CALLER PUSH1 0x1 PUSH1 0x1 PUSH1 0xA0 SHL SUB PUSH32 0x0 AND EQ PUSH2 0x48C JUMPI PUSH1 0x40 MLOAD PUSH3 0x461BCD PUSH1 0xE5 SHL DUP2 MSTORE PUSH1 0x20 PUSH1 0x4 DUP3 ADD MSTORE PUSH1 0x18 PUSH1 0x24 DUP3 ADD MSTORE PUSH24 0x28BAB2B9BA2B30BAB63A1D1027B7363C9031B932B0BA37B9 PUSH1 0x41 SHL PUSH1 0x44 DUP3 ADD MSTORE PUSH1 0x64 ADD JUMPDEST PUSH1 0x40 MLOAD DUP1 SWAP2 SUB SWAP1 REVERT JUMPDEST PUSH2 0x4B9 PUSH1 0x40 MLOAD DUP1 PUSH1 0x40 ADD PUSH1 0x40 MSTORE DUP1 PUSH1 0xC DUP2 MSTORE PUSH1 0x20 ADD PUSH12 0x4D616E75616C20636C6F7365 PUSH1 0xA0 SHL DUP2 MSTORE POP PUSH2 0xB1D JUMP JUMPDEST JUMP JUMPDEST PUSH1 0x1 SLOAD PUSH1 0xFF AND PUSH2 0x50D JUMPI PUSH1 0x40 MLOAD PUSH3 0x461BCD PUSH1 0xE5 SHL DUP2 MSTORE PUSH1 0x20 PUSH1 0x4 DUP3 ADD MSTORE PUSH1 0x1C PUSH1 0x24 DUP3 ADD MSTORE PUSH32 0x51756573745661756C743A205175657374206E6F742061637469766500000000 PUSH1 0x44 DUP3 ADD MSTORE PUSH1 0x64 ADD PUSH2 0x483 JUMP JUMPDEST PUSH32 0x0 PUSH8 0xFFFFFFFFFFFFFFFF AND TIMESTAMP LT PUSH2 0x586 JUMPI PUSH1 0x40 MLOAD PUSH3 0x461BCD PUSH1 0xE5 SHL DUP2 MSTORE PUSH1 0x20 PUSH1 0x4 DUP3 ADD MSTORE PUSH1 0x19 PUSH1 0x24 DUP3 ADD MSTORE PUSH32 0x51756573745661756C743A205175657374206578706972656400000000000000 PUSH1 0x44 DUP3 ADD MSTORE PUSH1 0x64 ADD PUSH2 0x483 JUMP JUMPDEST PUSH32 0x0 PUSH0 SLOAD LT PUSH2 0x5F6 JUMPI PUSH1 0x40 MLOAD PUSH3 0x461BCD PUSH1 0xE5 SHL DUP2 MSTORE PUSH1 0x20 PUSH1 0x4 DUP3 ADD MSTORE PUSH1 0x1E PUSH1 0x24 DUP3 ADD MSTORE PUSH32 0x51756573745661756C743A204D617820636C61696D7320726561636865640000 PUSH1 0x44 DUP3 ADD MSTORE PUSH1 0x64 ADD PUSH2 0x483 JUMP JUMPDEST PUSH1 0x1 PUSH1 0x1 PUSH1 0xA0 SHL SUB DUP4 AND PUSH0 SWAP1 DUP2 MSTORE PUSH1 0x2 PUSH1 0x20 MSTORE PUSH1 0x40 SWAP1 KECCAK256 SLOAD PUSH1 0xFF AND ISZERO PUSH2 0x65E JUMPI PUSH1 0x40 MLOAD PUSH3 0x461BCD PUSH1 0xE5 SHL DUP2 MSTORE PUSH1 0x20 PUSH1 0x4 DUP3 ADD MSTORE PUSH1 0x1B PUSH1 0x24 DUP3 ADD MSTORE PUSH32 0x51756573745661756C743A20416C726561647920636C61696D65640000000000 PUSH1 0x44 DUP3 ADD MSTORE PUSH1 0x64 ADD PUSH2 0x483 JUMP JUMPDEST PUSH1 0x40 MLOAD PUSH12 0xFFFFFFFFFFFFFFFFFFFFFFFF NOT ADDRESS PUSH1 0x60 SWAP1 DUP2 SHL DUP3 AND PUSH1 0x20 DUP5 ADD MSTORE DUP6 SWAP1 SHL AND PUSH1 0x34 DUP3 ADD MSTORE PUSH0 SWAP1 PUSH1 0x48 ADD PUSH1 0x40 MLOAD PUSH1 0x20 DUP2 DUP4 SUB SUB DUP2 MSTORE SWAP1 PUSH1 0x40 MSTORE DUP1 MLOAD SWAP1 PUSH1 0x20 ADD KECCAK256 SWAP1 POP PUSH0 PUSH2 0x6D9 DUP3 PUSH32 0x19457468657265756D205369676E6564204D6573736167653A0A333200000000 PUSH0 SWAP1 DUP2 MSTORE PUSH1 0x1C SWAP2 SWAP1 SWAP2 MSTORE PUSH1 0x3C SWAP1 KECCAK256 SWAP1 JUMP JUMPDEST SWAP1 POP PUSH32 0x0 PUSH1 0x1 PUSH1 0x1 PUSH1 0xA0 SHL SUB AND PUSH2 0x746 DUP6 DUP6 DUP1 DUP1 PUSH1 0x1F ADD PUSH1 0x20 DUP1 SWAP2 DIV MUL PUSH1 0x20 ADD PUSH1 0x40 MLOAD SWAP1 DUP2 ADD PUSH1 0x40 MSTORE DUP1 SWAP4 SWAP3 SWAP2 SWAP1 DUP2 DUP2 MSTORE PUSH1 0x20 ADD DUP4 DUP4 DUP1 DUP3 DUP5 CALLDATACOPY PUSH0 SWAP3 ADD SWAP2 SWAP1 SWAP2 MSTORE POP DUP7 SWAP4 SWAP3 POP POP PUSH2 0xB6F SWAP1 POP JUMP JUMPDEST PUSH1 0x1 PUSH1 0x1 PUSH1 0xA0 SHL SUB AND EQ PUSH2 0x79C JUMPI PUSH1 0x40 MLOAD PUSH3 0x461BCD PUSH1 0xE5 SHL DUP2 MSTORE PUSH1 0x20 PUSH1 0x4 DUP3 ADD MSTORE PUSH1 0x1D PUSH1 0x24 DUP3 ADD MSTORE PUSH32 0x51756573745661756C743A20496E76616C6964207369676E6174757265000000 PUSH1 0x44 DUP3 ADD MSTORE PUSH1 0x64 ADD PUSH2 0x483 JUMP JUMPDEST PUSH1 0x1 PUSH1 0x1 PUSH1 0xA0 SHL SUB DUP6 AND PUSH0 SWAP1 DUP2 MSTORE PUSH1 0x2 PUSH1 0x20 MSTORE PUSH1 0x40 DUP2 KECCAK256 DUP1 SLOAD PUSH1 0xFF NOT AND PUSH1 0x1 SWAP1 DUP2 OR SWAP1 SWAP2 SSTORE DUP2 SLOAD SWAP1 SWAP2 SWAP1 DUP2 SWAP1 PUSH2 0x7D3 SWAP1 DUP5 SWAP1 PUSH2 0xF9E JUMP JUMPDEST SWAP1 SWAP2 SSTORE POP POP PUSH1 0x40 MLOAD PUSH4 0x93CB9AEB PUSH1 0xE0 SHL DUP2 MSTORE PUSH1 0x1 PUSH1 0x1 PUSH1 0xA0 SHL SUB DUP7 DUP2 AND PUSH1 0x4 DUP4 ADD MSTORE PUSH1 0x64 PUSH1 0x24 DUP4 ADD MSTORE PUSH32 0x0 AND SWAP1 PUSH4 0x93CB9AEB SWAP1 PUSH1 0x44 ADD PUSH0 PUSH1 0x40 MLOAD DUP1 DUP4 SUB DUP2 PUSH0 DUP8 DUP1 EXTCODESIZE ISZERO DUP1 ISZERO PUSH2 0x83F JUMPI PUSH0 DUP1 REVERT JUMPDEST POP GAS CALL ISZERO DUP1 ISZERO PUSH2 0x851 JUMPI RETURNDATASIZE PUSH0 DUP1 RETURNDATACOPY RETURNDATASIZE PUSH0 REVERT JUMPDEST POP PUSH2 0x8AB SWAP3 POP POP PUSH1 0x1 PUSH1 0x1 PUSH1 0xA0 SHL SUB PUSH32 0x0 AND SWAP1 POP DUP7 PUSH32 0x0 PUSH2 0xB99 JUMP JUMPDEST DUP5 PUSH1 0x1 PUSH1 0x1 PUSH1 0xA0 SHL SUB AND PUSH32 0xD4C9D8ECC8BF1BE6DC655169B10DBE7D7F935D65175441B40C60E52E529818F3 PUSH32 0x0 PUSH1 0x40 MLOAD PUSH2 0x906 SWAP2 DUP2 MSTORE PUSH1 0x20 ADD SWAP1 JUMP JUMPDEST PUSH1 0x40 MLOAD DUP1 SWAP2 SUB SWAP1 LOG2 PUSH32 0x0 PUSH0 SLOAD LT PUSH2 0x969 JUMPI PUSH2 0x969 PUSH1 0x40 MLOAD DUP1 PUSH1 0x40 ADD PUSH1 0x40 MSTORE DUP1 PUSH1 0x12 DUP2 MSTORE PUSH1 0x20 ADD PUSH18 0x13585E0818DB185A5B5CC81C995858DA1959 PUSH1 0x72 SHL DUP2 MSTORE POP PUSH2 0xB1D JUMP JUMPDEST POP POP POP POP POP JUMP JUMPDEST CALLER PUSH1 0x1 PUSH1 0x1 PUSH1 0xA0 SHL SUB PUSH32 0x0 AND EQ PUSH2 0x9E3 JUMPI PUSH1 0x40 MLOAD PUSH3 0x461BCD PUSH1 0xE5 SHL DUP2 MSTORE PUSH1 0x20 PUSH1 0x4 DUP3 ADD MSTORE PUSH1 0x18 PUSH1 0x24 DUP3 ADD MSTORE PUSH24 0x28BAB2B9BA2B30BAB63A1D1027B7363C9031B932B0BA37B9 PUSH1 0x41 SHL PUSH1 0x44 DUP3 ADD MSTORE PUSH1 0x64 ADD PUSH2 0x483 JUMP JUMPDEST PUSH1 0x1 SLOAD PUSH1 0xFF AND ISZERO PUSH2 0xA36 JUMPI PUSH1 0x40 MLOAD PUSH3 0x461BCD PUSH1 0xE5 SHL DUP2 MSTORE PUSH1 0x20 PUSH1 0x4 DUP3 ADD MSTORE PUSH1 0x1E PUSH1 0x24 DUP3 ADD MSTORE PUSH32 0x51756573745661756C743A205175657374207374696C6C206163746976650000 PUSH1 0x44 DUP3 ADD MSTORE PUSH1 0x64 ADD PUSH2 0x483 JUMP JUMPDEST PUSH1 0x40 MLOAD PUSH4 0x70A08231 PUSH1 0xE0 SHL DUP2 MSTORE ADDRESS PUSH1 0x4 DUP3 ADD MSTORE PUSH0 SWAP1 PUSH32 0x0 PUSH1 0x1 PUSH1 0x1 PUSH1 0xA0 SHL SUB AND SWAP1 PUSH4 0x70A08231 SWAP1 PUSH1 0x24 ADD PUSH1 0x20 PUSH1 0x40 MLOAD DUP1 DUP4 SUB DUP2 DUP7 GAS STATICCALL ISZERO DUP1 ISZERO PUSH2 0xA9A JUMPI RETURNDATASIZE PUSH0 DUP1 RETURNDATACOPY RETURNDATASIZE PUSH0 REVERT JUMPDEST POP POP POP POP PUSH1 0x40 MLOAD RETURNDATASIZE PUSH1 0x1F NOT PUSH1 0x1F DUP3 ADD AND DUP3 ADD DUP1 PUSH1 0x40 MSTORE POP DUP2 ADD SWAP1 PUSH2 0xABE SWAP2 SWAP1 PUSH2 0xFBD JUMP JUMPDEST SWAP1 POP DUP1 ISZERO PUSH2 0xB1A JUMPI PUSH2 0xB1A PUSH1 0x1 PUSH1 0x1 PUSH1 0xA0 SHL SUB PUSH32 0x0 AND PUSH32 0x0 DUP4 PUSH2 0xB99 JUMP JUMPDEST POP JUMP JUMPDEST PUSH1 0x1 SLOAD PUSH1 0xFF AND PUSH2 0xB2A JUMPI POP JUMP JUMPDEST PUSH1 0x1 DUP1 SLOAD PUSH1 0xFF NOT AND SWAP1 SSTORE PUSH1 0x40 MLOAD PUSH32 0x33E2B1E7F7E38F35A4A2C028AFD807AA5148E92AF5748F8052CAE2FCE3004A4D SWAP1 PUSH2 0xB64 SWAP1 DUP4 SWAP1 PUSH2 0xFD4 JUMP JUMPDEST PUSH1 0x40 MLOAD DUP1 SWAP2 SUB SWAP1 LOG1 POP JUMP JUMPDEST PUSH0 DUP1 PUSH0 DUP1 PUSH2 0xB7D DUP7 DUP7 PUSH2 0xBF0 JUMP JUMPDEST SWAP3 POP SWAP3 POP SWAP3 POP PUSH2 0xB8D DUP3 DUP3 PUSH2 0xC39 JUMP JUMPDEST POP SWAP1 SWAP2 POP POP JUMPDEST SWAP3 SWAP2 POP POP JUMP JUMPDEST PUSH1 0x40 DUP1 MLOAD PUSH1 0x1 PUSH1 0x1 PUSH1 0xA0 SHL SUB DUP5 AND PUSH1 0x24 DUP3 ADD MSTORE PUSH1 0x44 DUP1 DUP3 ADD DUP5 SWAP1 MSTORE DUP3 MLOAD DUP1 DUP4 SUB SWAP1 SWAP2 ADD DUP2 MSTORE PUSH1 0x64 SWAP1 SWAP2 ADD SWAP1 SWAP2 MSTORE PUSH1 0x20 DUP2 ADD DUP1 MLOAD PUSH1 0x1 PUSH1 0x1 PUSH1 0xE0 SHL SUB AND PUSH4 0xA9059CBB PUSH1 0xE0 SHL OR SWAP1 MSTORE PUSH2 0xBEB SWAP1 DUP5 SWAP1 PUSH2 0xCF1 JUMP JUMPDEST POP POP POP JUMP JUMPDEST PUSH0 DUP1 PUSH0 DUP4 MLOAD PUSH1 0x41 SUB PUSH2 0xC27 JUMPI PUSH1 0x20 DUP5 ADD MLOAD PUSH1 0x40 DUP6 ADD MLOAD PUSH1 0x60 DUP7 ADD MLOAD PUSH0 BYTE PUSH2 0xC19 DUP9 DUP3 DUP6 DUP6 PUSH2 0xD63 JUMP JUMPDEST SWAP6 POP SWAP6 POP SWAP6 POP POP POP POP PUSH2 0xC32 JUMP JUMPDEST POP POP DUP2 MLOAD PUSH0 SWAP2 POP PUSH1 0x2 SWAP1 JUMPDEST SWAP3 POP SWAP3 POP SWAP3 JUMP JUMPDEST PUSH0 DUP3 PUSH1 0x3 DUP2 GT ISZERO PUSH2 0xC4C JUMPI PUSH2 0xC4C PUSH2 0xFE6 JUMP JUMPDEST SUB PUSH2 0xC55 JUMPI POP POP JUMP JUMPDEST PUSH1 0x1 DUP3 PUSH1 0x3 DUP2 GT ISZERO PUSH2 0xC69 JUMPI PUSH2 0xC69 PUSH2 0xFE6 JUMP JUMPDEST SUB PUSH2 0xC87 JUMPI PUSH1 0x40 MLOAD PUSH4 0xF645EEDF PUSH1 0xE0 SHL DUP2 MSTORE PUSH1 0x4 ADD PUSH1 0x40 MLOAD DUP1 SWAP2 SUB SWAP1 REVERT JUMPDEST PUSH1 0x2 DUP3 PUSH1 0x3 DUP2 GT ISZERO PUSH2 0xC9B JUMPI PUSH2 0xC9B PUSH2 0xFE6 JUMP JUMPDEST SUB PUSH2 0xCBC JUMPI PUSH1 0x40 MLOAD PUSH4 0xFCE698F7 PUSH1 0xE0 SHL DUP2 MSTORE PUSH1 0x4 DUP2 ADD DUP3 SWAP1 MSTORE PUSH1 0x24 ADD PUSH2 0x483 JUMP JUMPDEST PUSH1 0x3 DUP3 PUSH1 0x3 DUP2 GT ISZERO PUSH2 0xCD0 JUMPI PUSH2 0xCD0 PUSH2 0xFE6 JUMP JUMPDEST SUB PUSH2 0x38A JUMPI PUSH1 0x40 MLOAD PUSH4 0x35E2F383 PUSH1 0xE2 SHL DUP2 MSTORE PUSH1 0x4 DUP2 ADD DUP3 SWAP1 MSTORE PUSH1 0x24 ADD PUSH2 0x483 JUMP JUMPDEST PUSH0 DUP1 PUSH1 0x20 PUSH0 DUP5 MLOAD PUSH1 0x20 DUP7 ADD PUSH0 DUP9 GAS CALL DUP1 PUSH2 0xD10 JUMPI PUSH1 0x40 MLOAD RETURNDATASIZE PUSH0 DUP3 RETURNDATACOPY RETURNDATASIZE DUP2 REVERT JUMPDEST POP POP PUSH0 MLOAD RETURNDATASIZE SWAP2 POP DUP2 ISZERO PUSH2 0xD27 JUMPI DUP1 PUSH1 0x1 EQ ISZERO PUSH2 0xD34 JUMP JUMPDEST PUSH1 0x1 PUSH1 0x1 PUSH1 0xA0 SHL SUB DUP5 AND EXTCODESIZE ISZERO JUMPDEST ISZERO PUSH2 0xD5D JUMPI PUSH1 0x40 MLOAD PUSH4 0x5274AFE7 PUSH1 0xE0 SHL DUP2 MSTORE PUSH1 0x1 PUSH1 0x1 PUSH1 0xA0 SHL SUB DUP6 AND PUSH1 0x4 DUP3 ADD MSTORE PUSH1 0x24 ADD PUSH2 0x483 JUMP JUMPDEST POP POP POP POP JUMP JUMPDEST PUSH0 DUP1 DUP1 PUSH32 0x7FFFFFFFFFFFFFFFFFFFFFFFFFFFFFFF5D576E7357A4501DDFE92F46681B20A0 DUP5 GT ISZERO PUSH2 0xD9C JUMPI POP PUSH0 SWAP2 POP PUSH1 0x3 SWAP1 POP DUP3 PUSH2 0xE21 JUMP JUMPDEST PUSH1 0x40 DUP1 MLOAD PUSH0 DUP1 DUP3 MSTORE PUSH1 0x20 DUP3 ADD DUP1 DUP5 MSTORE DUP11 SWAP1 MSTORE PUSH1 0xFF DUP10 AND SWAP3 DUP3 ADD SWAP3 SWAP1 SWAP3 MSTORE PUSH1 0x60 DUP2 ADD DUP8 SWAP1 MSTORE PUSH1 0x80 DUP2 ADD DUP7 SWAP1 MSTORE PUSH1 0x1 SWAP1 PUSH1 0xA0 ADD PUSH1 0x20 PUSH1 0x40 MLOAD PUSH1 0x20 DUP2 SUB SWAP1 DUP1 DUP5 SUB SWAP1 DUP6 GAS STATICCALL ISZERO DUP1 ISZERO PUSH2 0xDED JUMPI RETURNDATASIZE PUSH0 DUP1 RETURNDATACOPY RETURNDATASIZE PUSH0 REVERT JUMPDEST POP POP PUSH1 0x40 MLOAD PUSH1 0x1F NOT ADD MLOAD SWAP2 POP POP PUSH1 0x1 PUSH1 0x1 PUSH1 0xA0 SHL SUB DUP2 AND PUSH2 0xE18 JUMPI POP PUSH0 SWAP3 POP PUSH1 0x1 SWAP2 POP DUP3 SWAP1 POP PUSH2 0xE21 JUMP JUMPDEST SWAP3 POP PUSH0 SWAP2 POP DUP2 SWAP1 POP JUMPDEST SWAP5 POP SWAP5 POP SWAP5 SWAP2 POP POP JUMP JUMPDEST PUSH0 DUP1 DUP4 PUSH1 0x1F DUP5 ADD SLT PUSH2 0xE3B JUMPI PUSH0 DUP1 REVERT JUMPDEST POP DUP2 CALLDATALOAD PUSH8 0xFFFFFFFFFFFFFFFF DUP2 GT ISZERO PUSH2 0xE52 JUMPI PUSH0 DUP1 REVERT JUMPDEST PUSH1 0x20 DUP4 ADD SWAP2 POP DUP4 PUSH1 0x20 DUP3 DUP6 ADD ADD GT ISZERO PUSH2 0xE69 JUMPI PUSH0 DUP1 REVERT JUMPDEST SWAP3 POP SWAP3 SWAP1 POP JUMP JUMPDEST PUSH0 DUP1 PUSH1 0x20 DUP4 DUP6 SUB SLT ISZERO PUSH2 0xE81 JUMPI PUSH0 DUP1 REVERT JUMPDEST DUP3 CALLDATALOAD PUSH8 0xFFFFFFFFFFFFFFFF DUP2 GT ISZERO PUSH2 0xE97 JUMPI PUSH0 DUP1 REVERT JUMPDEST PUSH2 0xEA3 DUP6 DUP3 DUP7 ADD PUSH2 0xE2B JUMP JUMPDEST SWAP1 SWAP7 SWAP1 SWAP6 POP SWAP4 POP POP POP POP JUMP JUMPDEST PUSH0 DUP2 MLOAD DUP1 DUP5 MSTORE PUSH0 JUMPDEST DUP2 DUP2 LT ISZERO PUSH2 0xED3 JUMPI PUSH1 0x20 DUP2 DUP6 ADD DUP2 ADD MLOAD DUP7 DUP4 ADD DUP3 ADD MSTORE ADD PUSH2 0xEB7 JUMP JUMPDEST POP PUSH0 PUSH1 0x20 DUP3 DUP7 ADD ADD MSTORE PUSH1 0x20 PUSH1 0x1F NOT PUSH1 0x1F DUP4 ADD AND DUP6 ADD ADD SWAP2 POP POP SWAP3 SWAP2 POP POP JUMP JUMPDEST DUP3 ISZERO ISZERO DUP2 MSTORE PUSH1 0x40 PUSH1 0x20 DUP3 ADD MSTORE PUSH0 PUSH2 0xF0C PUSH1 0x40 DUP4 ADD DUP5 PUSH2 0xEAF JUMP JUMPDEST SWAP5 SWAP4 POP POP POP POP JUMP JUMPDEST DUP1 CALLDATALOAD PUSH1 0x1 PUSH1 0x1 PUSH1 0xA0 SHL SUB DUP2 AND DUP2 EQ PUSH2 0xF2A JUMPI PUSH0 DUP1 REVERT JUMPDEST SWAP2 SWAP1 POP JUMP JUMPDEST PUSH0 PUSH1 0x20 DUP3 DUP5 SUB SLT ISZERO PUSH2 0xF3F JUMPI PUSH0 DUP1 REVERT JUMPDEST PUSH2 0xF48 DUP3 PUSH2 0xF14 JUMP JUMPDEST SWAP4 SWAP3 POP POP POP JUMP JUMPDEST PUSH0 DUP1 PUSH0 PUSH1 0x40 DUP5 DUP7 SUB SLT ISZERO PUSH2 0xF61 JUMPI PUSH0 DUP1 REVERT JUMPDEST PUSH2 0xF6A DUP5 PUSH2 0xF14 JUMP JUMPDEST SWAP3 POP PUSH1 0x20 DUP5 ADD CALLDATALOAD PUSH8 0xFFFFFFFFFFFFFFFF DUP2 GT ISZERO PUSH2 0xF85 JUMPI PUSH0 DUP1 REVERT JUMPDEST PUSH2 0xF91 DUP7 DUP3 DUP8 ADD PUSH2 0xE2B JUMP JUMPDEST SWAP5 SWAP8 SWAP1 SWAP7 POP SWAP4 SWAP5 POP POP POP POP JUMP JUMPDEST DUP1 DUP3 ADD DUP1 DUP3 GT ISZERO PUSH2 0xB93 JUMPI PUSH4 0x4E487B71 PUSH1 0xE0 SHL PUSH0 MSTORE PUSH1 0x11 PUSH1 0x4 MSTORE PUSH1 0x24 PUSH0 REVERT JUMPDEST PUSH0 PUSH1 0x20 DUP3 DUP5 SUB SLT ISZERO PUSH2 0xFCD JUMPI PUSH0 DUP1 REVERT JUMPDEST POP MLOAD SWAP2 SWAP1 POP JUMP JUMPDEST PUSH1 0x20 DUP2 MSTORE PUSH0 PUSH2 0xF48 PUSH1 0x20 DUP4 ADD DUP5 PUSH2 0xEAF JUMP JUMPDEST PUSH4 0x4E487B71 PUSH1 0xE0 SHL PUSH0 MSTORE PUSH1 0x21 PUSH1 0x4 MSTORE PUSH1 0x24 PUSH0 REVERT INVALID LOG2 PUSH5 0x6970667358 0x22 SLT KECCAK256 LOG3 0x2E 0xD 0xC8 NUMBER 0xB0 CALLDATACOPY PUSH23 0x6CA9F5C1C1EC3DF637223AD93B92F7C0EB624BCF739E3E 0xBA PUSH5 0x736F6C6343 STOP ADDMOD EQ STOP CALLER "},"methodIdentifiers":{"active()":"02fb0c5e","checkUpkeep(bytes)":"6e04ff0d","claim(address,bytes)":"bb1757cf","claimsMade()":"b13b62e7","creator()":"02d05d3f","expiryTimestamp()":"ade6e2aa","hasClaimed(address)":"73b2e80e","manualClose()":"a0b09414","maxClaims()":"cf5380b4","performUpkeep(bytes)":"4585e33b","registry()":"7b103999","rewardPerClaim()":"3b62395e","rewardToken()":"f7c618c1","signer()":"238ac933","withdrawRemaining()":"ee38db95"}}}}}