{
  "_format": "hh3-artifact-1",
  "contractName": "KYRAToken",
  "sourceName": "contracts/KYRAToken.sol",
  "abi": [
    {
      "inputs": [],
      "stateMutability": "nonpayable",
      "type": "constructor"
    },
    {
      "inputs": [
        {
          "internalType": "address",
          "name": "spender",
          "type": "address"
        },
        {
          "internalType": "uint256",
          "name": "allowance",
          "type": "uint256"
        },
        {
          "internalType": "uint256",
          "name": "needed",
          "type": "uint256"
        }
      ],
      "name": "ERC20InsufficientAllowance",
      "type": "error"
    },
    {
      "inputs": [
        {
          "internalType": "address",
          "name": "sender",
          "type": "address"
        },
        {
          "internalType": "uint256",
          "name": "balance",
          "type": "uint256"
        },
        {
          "internalType": "uint256",
          "name": "needed",
          "type": "uint256"
        }
      ],
      "name": "ERC20InsufficientBalance",
      "type": "error"
    },
    {
      "inputs": [
        {
          "internalType": "address",
          "name": "approver",
          "type": "address"
        }
      ],
      "name": "ERC20InvalidApprover",
      "type": "error"
    },
    {
      "inputs": [
        {
          "internalType": "address",
          "name": "receiver",
          "type": "address"
        }
      ],
      "name": "ERC20InvalidReceiver",
      "type": "error"
    },
    {
      "inputs": [
        {
          "internalType": "address",
          "name": "sender",
          "type": "address"
        }
      ],
      "name": "ERC20InvalidSender",
      "type": "error"
    },
    {
      "inputs": [
        {
          "internalType": "address",
          "name": "spender",
          "type": "address"
        }
      ],
      "name": "ERC20InvalidSpender",
      "type": "error"
    },
    {
      "inputs": [
        {
          "internalType": "address",
          "name": "owner",
          "type": "address"
        }
      ],
      "name": "OwnableInvalidOwner",
      "type": "error"
    },
    {
      "inputs": [
        {
          "internalType": "address",
          "name": "account",
          "type": "address"
        }
      ],
      "name": "OwnableUnauthorizedAccount",
      "type": "error"
    },
    {
      "anonymous": false,
      "inputs": [
        {
          "indexed": true,
          "internalType": "address",
          "name": "owner",
          "type": "address"
        },
        {
          "indexed": true,
          "internalType": "address",
          "name": "spender",
          "type": "address"
        },
        {
          "indexed": false,
          "internalType": "uint256",
          "name": "value",
          "type": "uint256"
        }
      ],
      "name": "Approval",
      "type": "event"
    },
    {
      "anonymous": false,
      "inputs": [
        {
          "indexed": true,
          "internalType": "address",
          "name": "previousOwner",
          "type": "address"
        },
        {
          "indexed": true,
          "internalType": "address",
          "name": "newOwner",
          "type": "address"
        }
      ],
      "name": "OwnershipTransferred",
      "type": "event"
    },
    {
      "anonymous": false,
      "inputs": [
        {
          "indexed": true,
          "internalType": "address",
          "name": "from",
          "type": "address"
        },
        {
          "indexed": true,
          "internalType": "address",
          "name": "to",
          "type": "address"
        },
        {
          "indexed": false,
          "internalType": "uint256",
          "name": "value",
          "type": "uint256"
        }
      ],
      "name": "Transfer",
      "type": "event"
    },
    {
      "inputs": [],
      "name": "MAX_SUPPLY",
      "outputs": [
        {
          "internalType": "uint256",
          "name": "",
          "type": "uint256"
        }
      ],
      "stateMutability": "view",
      "type": "function"
    },
    {
      "inputs": [
        {
          "internalType": "address",
          "name": "owner",
          "type": "address"
        },
        {
          "internalType": "address",
          "name": "spender",
          "type": "address"
        }
      ],
      "name": "allowance",
      "outputs": [
        {
          "internalType": "uint256",
          "name": "",
          "type": "uint256"
        }
      ],
      "stateMutability": "view",
      "type": "function"
    },
    {
      "inputs": [
        {
          "internalType": "address",
          "name": "spender",
          "type": "address"
        },
        {
          "internalType": "uint256",
          "name": "value",
          "type": "uint256"
        }
      ],
      "name": "approve",
      "outputs": [
        {
          "internalType": "bool",
          "name": "",
          "type": "bool"
        }
      ],
      "stateMutability": "nonpayable",
      "type": "function"
    },
    {
      "inputs": [
        {
          "internalType": "address",
          "name": "account",
          "type": "address"
        }
      ],
      "name": "balanceOf",
      "outputs": [
        {
          "internalType": "uint256",
          "name": "",
          "type": "uint256"
        }
      ],
      "stateMutability": "view",
      "type": "function"
    },
    {
      "inputs": [
        {
          "internalType": "uint256",
          "name": "value",
          "type": "uint256"
        }
      ],
      "name": "burn",
      "outputs": [],
      "stateMutability": "nonpayable",
      "type": "function"
    },
    {
      "inputs": [
        {
          "internalType": "address",
          "name": "account",
          "type": "address"
        },
        {
          "internalType": "uint256",
          "name": "value",
          "type": "uint256"
        }
      ],
      "name": "burnFrom",
      "outputs": [],
      "stateMutability": "nonpayable",
      "type": "function"
    },
    {
      "inputs": [],
      "name": "decimals",
      "outputs": [
        {
          "internalType": "uint8",
          "name": "",
          "type": "uint8"
        }
      ],
      "stateMutability": "view",
      "type": "function"
    },
    {
      "inputs": [
        {
          "internalType": "uint256",
          "name": "amount",
          "type": "uint256"
        }
      ],
      "name": "faucet",
      "outputs": [],
      "stateMutability": "nonpayable",
      "type": "function"
    },
    {
      "inputs": [
        {
          "internalType": "address",
          "name": "to",
          "type": "address"
        },
        {
          "internalType": "uint256",
          "name": "amount",
          "type": "uint256"
        }
      ],
      "name": "mint",
      "outputs": [],
      "stateMutability": "nonpayable",
      "type": "function"
    },
    {
      "inputs": [],
      "name": "name",
      "outputs": [
        {
          "internalType": "string",
          "name": "",
          "type": "string"
        }
      ],
      "stateMutability": "view",
      "type": "function"
    },
    {
      "inputs": [],
      "name": "owner",
      "outputs": [
        {
          "internalType": "address",
          "name": "",
          "type": "address"
        }
      ],
      "stateMutability": "view",
      "type": "function"
    },
    {
      "inputs": [],
      "name": "renounceOwnership",
      "outputs": [],
      "stateMutability": "nonpayable",
      "type": "function"
    },
    {
      "inputs": [],
      "name": "symbol",
      "outputs": [
        {
          "internalType": "string",
          "name": "",
          "type": "string"
        }
      ],
      "stateMutability": "view",
      "type": "function"
    },
    {
      "inputs": [],
      "name": "totalSupply",
      "outputs": [
        {
          "internalType": "uint256",
          "name": "",
          "type": "uint256"
        }
      ],
      "stateMutability": "view",
      "type": "function"
    },
    {
      "inputs": [
        {
          "internalType": "address",
          "name": "to",
          "type": "address"
        },
        {
          "internalType": "uint256",
          "name": "value",
          "type": "uint256"
        }
      ],
      "name": "transfer",
      "outputs": [
        {
          "internalType": "bool",
          "name": "",
          "type": "bool"
        }
      ],
      "stateMutability": "nonpayable",
      "type": "function"
    },
    {
      "inputs": [
        {
          "internalType": "address",
          "name": "from",
          "type": "address"
        },
        {
          "internalType": "address",
          "name": "to",
          "type": "address"
        },
        {
          "internalType": "uint256",
          "name": "value",
          "type": "uint256"
        }
      ],
      "name": "transferFrom",
      "outputs": [
        {
          "internalType": "bool",
          "name": "",
          "type": "bool"
        }
      ],
      "stateMutability": "nonpayable",
      "type": "function"
    },
    {
      "inputs": [
        {
          "internalType": "address",
          "name": "newOwner",
          "type": "address"
        }
      ],
      "name": "transferOwnership",
      "outputs": [],
      "stateMutability": "nonpayable",
      "type": "function"
    }
  ],
  "bytecode": "0x608060405234801562000010575f80fd5b50336040518060400160405280600a81526020017f4b59524120546f6b656e000000000000000000000000000000000000000000008152506040518060400160405280600481526020017f4b5952410000000000000000000000000000000000000000000000000000000081525081600390816200008f919062000721565b508060049081620000a1919062000721565b5050505f73ffffffffffffffffffffffffffffffffffffffff168173ffffffffffffffffffffffffffffffffffffffff160362000117575f6040517f1e4fbdf70000000000000000000000000000000000000000000000000000000081526004016200010e919062000848565b60405180910390fd5b62000128816200014c60201b60201c565b5062000146336a52b7d2dcc80cd2e40000006200020f60201b60201c565b62000931565b5f60055f9054906101000a900473ffffffffffffffffffffffffffffffffffffffff1690508160055f6101000a81548173ffffffffffffffffffffffffffffffffffffffff021916908373ffffffffffffffffffffffffffffffffffffffff1602179055508173ffffffffffffffffffffffffffffffffffffffff168173ffffffffffffffffffffffffffffffffffffffff167f8be0079c531659141344cd1fd0a4f28419497f9722a3daafe3b4186f6b6457e060405160405180910390a35050565b5f73ffffffffffffffffffffffffffffffffffffffff168273ffffffffffffffffffffffffffffffffffffffff160362000282575f6040517fec442f0500000000000000000000000000000000000000000000000000000000815260040162000279919062000848565b60405180910390fd5b620002955f83836200029960201b60201c565b5050565b5f73ffffffffffffffffffffffffffffffffffffffff168373ffffffffffffffffffffffffffffffffffffffff1603620002ed578060025f828254620002e0919062000890565b92505081905550620003be565b5f805f8573ffffffffffffffffffffffffffffffffffffffff1673ffffffffffffffffffffffffffffffffffffffff1681526020019081526020015f205490508181101562000379578381836040517fe450d38c0000000000000000000000000000000000000000000000000000000081526004016200037093929190620008db565b60405180910390fd5b8181035f808673ffffffffffffffffffffffffffffffffffffffff1673ffffffffffffffffffffffffffffffffffffffff1681526020019081526020015f2081905550505b5f73ffffffffffffffffffffffffffffffffffffffff168273ffffffffffffffffffffffffffffffffffffffff160362000407578060025f828254039250508190555062000451565b805f808473ffffffffffffffffffffffffffffffffffffffff1673ffffffffffffffffffffffffffffffffffffffff1681526020019081526020015f205f82825401925050819055505b8173ffffffffffffffffffffffffffffffffffffffff168373ffffffffffffffffffffffffffffffffffffffff167fddf252ad1be2c89b69c2b068fc378daa952ba7f163c4a11628f55a4df523b3ef83604051620004b0919062000916565b60405180910390a3505050565b5f81519050919050565b7f4e487b71000000000000000000000000000000000000000000000000000000005f52604160045260245ffd5b7f4e487b71000000000000000000000000000000000000000000000000000000005f52602260045260245ffd5b5f60028204905060018216806200053957607f821691505b6020821081036200054f576200054e620004f4565b5b50919050565b5f819050815f5260205f209050919050565b5f6020601f8301049050919050565b5f82821b905092915050565b5f60088302620005b37fffffffffffffffffffffffffffffffffffffffffffffffffffffffffffffffff8262000576565b620005bf868362000576565b95508019841693508086168417925050509392505050565b5f819050919050565b5f819050919050565b5f6200060962000603620005fd84620005d7565b620005e0565b620005d7565b9050919050565b5f819050919050565b6200062483620005e9565b6200063c620006338262000610565b84845462000582565b825550505050565b5f90565b6200065262000644565b6200065f81848462000619565b505050565b5b8181101562000686576200067a5f8262000648565b60018101905062000665565b5050565b601f821115620006d5576200069f8162000555565b620006aa8462000567565b81016020851015620006ba578190505b620006d2620006c98562000567565b83018262000664565b50505b505050565b5f82821c905092915050565b5f620006f75f1984600802620006da565b1980831691505092915050565b5f620007118383620006e6565b9150826002028217905092915050565b6200072c82620004bd565b67ffffffffffffffff811115620007485762000747620004c7565b5b62000754825462000521565b620007618282856200068a565b5f60209050601f83116001811462000797575f841562000782578287015190505b6200078e858262000704565b865550620007fd565b601f198416620007a78662000555565b5f5b82811015620007d057848901518255600182019150602085019450602081019050620007a9565b86831015620007f05784890151620007ec601f891682620006e6565b8355505b6001600288020188555050505b505050505050565b5f73ffffffffffffffffffffffffffffffffffffffff82169050919050565b5f620008308262000805565b9050919050565b620008428162000824565b82525050565b5f6020820190506200085d5f83018462000837565b92915050565b7f4e487b71000000000000000000000000000000000000000000000000000000005f52601160045260245ffd5b5f6200089c82620005d7565b9150620008a983620005d7565b9250828201905080821115620008c457620008c362000863565b5b92915050565b620008d581620005d7565b82525050565b5f606082019050620008f05f83018662000837565b620008ff6020830185620008ca565b6200090e6040830184620008ca565b949350505050565b5f6020820190506200092b5f830184620008ca565b92915050565b6114be806200093f5f395ff3fe608060405234801561000f575f80fd5b5060043610610109575f3560e01c806357915897116100a05780638da5cb5b1161006f5780638da5cb5b1461028f57806395d89b41146102ad578063a9059cbb146102cb578063dd62ed3e146102fb578063f2fde38b1461032b57610109565b8063579158971461021d57806370a0823114610239578063715018a61461026957806379cc67901461027357610109565b8063313ce567116100dc578063313ce567146101a957806332cb6b0c146101c757806340c10f19146101e557806342966c681461020157610109565b806306fdde031461010d578063095ea7b31461012b57806318160ddd1461015b57806323b872dd14610179575b5f80fd5b610115610347565b604051610122919061103c565b60405180910390f35b610145600480360381019061014091906110ed565b6103d7565b6040516101529190611145565b60405180910390f35b6101636103f9565b604051610170919061116d565b60405180910390f35b610193600480360381019061018e9190611186565b610402565b6040516101a09190611145565b60405180910390f35b6101b1610430565b6040516101be91906111f1565b60405180910390f35b6101cf610438565b6040516101dc919061116d565b60405180910390f35b6101ff60048036038101906101fa91906110ed565b610448565b005b61021b6004803603810190610216919061120a565b6104bf565b005b6102376004803603810190610232919061120a565b6104d3565b005b610253600480360381019061024e9190611235565b61058e565b604051610260919061116d565b60405180910390f35b6102716105d3565b005b61028d600480360381019061028891906110ed565b6105e6565b005b610297610606565b6040516102a4919061126f565b60405180910390f35b6102b561062e565b6040516102c2919061103c565b60405180910390f35b6102e560048036038101906102e091906110ed565b6106be565b6040516102f29190611145565b60405180910390f35b61031560048036038101906103109190611288565b6106e0565b604051610322919061116d565b60405180910390f35b61034560048036038101906103409190611235565b610762565b005b606060038054610356906112f3565b80601f0160208091040260200160405190810160405280929190818152602001828054610382906112f3565b80156103cd5780601f106103a4576101008083540402835291602001916103cd565b820191905f5260205f20905b8154815290600101906020018083116103b057829003601f168201915b5050505050905090565b5f806103e16107e6565b90506103ee8185856107ed565b600191505092915050565b5f600254905090565b5f8061040c6107e6565b90506104198582856107ff565b610424858585610892565b60019150509392505050565b5f6012905090565b6b033b2e3c9fd0803ce800000081565b610450610982565b6b033b2e3c9fd0803ce8000000816104666103f9565b6104709190611350565b11156104b1576040517f08c379a00000000000000000000000000000000000000000000000000000000081526004016104a8906113cd565b60405180910390fd5b6104bb8282610a09565b5050565b6104d06104ca6107e6565b82610a88565b50565b69021e19e0c9bab2400000811115610520576040517f08c379a000000000000000000000000000000000000000000000000000000000815260040161051790611435565b60405180910390fd5b6b033b2e3c9fd0803ce8000000816105366103f9565b6105409190611350565b1115610581576040517f08c379a0000000000000000000000000000000000000000000000000000000008152600401610578906113cd565b60405180910390fd5b61058b3382610a09565b50565b5f805f8373ffffffffffffffffffffffffffffffffffffffff1673ffffffffffffffffffffffffffffffffffffffff1681526020019081526020015f20549050919050565b6105db610982565b6105e45f610b07565b565b6105f8826105f26107e6565b836107ff565b6106028282610a88565b5050565b5f60055f9054906101000a900473ffffffffffffffffffffffffffffffffffffffff16905090565b60606004805461063d906112f3565b80601f0160208091040260200160405190810160405280929190818152602001828054610669906112f3565b80156106b45780601f1061068b576101008083540402835291602001916106b4565b820191905f5260205f20905b81548152906001019060200180831161069757829003601f168201915b5050505050905090565b5f806106c86107e6565b90506106d5818585610892565b600191505092915050565b5f60015f8473ffffffffffffffffffffffffffffffffffffffff1673ffffffffffffffffffffffffffffffffffffffff1681526020019081526020015f205f8373ffffffffffffffffffffffffffffffffffffffff1673ffffffffffffffffffffffffffffffffffffffff1681526020019081526020015f2054905092915050565b61076a610982565b5f73ffffffffffffffffffffffffffffffffffffffff168173ffffffffffffffffffffffffffffffffffffffff16036107da575f6040517f1e4fbdf70000000000000000000000000000000000000000000000000000000081526004016107d1919061126f565b60405180910390fd5b6107e381610b07565b50565b5f33905090565b6107fa8383836001610bca565b505050565b5f61080a84846106e0565b90507fffffffffffffffffffffffffffffffffffffffffffffffffffffffffffffffff81101561088c578181101561087d578281836040517ffb8f41b200000000000000000000000000000000000000000000000000000000815260040161087493929190611453565b60405180910390fd5b61088b84848484035f610bca565b5b50505050565b5f73ffffffffffffffffffffffffffffffffffffffff168373ffffffffffffffffffffffffffffffffffffffff1603610902575f6040517f96c6fd1e0000000000000000000000000000000000000000000000000000000081526004016108f9919061126f565b60405180910390fd5b5f73ffffffffffffffffffffffffffffffffffffffff168273ffffffffffffffffffffffffffffffffffffffff1603610972575f6040517fec442f05000000000000000000000000000000000000000000000000000000008152600401610969919061126f565b60405180910390fd5b61097d838383610d99565b505050565b61098a6107e6565b73ffffffffffffffffffffffffffffffffffffffff166109a8610606565b73ffffffffffffffffffffffffffffffffffffffff1614610a07576109cb6107e6565b6040517f118cdaa70000000000000000000000000000000000000000000000000000000081526004016109fe919061126f565b60405180910390fd5b565b5f73ffffffffffffffffffffffffffffffffffffffff168273ffffffffffffffffffffffffffffffffffffffff1603610a79575f6040517fec442f05000000000000000000000000000000000000000000000000000000008152600401610a70919061126f565b60405180910390fd5b610a845f8383610d99565b5050565b5f73ffffffffffffffffffffffffffffffffffffffff168273ffffffffffffffffffffffffffffffffffffffff1603610af8575f6040517f96c6fd1e000000000000000000000000000000000000000000000000000000008152600401610aef919061126f565b60405180910390fd5b610b03825f83610d99565b5050565b5f60055f9054906101000a900473ffffffffffffffffffffffffffffffffffffffff1690508160055f6101000a81548173ffffffffffffffffffffffffffffffffffffffff021916908373ffffffffffffffffffffffffffffffffffffffff1602179055508173ffffffffffffffffffffffffffffffffffffffff168173ffffffffffffffffffffffffffffffffffffffff167f8be0079c531659141344cd1fd0a4f28419497f9722a3daafe3b4186f6b6457e060405160405180910390a35050565b5f73ffffffffffffffffffffffffffffffffffffffff168473ffffffffffffffffffffffffffffffffffffffff1603610c3a575f6040517fe602df05000000000000000000000000000000000000000000000000000000008152600401610c31919061126f565b60405180910390fd5b5f73ffffffffffffffffffffffffffffffffffffffff168373ffffffffffffffffffffffffffffffffffffffff1603610caa575f6040517f94280d62000000000000000000000000000000000000000000000000000000008152600401610ca1919061126f565b60405180910390fd5b8160015f8673ffffffffffffffffffffffffffffffffffffffff1673ffffffffffffffffffffffffffffffffffffffff1681526020019081526020015f205f8573ffffffffffffffffffffffffffffffffffffffff1673ffffffffffffffffffffffffffffffffffffffff1681526020019081526020015f20819055508015610d93578273ffffffffffffffffffffffffffffffffffffffff168473ffffffffffffffffffffffffffffffffffffffff167f8c5be1e5ebec7d5bd14f71427d1e84f3dd0314c0f7b2291e5b200ac8c7c3b92584604051610d8a919061116d565b60405180910390a35b50505050565b5f73ffffffffffffffffffffffffffffffffffffffff168373ffffffffffffffffffffffffffffffffffffffff1603610de9578060025f828254610ddd9190611350565b92505081905550610eb7565b5f805f8573ffffffffffffffffffffffffffffffffffffffff1673ffffffffffffffffffffffffffffffffffffffff1681526020019081526020015f2054905081811015610e72578381836040517fe450d38c000000000000000000000000000000000000000000000000000000008152600401610e6993929190611453565b60405180910390fd5b8181035f808673ffffffffffffffffffffffffffffffffffffffff1673ffffffffffffffffffffffffffffffffffffffff1681526020019081526020015f2081905550505b5f73ffffffffffffffffffffffffffffffffffffffff168273ffffffffffffffffffffffffffffffffffffffff1603610efe578060025f8282540392505081905550610f48565b805f808473ffffffffffffffffffffffffffffffffffffffff1673ffffffffffffffffffffffffffffffffffffffff1681526020019081526020015f205f82825401925050819055505b8173ffffffffffffffffffffffffffffffffffffffff168373ffffffffffffffffffffffffffffffffffffffff167fddf252ad1be2c89b69c2b068fc378daa952ba7f163c4a11628f55a4df523b3ef83604051610fa5919061116d565b60405180910390a3505050565b5f81519050919050565b5f82825260208201905092915050565b5f5b83811015610fe9578082015181840152602081019050610fce565b5f8484015250505050565b5f601f19601f8301169050919050565b5f61100e82610fb2565b6110188185610fbc565b9350611028818560208601610fcc565b61103181610ff4565b840191505092915050565b5f6020820190508181035f8301526110548184611004565b905092915050565b5f80fd5b5f73ffffffffffffffffffffffffffffffffffffffff82169050919050565b5f61108982611060565b9050919050565b6110998161107f565b81146110a3575f80fd5b50565b5f813590506110b481611090565b92915050565b5f819050919050565b6110cc816110ba565b81146110d6575f80fd5b50565b5f813590506110e7816110c3565b92915050565b5f80604083850312156111035761110261105c565b5b5f611110858286016110a6565b9250506020611121858286016110d9565b9150509250929050565b5f8115159050919050565b61113f8161112b565b82525050565b5f6020820190506111585f830184611136565b92915050565b611167816110ba565b82525050565b5f6020820190506111805f83018461115e565b92915050565b5f805f6060848603121561119d5761119c61105c565b5b5f6111aa868287016110a6565b93505060206111bb868287016110a6565b92505060406111cc868287016110d9565b9150509250925092565b5f60ff82169050919050565b6111eb816111d6565b82525050565b5f6020820190506112045f8301846111e2565b92915050565b5f6020828403121561121f5761121e61105c565b5b5f61122c848285016110d9565b91505092915050565b5f6020828403121561124a5761124961105c565b5b5f611257848285016110a6565b91505092915050565b6112698161107f565b82525050565b5f6020820190506112825f830184611260565b92915050565b5f806040838503121561129e5761129d61105c565b5b5f6112ab858286016110a6565b92505060206112bc858286016110a6565b9150509250929050565b7f4e487b71000000000000000000000000000000000000000000000000000000005f52602260045260245ffd5b5f600282049050600182168061130a57607f821691505b60208210810361131d5761131c6112c6565b5b50919050565b7f4e487b71000000000000000000000000000000000000000000000000000000005f52601160045260245ffd5b5f61135a826110ba565b9150611365836110ba565b925082820190508082111561137d5761137c611323565b5b92915050565b7f4b5952413a204d617820737570706c79206578636565646564000000000000005f82015250565b5f6113b7601983610fbc565b91506113c282611383565b602082019050919050565b5f6020820190508181035f8301526113e4816113ab565b9050919050565b7f4b5952413a20466175636574206c696d697420313030303020746f6b656e73005f82015250565b5f61141f601f83610fbc565b915061142a826113eb565b602082019050919050565b5f6020820190508181035f83015261144c81611413565b9050919050565b5f6060820190506114665f830186611260565b611473602083018561115e565b611480604083018461115e565b94935050505056fea26469706673582212200f008fbc2cfeb442f65f93e9db623bbe04b0fd5c38e9b3bcd5b0800e4f737cdb64736f6c63430008140033",
  "linkReferences": {},
  "deployedLinkReferences": {},
  "immutableReferences": {},
  "inputSourceName": "project/contracts/KYRAToken.sol",
  "buildInfoId": "solc-0_8_20-8115a2b26f0c42eae4d86c307af58d6309d0e48a"
}