{
  "_format": "hh3-artifact-1",
  "contractName": "Quest",
  "sourceName": "contracts/Quest.sol",
  "abi": [
    {
      "inputs": [
        {
          "internalType": "string",
          "name": "_name",
          "type": "string"
        },
        {
          "internalType": "string",
          "name": "_description",
          "type": "string"
        },
        {
          "internalType": "enum Quest.RewardType",
          "name": "_rewardType",
          "type": "uint8"
        },
        {
          "internalType": "enum Quest.QuestType",
          "name": "_questType",
          "type": "uint8"
        },
        {
          "internalType": "address",
          "name": "_rewardToken",
          "type": "address"
        },
        {
          "internalType": "uint256",
          "name": "_rewardAmount",
          "type": "uint256"
        },
        {
          "internalType": "uint256",
          "name": "_maxClaims",
          "type": "uint256"
        },
        {
          "internalType": "uint64",
          "name": "_expiryTimestamp",
          "type": "uint64"
        },
        {
          "internalType": "address",
          "name": "_creator",
          "type": "address"
        }
      ],
      "stateMutability": "nonpayable",
      "type": "constructor"
    },
    {
      "inputs": [
        {
          "internalType": "address",
          "name": "owner",
          "type": "address"
        }
      ],
      "name": "OwnableInvalidOwner",
      "type": "error"
    },
    {
      "inputs": [
        {
          "internalType": "address",
          "name": "account",
          "type": "address"
        }
      ],
      "name": "OwnableUnauthorizedAccount",
      "type": "error"
    },
    {
      "inputs": [],
      "name": "ReentrancyGuardReentrantCall",
      "type": "error"
    },
    {
      "inputs": [
        {
          "internalType": "address",
          "name": "token",
          "type": "address"
        }
      ],
      "name": "SafeERC20FailedOperation",
      "type": "error"
    },
    {
      "anonymous": false,
      "inputs": [
        {
          "indexed": false,
          "internalType": "uint256",
          "name": "tokenId",
          "type": "uint256"
        }
      ],
      "name": "NFTDeposited",
      "type": "event"
    },
    {
      "anonymous": false,
      "inputs": [
        {
          "indexed": true,
          "internalType": "address",
          "name": "previousOwner",
          "type": "address"
        },
        {
          "indexed": true,
          "internalType": "address",
          "name": "newOwner",
          "type": "address"
        }
      ],
      "name": "OwnershipTransferred",
      "type": "event"
    },
    {
      "anonymous": false,
      "inputs": [
        {
          "indexed": false,
          "internalType": "string",
          "name": "reason",
          "type": "string"
        }
      ],
      "name": "QuestClosed",
      "type": "event"
    },
    {
      "anonymous": false,
      "inputs": [
        {
          "indexed": true,
          "internalType": "address",
          "name": "creator",
          "type": "address"
        },
        {
          "indexed": false,
          "internalType": "string",
          "name": "name",
          "type": "string"
        },
        {
          "indexed": false,
          "internalType": "enum Quest.RewardType",
          "name": "rewardType",
          "type": "uint8"
        }
      ],
      "name": "QuestCreated",
      "type": "event"
    },
    {
      "anonymous": false,
      "inputs": [
        {
          "indexed": true,
          "internalType": "address",
          "name": "funder",
          "type": "address"
        },
        {
          "indexed": false,
          "internalType": "uint256",
          "name": "amount",
          "type": "uint256"
        }
      ],
      "name": "QuestFunded",
      "type": "event"
    },
    {
      "anonymous": false,
      "inputs": [
        {
          "indexed": true,
          "internalType": "address",
          "name": "user",
          "type": "address"
        },
        {
          "indexed": false,
          "internalType": "uint256",
          "name": "amount",
          "type": "uint256"
        },
        {
          "indexed": false,
          "internalType": "uint256",
          "name": "tokenId",
          "type": "uint256"
        }
      ],
      "name": "RewardClaimed",
      "type": "event"
    },
    {
      "inputs": [],
      "name": "active",
      "outputs": [
        {
          "internalType": "bool",
          "name": "",
          "type": "bool"
        }
      ],
      "stateMutability": "view",
      "type": "function"
    },
    {
      "inputs": [],
      "name": "claim",
      "outputs": [],
      "stateMutability": "nonpayable",
      "type": "function"
    },
    {
      "inputs": [
        {
          "internalType": "bytes32",
          "name": "verificationCode",
          "type": "bytes32"
        }
      ],
      "name": "claimWithCode",
      "outputs": [],
      "stateMutability": "nonpayable",
      "type": "function"
    },
    {
      "inputs": [],
      "name": "claimsMade",
      "outputs": [
        {
          "internalType": "uint256",
          "name": "",
          "type": "uint256"
        }
      ],
      "stateMutability": "view",
      "type": "function"
    },
    {
      "inputs": [],
      "name": "close",
      "outputs": [],
      "stateMutability": "nonpayable",
      "type": "function"
    },
    {
      "inputs": [
        {
          "internalType": "uint256",
          "name": "tokenId",
          "type": "uint256"
        }
      ],
      "name": "depositNFT",
      "outputs": [],
      "stateMutability": "nonpayable",
      "type": "function"
    },
    {
      "inputs": [
        {
          "internalType": "uint256[]",
          "name": "tokenIds",
          "type": "uint256[]"
        }
      ],
      "name": "depositNFTBatch",
      "outputs": [],
      "stateMutability": "nonpayable",
      "type": "function"
    },
    {
      "inputs": [],
      "name": "description",
      "outputs": [
        {
          "internalType": "string",
          "name": "",
          "type": "string"
        }
      ],
      "stateMutability": "view",
      "type": "function"
    },
    {
      "inputs": [],
      "name": "expiryTimestamp",
      "outputs": [
        {
          "internalType": "uint64",
          "name": "",
          "type": "uint64"
        }
      ],
      "stateMutability": "view",
      "type": "function"
    },
    {
      "inputs": [
        {
          "internalType": "uint256",
          "name": "amount",
          "type": "uint256"
        }
      ],
      "name": "fundWithTokens",
      "outputs": [],
      "stateMutability": "nonpayable",
      "type": "function"
    },
    {
      "inputs": [],
      "name": "getAvailableRewards",
      "outputs": [
        {
          "internalType": "uint256",
          "name": "",
          "type": "uint256"
        }
      ],
      "stateMutability": "view",
      "type": "function"
    },
    {
      "inputs": [],
      "name": "getQuestInfo",
      "outputs": [
        {
          "internalType": "string",
          "name": "_name",
          "type": "string"
        },
        {
          "internalType": "string",
          "name": "_description",
          "type": "string"
        },
        {
          "internalType": "enum Quest.RewardType",
          "name": "_rewardType",
          "type": "uint8"
        },
        {
          "internalType": "enum Quest.QuestType",
          "name": "_questType",
          "type": "uint8"
        },
        {
          "internalType": "address",
          "name": "_rewardToken",
          "type": "address"
        },
        {
          "internalType": "uint256",
          "name": "_rewardAmount",
          "type": "uint256"
        },
        {
          "internalType": "uint256",
          "name": "_maxClaims",
          "type": "uint256"
        },
        {
          "internalType": "uint256",
          "name": "_claimsMade",
          "type": "uint256"
        },
        {
          "internalType": "uint64",
          "name": "_expiryTimestamp",
          "type": "uint64"
        },
        {
          "internalType": "bool",
          "name": "_active",
          "type": "bool"
        }
      ],
      "stateMutability": "view",
      "type": "function"
    },
    {
      "inputs": [
        {
          "internalType": "address",
          "name": "",
          "type": "address"
        }
      ],
      "name": "hasClaimed",
      "outputs": [
        {
          "internalType": "bool",
          "name": "",
          "type": "bool"
        }
      ],
      "stateMutability": "view",
      "type": "function"
    },
    {
      "inputs": [],
      "name": "maxClaims",
      "outputs": [
        {
          "internalType": "uint256",
          "name": "",
          "type": "uint256"
        }
      ],
      "stateMutability": "view",
      "type": "function"
    },
    {
      "inputs": [],
      "name": "name",
      "outputs": [
        {
          "internalType": "string",
          "name": "",
          "type": "string"
        }
      ],
      "stateMutability": "view",
      "type": "function"
    },
    {
      "inputs": [],
      "name": "nextNftIndex",
      "outputs": [
        {
          "internalType": "uint256",
          "name": "",
          "type": "uint256"
        }
      ],
      "stateMutability": "view",
      "type": "function"
    },
    {
      "inputs": [
        {
          "internalType": "uint256",
          "name": "",
          "type": "uint256"
        }
      ],
      "name": "nftRewardIds",
      "outputs": [
        {
          "internalType": "uint256",
          "name": "",
          "type": "uint256"
        }
      ],
      "stateMutability": "view",
      "type": "function"
    },
    {
      "inputs": [
        {
          "internalType": "address",
          "name": "",
          "type": "address"
        },
        {
          "internalType": "address",
          "name": "",
          "type": "address"
        },
        {
          "internalType": "uint256",
          "name": "",
          "type": "uint256"
        },
        {
          "internalType": "bytes",
          "name": "",
          "type": "bytes"
        }
      ],
      "name": "onERC721Received",
      "outputs": [
        {
          "internalType": "bytes4",
          "name": "",
          "type": "bytes4"
        }
      ],
      "stateMutability": "pure",
      "type": "function"
    },
    {
      "inputs": [],
      "name": "owner",
      "outputs": [
        {
          "internalType": "address",
          "name": "",
          "type": "address"
        }
      ],
      "stateMutability": "view",
      "type": "function"
    },
    {
      "inputs": [],
      "name": "questType",
      "outputs": [
        {
          "internalType": "enum Quest.QuestType",
          "name": "",
          "type": "uint8"
        }
      ],
      "stateMutability": "view",
      "type": "function"
    },
    {
      "inputs": [],
      "name": "renounceOwnership",
      "outputs": [],
      "stateMutability": "nonpayable",
      "type": "function"
    },
    {
      "inputs": [],
      "name": "rewardAmount",
      "outputs": [
        {
          "internalType": "uint256",
          "name": "",
          "type": "uint256"
        }
      ],
      "stateMutability": "view",
      "type": "function"
    },
    {
      "inputs": [],
      "name": "rewardToken",
      "outputs": [
        {
          "internalType": "address",
          "name": "",
          "type": "address"
        }
      ],
      "stateMutability": "view",
      "type": "function"
    },
    {
      "inputs": [],
      "name": "rewardType",
      "outputs": [
        {
          "internalType": "enum Quest.RewardType",
          "name": "",
          "type": "uint8"
        }
      ],
      "stateMutability": "view",
      "type": "function"
    },
    {
      "inputs": [
        {
          "internalType": "address",
          "name": "newOwner",
          "type": "address"
        }
      ],
      "name": "transferOwnership",
      "outputs": [],
      "stateMutability": "nonpayable",
      "type": "function"
    },
    {
      "inputs": [],
      "name": "withdrawRemaining",
      "outputs": [],
      "stateMutability": "nonpayable",
      "type": "function"
    }
  ],
  "bytecode": "0x608060405234801562000010575f80fd5b50604051620036fb380380620036fb83398181016040528101906200003691906200059f565b805f73ffffffffffffffffffffffffffffffffffffffff168173ffffffffffffffffffffffffffffffffffffffff1603620000aa575f6040517f1e4fbdf7000000000000000000000000000000000000000000000000000000008152600401620000a19190620006c7565b60405180910390fd5b620000bb816200023260201b60201c565b50600180819055508860029081620000d4919062000910565b508760039081620000e6919062000910565b508660045f6101000a81548160ff021916908360018111156200010e576200010d620009f4565b5b021790555085600460016101000a81548160ff021916908360028111156200013b576200013a620009f4565b5b021790555084600460026101000a81548173ffffffffffffffffffffffffffffffffffffffff021916908373ffffffffffffffffffffffffffffffffffffffff16021790555083600581905550826006819055508160085f6101000a81548167ffffffffffffffff021916908367ffffffffffffffff16021790555060016008806101000a81548160ff0219169083151502179055508073ffffffffffffffffffffffffffffffffffffffff167f15139115c870dee812adf85be6d48c5bae97e942b6b367d692ac3fc049652ceb8a896040516200021b92919062000ac0565b60405180910390a250505050505050505062000af2565b5f805f9054906101000a900473ffffffffffffffffffffffffffffffffffffffff169050815f806101000a81548173ffffffffffffffffffffffffffffffffffffffff021916908373ffffffffffffffffffffffffffffffffffffffff1602179055508173ffffffffffffffffffffffffffffffffffffffff168173ffffffffffffffffffffffffffffffffffffffff167f8be0079c531659141344cd1fd0a4f28419497f9722a3daafe3b4186f6b6457e060405160405180910390a35050565b5f604051905090565b5f80fd5b5f80fd5b5f80fd5b5f80fd5b5f601f19601f8301169050919050565b7f4e487b71000000000000000000000000000000000000000000000000000000005f52604160045260245ffd5b62000354826200030c565b810181811067ffffffffffffffff821117156200037657620003756200031c565b5b80604052505050565b5f6200038a620002f3565b905062000398828262000349565b919050565b5f67ffffffffffffffff821115620003ba57620003b96200031c565b5b620003c5826200030c565b9050602081019050919050565b5f5b83811015620003f1578082015181840152602081019050620003d4565b5f8484015250505050565b5f620004126200040c846200039d565b6200037f565b90508281526020810184848401111562000431576200043062000308565b5b6200043e848285620003d2565b509392505050565b5f82601f8301126200045d576200045c62000304565b5b81516200046f848260208601620003fc565b91505092915050565b6002811062000485575f80fd5b50565b5f81519050620004988162000478565b92915050565b60038110620004ab575f80fd5b50565b5f81519050620004be816200049e565b92915050565b5f73ffffffffffffffffffffffffffffffffffffffff82169050919050565b5f620004ef82620004c4565b9050919050565b6200050181620004e3565b81146200050c575f80fd5b50565b5f815190506200051f81620004f6565b92915050565b5f819050919050565b620005398162000525565b811462000544575f80fd5b50565b5f8151905062000557816200052e565b92915050565b5f67ffffffffffffffff82169050919050565b6200057b816200055d565b811462000586575f80fd5b50565b5f81519050620005998162000570565b92915050565b5f805f805f805f805f6101208a8c031215620005c057620005bf620002fc565b5b5f8a015167ffffffffffffffff811115620005e057620005df62000300565b5b620005ee8c828d0162000446565b99505060208a015167ffffffffffffffff81111562000612576200061162000300565b5b620006208c828d0162000446565b9850506040620006338c828d0162000488565b9750506060620006468c828d01620004ae565b9650506080620006598c828d016200050f565b95505060a06200066c8c828d0162000547565b94505060c06200067f8c828d0162000547565b93505060e0620006928c828d0162000589565b925050610100620006a68c828d016200050f565b9150509295985092959850929598565b620006c181620004e3565b82525050565b5f602082019050620006dc5f830184620006b6565b92915050565b5f81519050919050565b7f4e487b71000000000000000000000000000000000000000000000000000000005f52602260045260245ffd5b5f60028204905060018216806200073157607f821691505b602082108103620007475762000746620006ec565b5b50919050565b5f819050815f5260205f209050919050565b5f6020601f8301049050919050565b5f82821b905092915050565b5f60088302620007ab7fffffffffffffffffffffffffffffffffffffffffffffffffffffffffffffffff826200076e565b620007b786836200076e565b95508019841693508086168417925050509392505050565b5f819050919050565b5f620007f8620007f2620007ec8462000525565b620007cf565b62000525565b9050919050565b5f819050919050565b6200081383620007d8565b6200082b6200082282620007ff565b8484546200077a565b825550505050565b5f90565b6200084162000833565b6200084e81848462000808565b505050565b5b818110156200087557620008695f8262000837565b60018101905062000854565b5050565b601f821115620008c4576200088e816200074d565b62000899846200075f565b81016020851015620008a9578190505b620008c1620008b8856200075f565b83018262000853565b50505b505050565b5f82821c905092915050565b5f620008e65f1984600802620008c9565b1980831691505092915050565b5f620009008383620008d5565b9150826002028217905092915050565b6200091b82620006e2565b67ffffffffffffffff8111156200093757620009366200031c565b5b62000943825462000719565b6200095082828562000879565b5f60209050601f83116001811462000986575f841562000971578287015190505b6200097d8582620008f3565b865550620009ec565b601f19841662000996866200074d565b5f5b82811015620009bf5784890151825560018201915060208501945060208101905062000998565b86831015620009df5784890151620009db601f891682620008d5565b8355505b6001600288020188555050505b505050505050565b7f4e487b71000000000000000000000000000000000000000000000000000000005f52602160045260245ffd5b5f82825260208201905092915050565b5f62000a3d82620006e2565b62000a49818562000a21565b935062000a5b818560208601620003d2565b62000a66816200030c565b840191505092915050565b6002811062000a855762000a84620009f4565b5b50565b5f81905062000a978262000a71565b919050565b5f62000aa88262000a88565b9050919050565b62000aba8162000a9c565b82525050565b5f6040820190508181035f83015262000ada818562000a31565b905062000aeb602083018462000aaf565b9392505050565b612bfb8062000b005f395ff3fe608060405234801561000f575f80fd5b506004361061018c575f3560e01c806373b2e80e116100dc578063d38d0a9211610095578063f2fde38b1161006f578063f2fde38b1461040b578063f7b2a7be14610427578063f7c618c114610445578063fc9c99ac146104635761018c565b8063d38d0a92146103c7578063e91a7ca6146103e5578063ee38db95146104015761018c565b806373b2e80e146103015780638da5cb5b14610331578063967c15271461034f578063ade6e2aa1461036d578063b13b62e71461038b578063cf5380b4146103a95761018c565b80634e71d92d116101495780636c76c8c9116101235780636c76c8c91461028b578063715018a6146102a957806371c9fbc8146102b35780637284e416146102e35761018c565b80634e71d92d14610249578063587adead146102535780636a39d91c1461026f5761018c565b806302fb0c5e1461019057806306fdde03146101ae578063150b7a02146101cc5780631fbe11be146101fc57806337895e441461022357806343d726d61461023f575b5f80fd5b610198610481565b6040516101a59190611d0d565b60405180910390f35b6101b6610492565b6040516101c39190611db0565b60405180910390f35b6101e660048036038101906101e19190611ec6565b61051e565b6040516101f39190611f84565b60405180910390f35b610204610532565b60405161021a9a99989796959493929190612096565b60405180910390f35b61023d60048036038101906102389190612193565b6106e4565b005b6102476108b1565b005b6102516108f9565b005b61026d60048036038101906102689190612211565b610b07565b005b6102896004803603810190610284919061223c565b610d84565b005b610293610e98565b6040516102a09190612267565b60405180910390f35b6102b1610e9e565b005b6102cd60048036038101906102c8919061223c565b610eb1565b6040516102da9190612267565b60405180910390f35b6102eb610ed1565b6040516102f89190611db0565b60405180910390f35b61031b60048036038101906103169190612280565b610f5d565b6040516103289190611d0d565b60405180910390f35b610339610f7a565b60405161034691906122ab565b60405180910390f35b610357610fa1565b60405161036491906122c4565b60405180910390f35b610375610fb4565b60405161038291906122dd565b60405180910390f35b610393610fcd565b6040516103a09190612267565b60405180910390f35b6103b1610fd3565b6040516103be9190612267565b60405180910390f35b6103cf610fd9565b6040516103dc91906122f6565b60405180910390f35b6103ff60048036038101906103fa919061223c565b610feb565b005b61040961114b565b005b61042560048036038101906104209190612280565b6113de565b005b61042f611462565b60405161043c9190612267565b60405180910390f35b61044d611468565b60405161045a91906122ab565b60405180910390f35b61046b61148e565b6040516104789190612267565b60405180910390f35b60088054906101000a900460ff1681565b6002805461049f9061233c565b80601f01602080910402602001604051908101604052809291908181526020018280546104cb9061233c565b80156105165780601f106104ed57610100808354040283529160200191610516565b820191905f5260205f20905b8154815290600101906020018083116104f957829003601f168201915b505050505081565b5f63150b7a0260e01b905095945050505050565b6060805f805f805f805f806002600360045f9054906101000a900460ff16600460019054906101000a900460ff16600460029054906101000a900473ffffffffffffffffffffffffffffffffffffffff1660055460065460075460085f9054906101000a900467ffffffffffffffff1660088054906101000a900460ff168980546105bc9061233c565b80601f01602080910402602001604051908101604052809291908181526020018280546105e89061233c565b80156106335780601f1061060a57610100808354040283529160200191610633565b820191905f5260205f20905b81548152906001019060200180831161061657829003601f168201915b505050505099508880546106469061233c565b80601f01602080910402602001604051908101604052809291908181526020018280546106729061233c565b80156106bd5780601f10610694576101008083540402835291602001916106bd565b820191905f5260205f20905b8154815290600101906020018083116106a057829003601f168201915b50505050509850995099509950995099509950995099509950995090919293949596979899565b6001808111156106f7576106f6611f9d565b5b60045f9054906101000a900460ff16600181111561071857610717611f9d565b5b14610758576040517f08c379a000000000000000000000000000000000000000000000000000000000815260040161074f906123b6565b60405180910390fd5b5f5b828290508110156108ac57600460029054906101000a900473ffffffffffffffffffffffffffffffffffffffff1673ffffffffffffffffffffffffffffffffffffffff166342842e0e33308686868181106107b8576107b76123d4565b5b905060200201356040518463ffffffff1660e01b81526004016107dd93929190612401565b5f604051808303815f87803b1580156107f4575f80fd5b505af1158015610806573d5f803e3d5ffd5b50505050600983838381811061081f5761081e6123d4565b5b90506020020135908060018154018082558091505060019003905f5260205f20015f90919091909150557ff36d7a61da5869f1f725b62b3414422372ff984566d321f9758ec768fb859a8883838381811061087d5761087c6123d4565b5b905060200201356040516108919190612267565b60405180910390a180806108a490612463565b91505061075a565b505050565b6108b961158f565b6108f76040518060400160405280601581526020017f4d616e75616c20636c6f7365206279206f776e65720000000000000000000000815250611616565b565b610901611669565b60088054906101000a900460ff1661094e576040517f08c379a0000000000000000000000000000000000000000000000000000000008152600401610945906124f4565b60405180910390fd5b60085f9054906101000a900467ffffffffffffffff1667ffffffffffffffff1642106109af576040517f08c379a00000000000000000000000000000000000000000000000000000000081526004016109a69061255c565b60405180910390fd5b600654600754106109f5576040517f08c379a00000000000000000000000000000000000000000000000000000000081526004016109ec906125c4565b60405180910390fd5b600b5f3373ffffffffffffffffffffffffffffffffffffffff1673ffffffffffffffffffffffffffffffffffffffff1681526020019081526020015f205f9054906101000a900460ff1615610a7f576040517f08c379a0000000000000000000000000000000000000000000000000000000008152600401610a769061262c565b60405180910390fd5b5f6002811115610a9257610a91611f9d565b5b600460019054906101000a900460ff166002811115610ab457610ab3611f9d565b5b14610af4576040517f08c379a0000000000000000000000000000000000000000000000000000000008152600401610aeb90612694565b60405180910390fd5b610afd336116af565b610b05611a86565b565b610b0f611669565b60088054906101000a900460ff16610b5c576040517f08c379a0000000000000000000000000000000000000000000000000000000008152600401610b53906124f4565b60405180910390fd5b60085f9054906101000a900467ffffffffffffffff1667ffffffffffffffff164210610bbd576040517f08c379a0000000000000000000000000000000000000000000000000000000008152600401610bb49061255c565b60405180910390fd5b60065460075410610c03576040517f08c379a0000000000000000000000000000000000000000000000000000000008152600401610bfa906125c4565b60405180910390fd5b600b5f3373ffffffffffffffffffffffffffffffffffffffff1673ffffffffffffffffffffffffffffffffffffffff1681526020019081526020015f205f9054906101000a900460ff1615610c8d576040517f08c379a0000000000000000000000000000000000000000000000000000000008152600401610c849061262c565b60405180910390fd5b60016002811115610ca157610ca0611f9d565b5b600460019054906101000a900460ff166002811115610cc357610cc2611f9d565b5b14610d03576040517f08c379a0000000000000000000000000000000000000000000000000000000008152600401610cfa906126fc565b60405180910390fd5b5f30604051602001610d1591906127b3565b604051602081830303815290604052805190602001209050808214610d6f576040517f08c379a0000000000000000000000000000000000000000000000000000000008152600401610d6690612822565b60405180910390fd5b610d78336116af565b50610d81611a86565b50565b5f6001811115610d9757610d96611f9d565b5b60045f9054906101000a900460ff166001811115610db857610db7611f9d565b5b14610df8576040517f08c379a0000000000000000000000000000000000000000000000000000000008152600401610def9061288a565b60405180910390fd5b610e47333083600460029054906101000a900473ffffffffffffffffffffffffffffffffffffffff1673ffffffffffffffffffffffffffffffffffffffff16611a8f909392919063ffffffff16565b3373ffffffffffffffffffffffffffffffffffffffff167fb72712ce4f427e59460e718077779daa16ef7cdf3f673552e38e2cde826b689882604051610e8d9190612267565b60405180910390a250565b600a5481565b610ea661158f565b610eaf5f611b11565b565b60098181548110610ec0575f80fd5b905f5260205f20015f915090505481565b60038054610ede9061233c565b80601f0160208091040260200160405190810160405280929190818152602001828054610f0a9061233c565b8015610f555780601f10610f2c57610100808354040283529160200191610f55565b820191905f5260205f20905b815481529060010190602001808311610f3857829003601f168201915b505050505081565b600b602052805f5260405f205f915054906101000a900460ff1681565b5f805f9054906101000a900473ffffffffffffffffffffffffffffffffffffffff16905090565b600460019054906101000a900460ff1681565b60085f9054906101000a900467ffffffffffffffff1681565b60075481565b60065481565b60045f9054906101000a900460ff1681565b600180811115610ffe57610ffd611f9d565b5b60045f9054906101000a900460ff16600181111561101f5761101e611f9d565b5b1461105f576040517f08c379a0000000000000000000000000000000000000000000000000000000008152600401611056906123b6565b60405180910390fd5b600460029054906101000a900473ffffffffffffffffffffffffffffffffffffffff1673ffffffffffffffffffffffffffffffffffffffff166342842e0e3330846040518463ffffffff1660e01b81526004016110be93929190612401565b5f604051808303815f87803b1580156110d5575f80fd5b505af11580156110e7573d5f803e3d5ffd5b50505050600981908060018154018082558091505060019003905f5260205f20015f90919091909150557ff36d7a61da5869f1f725b62b3414422372ff984566d321f9758ec768fb859a88816040516111409190612267565b60405180910390a150565b61115361158f565b60088054906101000a900460ff16158061118c575060085f9054906101000a900467ffffffffffffffff1667ffffffffffffffff164210155b6111cb576040517f08c379a00000000000000000000000000000000000000000000000000000000081526004016111c2906128f2565b60405180910390fd5b5f60018111156111de576111dd611f9d565b5b60045f9054906101000a900460ff1660018111156111ff576111fe611f9d565b5b03611304575f600460029054906101000a900473ffffffffffffffffffffffffffffffffffffffff1673ffffffffffffffffffffffffffffffffffffffff166370a08231306040518263ffffffff1660e01b815260040161126091906122ab565b602060405180830381865afa15801561127b573d5f803e3d5ffd5b505050506040513d601f19601f8201168201806040525081019061129f9190612924565b90505f8111156112fe576112fd6112b4610f7a565b82600460029054906101000a900473ffffffffffffffffffffffffffffffffffffffff1673ffffffffffffffffffffffffffffffffffffffff16611bd29092919063ffffffff16565b5b506113dc565b5f600a5490505b6009805490508110156113da57600460029054906101000a900473ffffffffffffffffffffffffffffffffffffffff1673ffffffffffffffffffffffffffffffffffffffff166342842e0e3061135f610f7a565b60098581548110611373576113726123d4565b5b905f5260205f2001546040518463ffffffff1660e01b815260040161139a93929190612401565b5f604051808303815f87803b1580156113b1575f80fd5b505af11580156113c3573d5f803e3d5ffd5b5050505080806113d290612463565b91505061130b565b505b565b6113e661158f565b5f73ffffffffffffffffffffffffffffffffffffffff168173ffffffffffffffffffffffffffffffffffffffff1603611456575f6040517f1e4fbdf700000000000000000000000000000000000000000000000000000000815260040161144d91906122ab565b60405180910390fd5b61145f81611b11565b50565b60055481565b600460029054906101000a900473ffffffffffffffffffffffffffffffffffffffff1681565b5f8060018111156114a2576114a1611f9d565b5b60045f9054906101000a900460ff1660018111156114c3576114c2611f9d565b5b0361157657600554600460029054906101000a900473ffffffffffffffffffffffffffffffffffffffff1673ffffffffffffffffffffffffffffffffffffffff166370a08231306040518263ffffffff1660e01b815260040161152691906122ab565b602060405180830381865afa158015611541573d5f803e3d5ffd5b505050506040513d601f19601f820116820180604052508101906115659190612924565b61156f919061297c565b905061158c565b600a5460098054905061158991906129ac565b90505b90565b611597611c51565b73ffffffffffffffffffffffffffffffffffffffff166115b5610f7a565b73ffffffffffffffffffffffffffffffffffffffff1614611614576115d8611c51565b6040517f118cdaa700000000000000000000000000000000000000000000000000000000815260040161160b91906122ab565b60405180910390fd5b565b5f6008806101000a81548160ff0219169083151502179055507f33e2b1e7f7e38f35a4a2c028afd807aa5148e92af5748f8052cae2fce3004a4d8160405161165e9190611db0565b60405180910390a150565b6002600154036116a5576040517f3ee5aeb500000000000000000000000000000000000000000000000000000000815260040160405180910390fd5b6002600181905550565b6001600b5f8373ffffffffffffffffffffffffffffffffffffffff1673ffffffffffffffffffffffffffffffffffffffff1681526020019081526020015f205f6101000a81548160ff02191690831515021790555060075f81548092919061171690612463565b91905055505f600181111561172e5761172d611f9d565b5b60045f9054906101000a900460ff16600181111561174f5761174e611f9d565b5b036118d857600554600460029054906101000a900473ffffffffffffffffffffffffffffffffffffffff1673ffffffffffffffffffffffffffffffffffffffff166370a08231306040518263ffffffff1660e01b81526004016117b291906122ab565b602060405180830381865afa1580156117cd573d5f803e3d5ffd5b505050506040513d601f19601f820116820180604052508101906117f19190612924565b1015611832576040517f08c379a000000000000000000000000000000000000000000000000000000000815260040161182990612a4f565b60405180910390fd5b61188181600554600460029054906101000a900473ffffffffffffffffffffffffffffffffffffffff1673ffffffffffffffffffffffffffffffffffffffff16611bd29092919063ffffffff16565b8073ffffffffffffffffffffffffffffffffffffffff167ff01da32686223933d8a18a391060918c7f11a3648639edd87ae013e2e27317436005545f6040516118cb929190612aaf565b60405180910390a2611a39565b600980549050600a5410611921576040517f08c379a000000000000000000000000000000000000000000000000000000000815260040161191890612b20565b60405180910390fd5b5f6009600a5481548110611938576119376123d4565b5b905f5260205f2001549050600a5f81548092919061195590612463565b9190505550600460029054906101000a900473ffffffffffffffffffffffffffffffffffffffff1673ffffffffffffffffffffffffffffffffffffffff166342842e0e3084846040518463ffffffff1660e01b81526004016119b993929190612401565b5f604051808303815f87803b1580156119d0575f80fd5b505af11580156119e2573d5f803e3d5ffd5b505050508173ffffffffffffffffffffffffffffffffffffffff167ff01da32686223933d8a18a391060918c7f11a3648639edd87ae013e2e2731743600183604051611a2f929190612b77565b60405180910390a2505b60065460075410611a8357611a826040518060400160405280601281526020017f4d617820636c61696d7320726561636865640000000000000000000000000000815250611616565b5b50565b60018081905550565b611b0b848573ffffffffffffffffffffffffffffffffffffffff166323b872dd868686604051602401611ac493929190612401565b604051602081830303815290604052915060e01b6020820180517bffffffffffffffffffffffffffffffffffffffffffffffffffffffff8381831617835250505050611c58565b50505050565b5f805f9054906101000a900473ffffffffffffffffffffffffffffffffffffffff169050815f806101000a81548173ffffffffffffffffffffffffffffffffffffffff021916908373ffffffffffffffffffffffffffffffffffffffff1602179055508173ffffffffffffffffffffffffffffffffffffffff168173ffffffffffffffffffffffffffffffffffffffff167f8be0079c531659141344cd1fd0a4f28419497f9722a3daafe3b4186f6b6457e060405160405180910390a35050565b611c4c838473ffffffffffffffffffffffffffffffffffffffff1663a9059cbb8585604051602401611c05929190612b9e565b604051602081830303815290604052915060e01b6020820180517bffffffffffffffffffffffffffffffffffffffffffffffffffffffff8381831617835250505050611c58565b505050565b5f33905090565b5f8060205f8451602086015f885af180611c77576040513d5f823e3d81fd5b3d92505f519150505f8214611c90576001811415611cab565b5f8473ffffffffffffffffffffffffffffffffffffffff163b145b15611ced57836040517f5274afe7000000000000000000000000000000000000000000000000000000008152600401611ce491906122ab565b60405180910390fd5b50505050565b5f8115159050919050565b611d0781611cf3565b82525050565b5f602082019050611d205f830184611cfe565b92915050565b5f81519050919050565b5f82825260208201905092915050565b5f5b83811015611d5d578082015181840152602081019050611d42565b5f8484015250505050565b5f601f19601f8301169050919050565b5f611d8282611d26565b611d8c8185611d30565b9350611d9c818560208601611d40565b611da581611d68565b840191505092915050565b5f6020820190508181035f830152611dc88184611d78565b905092915050565b5f80fd5b5f80fd5b5f73ffffffffffffffffffffffffffffffffffffffff82169050919050565b5f611e0182611dd8565b9050919050565b611e1181611df7565b8114611e1b575f80fd5b50565b5f81359050611e2c81611e08565b92915050565b5f819050919050565b611e4481611e32565b8114611e4e575f80fd5b50565b5f81359050611e5f81611e3b565b92915050565b5f80fd5b5f80fd5b5f80fd5b5f8083601f840112611e8657611e85611e65565b5b8235905067ffffffffffffffff811115611ea357611ea2611e69565b5b602083019150836001820283011115611ebf57611ebe611e6d565b5b9250929050565b5f805f805f60808688031215611edf57611ede611dd0565b5b5f611eec88828901611e1e565b9550506020611efd88828901611e1e565b9450506040611f0e88828901611e51565b935050606086013567ffffffffffffffff811115611f2f57611f2e611dd4565b5b611f3b88828901611e71565b92509250509295509295909350565b5f7fffffffff0000000000000000000000000000000000000000000000000000000082169050919050565b611f7e81611f4a565b82525050565b5f602082019050611f975f830184611f75565b92915050565b7f4e487b71000000000000000000000000000000000000000000000000000000005f52602160045260245ffd5b60028110611fdb57611fda611f9d565b5b50565b5f819050611feb82611fca565b919050565b5f611ffa82611fde565b9050919050565b61200a81611ff0565b82525050565b6003811061202157612020611f9d565b5b50565b5f81905061203182612010565b919050565b5f61204082612024565b9050919050565b61205081612036565b82525050565b61205f81611df7565b82525050565b61206e81611e32565b82525050565b5f67ffffffffffffffff82169050919050565b61209081612074565b82525050565b5f610140820190508181035f8301526120af818d611d78565b905081810360208301526120c3818c611d78565b90506120d2604083018b612001565b6120df606083018a612047565b6120ec6080830189612056565b6120f960a0830188612065565b61210660c0830187612065565b61211360e0830186612065565b612121610100830185612087565b61212f610120830184611cfe565b9b9a5050505050505050505050565b5f8083601f84011261215357612152611e65565b5b8235905067ffffffffffffffff8111156121705761216f611e69565b5b60208301915083602082028301111561218c5761218b611e6d565b5b9250929050565b5f80602083850312156121a9576121a8611dd0565b5b5f83013567ffffffffffffffff8111156121c6576121c5611dd4565b5b6121d28582860161213e565b92509250509250929050565b5f819050919050565b6121f0816121de565b81146121fa575f80fd5b50565b5f8135905061220b816121e7565b92915050565b5f6020828403121561222657612225611dd0565b5b5f612233848285016121fd565b91505092915050565b5f6020828403121561225157612250611dd0565b5b5f61225e84828501611e51565b91505092915050565b5f60208201905061227a5f830184612065565b92915050565b5f6020828403121561229557612294611dd0565b5b5f6122a284828501611e1e565b91505092915050565b5f6020820190506122be5f830184612056565b92915050565b5f6020820190506122d75f830184612047565b92915050565b5f6020820190506122f05f830184612087565b92915050565b5f6020820190506123095f830184612001565b92915050565b7f4e487b71000000000000000000000000000000000000000000000000000000005f52602260045260245ffd5b5f600282049050600182168061235357607f821691505b6020821081036123665761236561230f565b5b50919050565b7f51756573743a204e6f7420616e204e46542071756573740000000000000000005f82015250565b5f6123a0601783611d30565b91506123ab8261236c565b602082019050919050565b5f6020820190508181035f8301526123cd81612394565b9050919050565b7f4e487b71000000000000000000000000000000000000000000000000000000005f52603260045260245ffd5b5f6060820190506124145f830186612056565b6124216020830185612056565b61242e6040830184612065565b949350505050565b7f4e487b71000000000000000000000000000000000000000000000000000000005f52601160045260245ffd5b5f61246d82611e32565b91507fffffffffffffffffffffffffffffffffffffffffffffffffffffffffffffffff820361249f5761249e612436565b5b600182019050919050565b7f51756573743a204e6f74206163746976650000000000000000000000000000005f82015250565b5f6124de601183611d30565b91506124e9826124aa565b602082019050919050565b5f6020820190508181035f83015261250b816124d2565b9050919050565b7f51756573743a20457870697265640000000000000000000000000000000000005f82015250565b5f612546600e83611d30565b915061255182612512565b602082019050919050565b5f6020820190508181035f8301526125738161253a565b9050919050565b7f51756573743a204d617820636c61696d732072656163686564000000000000005f82015250565b5f6125ae601983611d30565b91506125b98261257a565b602082019050919050565b5f6020820190508181035f8301526125db816125a2565b9050919050565b7f51756573743a20416c726561647920636c61696d6564000000000000000000005f82015250565b5f612616601683611d30565b9150612621826125e2565b602082019050919050565b5f6020820190508181035f8301526126438161260a565b9050919050565b7f51756573743a20566572696669636174696f6e207265717569726564000000005f82015250565b5f61267e601c83611d30565b91506126898261264a565b602082019050919050565b5f6020820190508181035f8301526126ab81612672565b9050919050565b7f51756573743a204e6f74206120515220717565737400000000000000000000005f82015250565b5f6126e6601583611d30565b91506126f1826126b2565b602082019050919050565b5f6020820190508181035f830152612713816126da565b9050919050565b5f8160601b9050919050565b5f6127308261271a565b9050919050565b5f61274182612726565b9050919050565b61275961275482611df7565b612737565b82525050565b5f81905092915050565b7f4b595241000000000000000000000000000000000000000000000000000000005f82015250565b5f61279d60048361275f565b91506127a882612769565b600482019050919050565b5f6127be8284612748565b6014820191506127cd82612791565b915081905092915050565b7f51756573743a20496e76616c696420766572696669636174696f6e20636f64655f82015250565b5f61280c602083611d30565b9150612817826127d8565b602082019050919050565b5f6020820190508181035f83015261283981612800565b9050919050565b7f51756573743a204e6f7420616e204552433230207175657374000000000000005f82015250565b5f612874601983611d30565b915061287f82612840565b602082019050919050565b5f6020820190508181035f8301526128a181612868565b9050919050565b7f51756573743a205374696c6c20616374697665000000000000000000000000005f82015250565b5f6128dc601383611d30565b91506128e7826128a8565b602082019050919050565b5f6020820190508181035f830152612909816128d0565b9050919050565b5f8151905061291e81611e3b565b92915050565b5f6020828403121561293957612938611dd0565b5b5f61294684828501612910565b91505092915050565b7f4e487b71000000000000000000000000000000000000000000000000000000005f52601260045260245ffd5b5f61298682611e32565b915061299183611e32565b9250826129a1576129a061294f565b5b828204905092915050565b5f6129b682611e32565b91506129c183611e32565b92508282039050818111156129d9576129d8612436565b5b92915050565b7f51756573743a20496e73756666696369656e74207265776172642062616c616e5f8201527f6365000000000000000000000000000000000000000000000000000000000000602082015250565b5f612a39602283611d30565b9150612a44826129df565b604082019050919050565b5f6020820190508181035f830152612a6681612a2d565b9050919050565b5f819050919050565b5f819050919050565b5f612a99612a94612a8f84612a6d565b612a76565b611e32565b9050919050565b612aa981612a7f565b82525050565b5f604082019050612ac25f830185612065565b612acf6020830184612aa0565b9392505050565b7f51756573743a204e6f204e46547320617661696c61626c6500000000000000005f82015250565b5f612b0a601883611d30565b9150612b1582612ad6565b602082019050919050565b5f6020820190508181035f830152612b3781612afe565b9050919050565b5f819050919050565b5f612b61612b5c612b5784612b3e565b612a76565b611e32565b9050919050565b612b7181612b47565b82525050565b5f604082019050612b8a5f830185612b68565b612b976020830184612065565b9392505050565b5f604082019050612bb15f830185612056565b612bbe6020830184612065565b939250505056fea2646970667358221220e430ea6f6ee042d8eeeebffddf05ef9608a12dc7957967058e45c05683a9a86b64736f6c63430008140033",
  "linkReferences": {},
  "deployedLinkReferences": {},
  "immutableReferences": {},
  "inputSourceName": "project/contracts/Quest.sol",
  "buildInfoId": "solc-0_8_20-8115a2b26f0c42eae4d86c307af58d6309d0e48a"
}