{
  "_format": "hh3-artifact-1",
  "contractName": "QuestNFT",
  "sourceName": "contracts/QuestNFT.sol",
  "abi": [
    {
      "inputs": [
        {
          "internalType": "string",
          "name": "name",
          "type": "string"
        },
        {
          "internalType": "string",
          "name": "symbol",
          "type": "string"
        },
        {
          "internalType": "string",
          "name": "baseURI",
          "type": "string"
        }
      ],
      "stateMutability": "nonpayable",
      "type": "constructor"
    },
    {
      "inputs": [],
      "name": "ERC721EnumerableForbiddenBatchMint",
      "type": "error"
    },
    {
      "inputs": [
        {
          "internalType": "address",
          "name": "sender",
          "type": "address"
        },
        {
          "internalType": "uint256",
          "name": "tokenId",
          "type": "uint256"
        },
        {
          "internalType": "address",
          "name": "owner",
          "type": "address"
        }
      ],
      "name": "ERC721IncorrectOwner",
      "type": "error"
    },
    {
      "inputs": [
        {
          "internalType": "address",
          "name": "operator",
          "type": "address"
        },
        {
          "internalType": "uint256",
          "name": "tokenId",
          "type": "uint256"
        }
      ],
      "name": "ERC721InsufficientApproval",
      "type": "error"
    },
    {
      "inputs": [
        {
          "internalType": "address",
          "name": "approver",
          "type": "address"
        }
      ],
      "name": "ERC721InvalidApprover",
      "type": "error"
    },
    {
      "inputs": [
        {
          "internalType": "address",
          "name": "operator",
          "type": "address"
        }
      ],
      "name": "ERC721InvalidOperator",
      "type": "error"
    },
    {
      "inputs": [
        {
          "internalType": "address",
          "name": "owner",
          "type": "address"
        }
      ],
      "name": "ERC721InvalidOwner",
      "type": "error"
    },
    {
      "inputs": [
        {
          "internalType": "address",
          "name": "receiver",
          "type": "address"
        }
      ],
      "name": "ERC721InvalidReceiver",
      "type": "error"
    },
    {
      "inputs": [
        {
          "internalType": "address",
          "name": "sender",
          "type": "address"
        }
      ],
      "name": "ERC721InvalidSender",
      "type": "error"
    },
    {
      "inputs": [
        {
          "internalType": "uint256",
          "name": "tokenId",
          "type": "uint256"
        }
      ],
      "name": "ERC721NonexistentToken",
      "type": "error"
    },
    {
      "inputs": [
        {
          "internalType": "address",
          "name": "owner",
          "type": "address"
        },
        {
          "internalType": "uint256",
          "name": "index",
          "type": "uint256"
        }
      ],
      "name": "ERC721OutOfBoundsIndex",
      "type": "error"
    },
    {
      "inputs": [
        {
          "internalType": "address",
          "name": "owner",
          "type": "address"
        }
      ],
      "name": "OwnableInvalidOwner",
      "type": "error"
    },
    {
      "inputs": [
        {
          "internalType": "address",
          "name": "account",
          "type": "address"
        }
      ],
      "name": "OwnableUnauthorizedAccount",
      "type": "error"
    },
    {
      "anonymous": false,
      "inputs": [
        {
          "indexed": true,
          "internalType": "address",
          "name": "owner",
          "type": "address"
        },
        {
          "indexed": true,
          "internalType": "address",
          "name": "approved",
          "type": "address"
        },
        {
          "indexed": true,
          "internalType": "uint256",
          "name": "tokenId",
          "type": "uint256"
        }
      ],
      "name": "Approval",
      "type": "event"
    },
    {
      "anonymous": false,
      "inputs": [
        {
          "indexed": true,
          "internalType": "address",
          "name": "owner",
          "type": "address"
        },
        {
          "indexed": true,
          "internalType": "address",
          "name": "operator",
          "type": "address"
        },
        {
          "indexed": false,
          "internalType": "bool",
          "name": "approved",
          "type": "bool"
        }
      ],
      "name": "ApprovalForAll",
      "type": "event"
    },
    {
      "anonymous": false,
      "inputs": [
        {
          "indexed": false,
          "internalType": "uint256",
          "name": "_fromTokenId",
          "type": "uint256"
        },
        {
          "indexed": false,
          "internalType": "uint256",
          "name": "_toTokenId",
          "type": "uint256"
        }
      ],
      "name": "BatchMetadataUpdate",
      "type": "event"
    },
    {
      "anonymous": false,
      "inputs": [
        {
          "indexed": false,
          "internalType": "uint256",
          "name": "_tokenId",
          "type": "uint256"
        }
      ],
      "name": "MetadataUpdate",
      "type": "event"
    },
    {
      "anonymous": false,
      "inputs": [
        {
          "indexed": true,
          "internalType": "address",
          "name": "minter",
          "type": "address"
        },
        {
          "indexed": false,
          "internalType": "bool",
          "name": "authorized",
          "type": "bool"
        }
      ],
      "name": "MinterAuthorized",
      "type": "event"
    },
    {
      "anonymous": false,
      "inputs": [
        {
          "indexed": true,
          "internalType": "address",
          "name": "previousOwner",
          "type": "address"
        },
        {
          "indexed": true,
          "internalType": "address",
          "name": "newOwner",
          "type": "address"
        }
      ],
      "name": "OwnershipTransferred",
      "type": "event"
    },
    {
      "anonymous": false,
      "inputs": [
        {
          "indexed": true,
          "internalType": "address",
          "name": "from",
          "type": "address"
        },
        {
          "indexed": true,
          "internalType": "address",
          "name": "to",
          "type": "address"
        },
        {
          "indexed": true,
          "internalType": "uint256",
          "name": "tokenId",
          "type": "uint256"
        }
      ],
      "name": "Transfer",
      "type": "event"
    },
    {
      "inputs": [
        {
          "internalType": "address",
          "name": "to",
          "type": "address"
        },
        {
          "internalType": "uint256",
          "name": "tokenId",
          "type": "uint256"
        }
      ],
      "name": "approve",
      "outputs": [],
      "stateMutability": "nonpayable",
      "type": "function"
    },
    {
      "inputs": [
        {
          "internalType": "address",
          "name": "",
          "type": "address"
        }
      ],
      "name": "authorizedMinters",
      "outputs": [
        {
          "internalType": "bool",
          "name": "",
          "type": "bool"
        }
      ],
      "stateMutability": "view",
      "type": "function"
    },
    {
      "inputs": [
        {
          "internalType": "address",
          "name": "owner",
          "type": "address"
        }
      ],
      "name": "balanceOf",
      "outputs": [
        {
          "internalType": "uint256",
          "name": "",
          "type": "uint256"
        }
      ],
      "stateMutability": "view",
      "type": "function"
    },
    {
      "inputs": [
        {
          "internalType": "address",
          "name": "to",
          "type": "address"
        },
        {
          "internalType": "string[]",
          "name": "tokenURIs",
          "type": "string[]"
        }
      ],
      "name": "batchMint",
      "outputs": [
        {
          "internalType": "uint256[]",
          "name": "",
          "type": "uint256[]"
        }
      ],
      "stateMutability": "nonpayable",
      "type": "function"
    },
    {
      "inputs": [
        {
          "internalType": "uint256",
          "name": "tokenId",
          "type": "uint256"
        }
      ],
      "name": "getApproved",
      "outputs": [
        {
          "internalType": "address",
          "name": "",
          "type": "address"
        }
      ],
      "stateMutability": "view",
      "type": "function"
    },
    {
      "inputs": [
        {
          "internalType": "address",
          "name": "owner",
          "type": "address"
        },
        {
          "internalType": "address",
          "name": "operator",
          "type": "address"
        }
      ],
      "name": "isApprovedForAll",
      "outputs": [
        {
          "internalType": "bool",
          "name": "",
          "type": "bool"
        }
      ],
      "stateMutability": "view",
      "type": "function"
    },
    {
      "inputs": [
        {
          "internalType": "address",
          "name": "to",
          "type": "address"
        },
        {
          "internalType": "string",
          "name": "tokenURI",
          "type": "string"
        }
      ],
      "name": "mint",
      "outputs": [
        {
          "internalType": "uint256",
          "name": "",
          "type": "uint256"
        }
      ],
      "stateMutability": "nonpayable",
      "type": "function"
    },
    {
      "inputs": [],
      "name": "name",
      "outputs": [
        {
          "internalType": "string",
          "name": "",
          "type": "string"
        }
      ],
      "stateMutability": "view",
      "type": "function"
    },
    {
      "inputs": [],
      "name": "owner",
      "outputs": [
        {
          "internalType": "address",
          "name": "",
          "type": "address"
        }
      ],
      "stateMutability": "view",
      "type": "function"
    },
    {
      "inputs": [
        {
          "internalType": "uint256",
          "name": "tokenId",
          "type": "uint256"
        }
      ],
      "name": "ownerOf",
      "outputs": [
        {
          "internalType": "address",
          "name": "",
          "type": "address"
        }
      ],
      "stateMutability": "view",
      "type": "function"
    },
    {
      "inputs": [],
      "name": "renounceOwnership",
      "outputs": [],
      "stateMutability": "nonpayable",
      "type": "function"
    },
    {
      "inputs": [
        {
          "internalType": "address",
          "name": "from",
          "type": "address"
        },
        {
          "internalType": "address",
          "name": "to",
          "type": "address"
        },
        {
          "internalType": "uint256",
          "name": "tokenId",
          "type": "uint256"
        }
      ],
      "name": "safeTransferFrom",
      "outputs": [],
      "stateMutability": "nonpayable",
      "type": "function"
    },
    {
      "inputs": [
        {
          "internalType": "address",
          "name": "from",
          "type": "address"
        },
        {
          "internalType": "address",
          "name": "to",
          "type": "address"
        },
        {
          "internalType": "uint256",
          "name": "tokenId",
          "type": "uint256"
        },
        {
          "internalType": "bytes",
          "name": "data",
          "type": "bytes"
        }
      ],
      "name": "safeTransferFrom",
      "outputs": [],
      "stateMutability": "nonpayable",
      "type": "function"
    },
    {
      "inputs": [
        {
          "internalType": "address",
          "name": "operator",
          "type": "address"
        },
        {
          "internalType": "bool",
          "name": "approved",
          "type": "bool"
        }
      ],
      "name": "setApprovalForAll",
      "outputs": [],
      "stateMutability": "nonpayable",
      "type": "function"
    },
    {
      "inputs": [
        {
          "internalType": "string",
          "name": "baseURI",
          "type": "string"
        }
      ],
      "name": "setBaseURI",
      "outputs": [],
      "stateMutability": "nonpayable",
      "type": "function"
    },
    {
      "inputs": [
        {
          "internalType": "address",
          "name": "minter",
          "type": "address"
        },
        {
          "internalType": "bool",
          "name": "authorized",
          "type": "bool"
        }
      ],
      "name": "setMinterAuthorization",
      "outputs": [],
      "stateMutability": "nonpayable",
      "type": "function"
    },
    {
      "inputs": [
        {
          "internalType": "bytes4",
          "name": "interfaceId",
          "type": "bytes4"
        }
      ],
      "name": "supportsInterface",
      "outputs": [
        {
          "internalType": "bool",
          "name": "",
          "type": "bool"
        }
      ],
      "stateMutability": "view",
      "type": "function"
    },
    {
      "inputs": [],
      "name": "symbol",
      "outputs": [
        {
          "internalType": "string",
          "name": "",
          "type": "string"
        }
      ],
      "stateMutability": "view",
      "type": "function"
    },
    {
      "inputs": [
        {
          "internalType": "uint256",
          "name": "index",
          "type": "uint256"
        }
      ],
      "name": "tokenByIndex",
      "outputs": [
        {
          "internalType": "uint256",
          "name": "",
          "type": "uint256"
        }
      ],
      "stateMutability": "view",
      "type": "function"
    },
    {
      "inputs": [
        {
          "internalType": "address",
          "name": "owner",
          "type": "address"
        },
        {
          "internalType": "uint256",
          "name": "index",
          "type": "uint256"
        }
      ],
      "name": "tokenOfOwnerByIndex",
      "outputs": [
        {
          "internalType": "uint256",
          "name": "",
          "type": "uint256"
        }
      ],
      "stateMutability": "view",
      "type": "function"
    },
    {
      "inputs": [
        {
          "internalType": "uint256",
          "name": "tokenId",
          "type": "uint256"
        }
      ],
      "name": "tokenURI",
      "outputs": [
        {
          "internalType": "string",
          "name": "",
          "type": "string"
        }
      ],
      "stateMutability": "view",
      "type": "function"
    },
    {
      "inputs": [],
      "name": "totalSupply",
      "outputs": [
        {
          "internalType": "uint256",
          "name": "",
          "type": "uint256"
        }
      ],
      "stateMutability": "view",
      "type": "function"
    },
    {
      "inputs": [
        {
          "internalType": "address",
          "name": "from",
          "type": "address"
        },
        {
          "internalType": "address",
          "name": "to",
          "type": "address"
        },
        {
          "internalType": "uint256",
          "name": "tokenId",
          "type": "uint256"
        }
      ],
      "name": "transferFrom",
      "outputs": [],
      "stateMutability": "nonpayable",
      "type": "function"
    },
    {
      "inputs": [
        {
          "internalType": "address",
          "name": "newOwner",
          "type": "address"
        }
      ],
      "name": "transferOwnership",
      "outputs": [],
      "stateMutability": "nonpayable",
      "type": "function"
    }
  ],
  "bytecode": "0x608060405234801562000010575f80fd5b5060405162003aee38038062003aee833981810160405281019062000036919062000346565b338383815f908162000049919062000633565b5080600190816200005b919062000633565b5050505f73ffffffffffffffffffffffffffffffffffffffff168173ffffffffffffffffffffffffffffffffffffffff1603620000d1575f6040517f1e4fbdf7000000000000000000000000000000000000000000000000000000008152600401620000c891906200075a565b60405180910390fd5b620000e281620000fe60201b60201c565b5080600d9081620000f4919062000633565b5050505062000775565b5f600b5f9054906101000a900473ffffffffffffffffffffffffffffffffffffffff16905081600b5f6101000a81548173ffffffffffffffffffffffffffffffffffffffff021916908373ffffffffffffffffffffffffffffffffffffffff1602179055508173ffffffffffffffffffffffffffffffffffffffff168173ffffffffffffffffffffffffffffffffffffffff167f8be0079c531659141344cd1fd0a4f28419497f9722a3daafe3b4186f6b6457e060405160405180910390a35050565b5f604051905090565b5f80fd5b5f80fd5b5f80fd5b5f80fd5b5f601f19601f8301169050919050565b7f4e487b71000000000000000000000000000000000000000000000000000000005f52604160045260245ffd5b6200022282620001da565b810181811067ffffffffffffffff82111715620002445762000243620001ea565b5b80604052505050565b5f62000258620001c1565b905062000266828262000217565b919050565b5f67ffffffffffffffff821115620002885762000287620001ea565b5b6200029382620001da565b9050602081019050919050565b5f5b83811015620002bf578082015181840152602081019050620002a2565b5f8484015250505050565b5f620002e0620002da846200026b565b6200024d565b905082815260208101848484011115620002ff57620002fe620001d6565b5b6200030c848285620002a0565b509392505050565b5f82601f8301126200032b576200032a620001d2565b5b81516200033d848260208601620002ca565b91505092915050565b5f805f6060848603121562000360576200035f620001ca565b5b5f84015167ffffffffffffffff81111562000380576200037f620001ce565b5b6200038e8682870162000314565b935050602084015167ffffffffffffffff811115620003b257620003b1620001ce565b5b620003c08682870162000314565b925050604084015167ffffffffffffffff811115620003e457620003e3620001ce565b5b620003f28682870162000314565b9150509250925092565b5f81519050919050565b7f4e487b71000000000000000000000000000000000000000000000000000000005f52602260045260245ffd5b5f60028204905060018216806200044b57607f821691505b60208210810362000461576200046062000406565b5b50919050565b5f819050815f5260205f209050919050565b5f6020601f8301049050919050565b5f82821b905092915050565b5f60088302620004c57fffffffffffffffffffffffffffffffffffffffffffffffffffffffffffffffff8262000488565b620004d1868362000488565b95508019841693508086168417925050509392505050565b5f819050919050565b5f819050919050565b5f6200051b620005156200050f84620004e9565b620004f2565b620004e9565b9050919050565b5f819050919050565b6200053683620004fb565b6200054e620005458262000522565b84845462000494565b825550505050565b5f90565b6200056462000556565b620005718184846200052b565b505050565b5b8181101562000598576200058c5f826200055a565b60018101905062000577565b5050565b601f821115620005e757620005b18162000467565b620005bc8462000479565b81016020851015620005cc578190505b620005e4620005db8562000479565b83018262000576565b50505b505050565b5f82821c905092915050565b5f620006095f1984600802620005ec565b1980831691505092915050565b5f620006238383620005f8565b9150826002028217905092915050565b6200063e82620003fc565b67ffffffffffffffff8111156200065a5762000659620001ea565b5b62000666825462000433565b620006738282856200059c565b5f60209050601f831160018114620006a9575f841562000694578287015190505b620006a0858262000616565b8655506200070f565b601f198416620006b98662000467565b5f5b82811015620006e257848901518255600182019150602085019450602081019050620006bb565b86831015620007025784890151620006fe601f891682620005f8565b8355505b6001600288020188555050505b505050505050565b5f73ffffffffffffffffffffffffffffffffffffffff82169050919050565b5f620007428262000717565b9050919050565b620007548162000736565b82525050565b5f6020820190506200076f5f83018462000749565b92915050565b61336b80620007835f395ff3fe608060405234801561000f575f80fd5b5060043610610156575f3560e01c806370a08231116100c1578063b88d4fde1161007a578063b88d4fde146103d4578063c87b56dd146103f0578063d0def52114610420578063e985e9c514610450578063f2f18baa14610480578063f2fde38b146104b057610156565b806370a0823114610312578063715018a6146103425780638da5cb5b1461034c57806395d89b411461036a578063a22cb46514610388578063aa2fe91b146103a457610156565b80632f745c59116101135780632f745c591461022e578063378c2b861461025e57806342842e0e1461027a5780634f6ccce71461029657806355f804b3146102c65780636352211e146102e257610156565b806301ffc9a71461015a57806306fdde031461018a578063081812fc146101a8578063095ea7b3146101d857806318160ddd146101f457806323b872dd14610212575b5f80fd5b610174600480360381019061016f91906124d5565b6104cc565b604051610181919061251a565b60405180910390f35b6101926104dd565b60405161019f91906125bd565b60405180910390f35b6101c260048036038101906101bd9190612610565b61056c565b6040516101cf919061267a565b60405180910390f35b6101f260048036038101906101ed91906126bd565b610587565b005b6101fc61059d565b604051610209919061270a565b60405180910390f35b61022c60048036038101906102279190612723565b6105a9565b005b610248600480360381019061024391906126bd565b6106a8565b604051610255919061270a565b60405180910390f35b6102786004803603810190610273919061279d565b61074c565b005b610294600480360381019061028f9190612723565b6107fa565b005b6102b060048036038101906102ab9190612610565b610819565b6040516102bd919061270a565b60405180910390f35b6102e060048036038101906102db9190612907565b61088b565b005b6102fc60048036038101906102f79190612610565b6108a6565b604051610309919061267a565b60405180910390f35b61032c6004803603810190610327919061294e565b6108b7565b604051610339919061270a565b60405180910390f35b61034a61096d565b005b610354610980565b604051610361919061267a565b60405180910390f35b6103726109a8565b60405161037f91906125bd565b60405180910390f35b6103a2600480360381019061039d919061279d565b610a38565b005b6103be60048036038101906103b9919061294e565b610a4e565b6040516103cb919061251a565b60405180910390f35b6103ee60048036038101906103e99190612a17565b610a6b565b005b61040a60048036038101906104059190612610565b610a90565b60405161041791906125bd565b60405180910390f35b61043a60048036038101906104359190612a97565b610aa2565b604051610447919061270a565b60405180910390f35b61046a60048036038101906104659190612af1565b610ba0565b604051610477919061251a565b60405180910390f35b61049a60048036038101906104959190612c11565b610c2e565b6040516104a79190612d22565b60405180910390f35b6104ca60048036038101906104c5919061294e565b610dd4565b005b5f6104d682610e58565b9050919050565b60605f80546104eb90612d6f565b80601f016020809104026020016040519081016040528092919081815260200182805461051790612d6f565b80156105625780601f1061053957610100808354040283529160200191610562565b820191905f5260205f20905b81548152906001019060200180831161054557829003601f168201915b5050505050905090565b5f61057682610ed1565b5061058082610f57565b9050919050565b6105998282610594610f90565b610f97565b5050565b5f600980549050905090565b5f73ffffffffffffffffffffffffffffffffffffffff168273ffffffffffffffffffffffffffffffffffffffff1603610619575f6040517f64a0ae92000000000000000000000000000000000000000000000000000000008152600401610610919061267a565b60405180910390fd5b5f61062c8383610627610f90565b610fa9565b90508373ffffffffffffffffffffffffffffffffffffffff168173ffffffffffffffffffffffffffffffffffffffff16146106a2578382826040517f64283d7b00000000000000000000000000000000000000000000000000000000815260040161069993929190612d9f565b60405180910390fd5b50505050565b5f6106b2836108b7565b82106106f75782826040517fa57d13dc0000000000000000000000000000000000000000000000000000000081526004016106ee929190612dd4565b60405180910390fd5b60075f8473ffffffffffffffffffffffffffffffffffffffff1673ffffffffffffffffffffffffffffffffffffffff1681526020019081526020015f205f8381526020019081526020015f2054905092915050565b610754610fbe565b80600e5f8473ffffffffffffffffffffffffffffffffffffffff1673ffffffffffffffffffffffffffffffffffffffff1681526020019081526020015f205f6101000a81548160ff0219169083151502179055508173ffffffffffffffffffffffffffffffffffffffff167f9041c22ed79d1c19c69cc22fd9e38c93da4f2dd8cd32580594e232a8a18541cb826040516107ee919061251a565b60405180910390a25050565b61081483838360405180602001604052805f815250610a6b565b505050565b5f61082261059d565b8210610867575f826040517fa57d13dc00000000000000000000000000000000000000000000000000000000815260040161085e929190612dd4565b60405180910390fd5b6009828154811061087b5761087a612dfb565b5b905f5260205f2001549050919050565b610893610fbe565b80600d90816108a29190612fc5565b5050565b5f6108b082610ed1565b9050919050565b5f8073ffffffffffffffffffffffffffffffffffffffff168273ffffffffffffffffffffffffffffffffffffffff1603610928575f6040517f89c62b6400000000000000000000000000000000000000000000000000000000815260040161091f919061267a565b60405180910390fd5b60035f8373ffffffffffffffffffffffffffffffffffffffff1673ffffffffffffffffffffffffffffffffffffffff1681526020019081526020015f20549050919050565b610975610fbe565b61097e5f611045565b565b5f600b5f9054906101000a900473ffffffffffffffffffffffffffffffffffffffff16905090565b6060600180546109b790612d6f565b80601f01602080910402602001604051908101604052809291908181526020018280546109e390612d6f565b8015610a2e5780601f10610a0557610100808354040283529160200191610a2e565b820191905f5260205f20905b815481529060010190602001808311610a1157829003601f168201915b5050505050905090565b610a4a610a43610f90565b8383611108565b5050565b600e602052805f5260405f205f915054906101000a900460ff1681565b610a768484846105a9565b610a8a610a81610f90565b85858585611271565b50505050565b6060610a9b8261141d565b9050919050565b5f610aab610980565b73ffffffffffffffffffffffffffffffffffffffff163373ffffffffffffffffffffffffffffffffffffffff161480610b2a5750600e5f3373ffffffffffffffffffffffffffffffffffffffff1673ffffffffffffffffffffffffffffffffffffffff1681526020019081526020015f205f9054906101000a900460ff165b610b69576040517f08c379a0000000000000000000000000000000000000000000000000000000008152600401610b60906130de565b60405180910390fd5b5f600c5f815480929190610b7c90613129565b919050559050610b8c8482611528565b610b968184611545565b8091505092915050565b5f60055f8473ffffffffffffffffffffffffffffffffffffffff1673ffffffffffffffffffffffffffffffffffffffff1681526020019081526020015f205f8373ffffffffffffffffffffffffffffffffffffffff1673ffffffffffffffffffffffffffffffffffffffff1681526020019081526020015f205f9054906101000a900460ff16905092915050565b6060610c38610980565b73ffffffffffffffffffffffffffffffffffffffff163373ffffffffffffffffffffffffffffffffffffffff161480610cb75750600e5f3373ffffffffffffffffffffffffffffffffffffffff1673ffffffffffffffffffffffffffffffffffffffff1681526020019081526020015f205f9054906101000a900460ff165b610cf6576040517f08c379a0000000000000000000000000000000000000000000000000000000008152600401610ced906130de565b60405180910390fd5b5f825167ffffffffffffffff811115610d1257610d116127e3565b5b604051908082528060200260200182016040528015610d405781602001602082028036833780820191505090505b5090505f5b8351811015610dc9575f600c5f815480929190610d6190613129565b919050559050610d718682611528565b610d9581868481518110610d8857610d87612dfb565b5b6020026020010151611545565b80838381518110610da957610da8612dfb565b5b602002602001018181525050508080610dc190613129565b915050610d45565b508091505092915050565b610ddc610fbe565b5f73ffffffffffffffffffffffffffffffffffffffff168173ffffffffffffffffffffffffffffffffffffffff1603610e4c575f6040517f1e4fbdf7000000000000000000000000000000000000000000000000000000008152600401610e43919061267a565b60405180910390fd5b610e5581611045565b50565b5f7f780e9d63000000000000000000000000000000000000000000000000000000007bffffffffffffffffffffffffffffffffffffffffffffffffffffffff1916827bffffffffffffffffffffffffffffffffffffffffffffffffffffffff19161480610eca5750610ec98261159f565b5b9050919050565b5f80610edc836115ff565b90505f73ffffffffffffffffffffffffffffffffffffffff168173ffffffffffffffffffffffffffffffffffffffff1603610f4e57826040517f7e273289000000000000000000000000000000000000000000000000000000008152600401610f45919061270a565b60405180910390fd5b80915050919050565b5f60045f8381526020019081526020015f205f9054906101000a900473ffffffffffffffffffffffffffffffffffffffff169050919050565b5f33905090565b610fa48383836001611638565b505050565b5f610fb58484846117f7565b90509392505050565b610fc6610f90565b73ffffffffffffffffffffffffffffffffffffffff16610fe4610980565b73ffffffffffffffffffffffffffffffffffffffff161461104357611007610f90565b6040517f118cdaa700000000000000000000000000000000000000000000000000000000815260040161103a919061267a565b60405180910390fd5b565b5f600b5f9054906101000a900473ffffffffffffffffffffffffffffffffffffffff16905081600b5f6101000a81548173ffffffffffffffffffffffffffffffffffffffff021916908373ffffffffffffffffffffffffffffffffffffffff1602179055508173ffffffffffffffffffffffffffffffffffffffff168173ffffffffffffffffffffffffffffffffffffffff167f8be0079c531659141344cd1fd0a4f28419497f9722a3daafe3b4186f6b6457e060405160405180910390a35050565b5f73ffffffffffffffffffffffffffffffffffffffff168273ffffffffffffffffffffffffffffffffffffffff160361117857816040517f5b08ba1800000000000000000000000000000000000000000000000000000000815260040161116f919061267a565b60405180910390fd5b8060055f8573ffffffffffffffffffffffffffffffffffffffff1673ffffffffffffffffffffffffffffffffffffffff1681526020019081526020015f205f8473ffffffffffffffffffffffffffffffffffffffff1673ffffffffffffffffffffffffffffffffffffffff1681526020019081526020015f205f6101000a81548160ff0219169083151502179055508173ffffffffffffffffffffffffffffffffffffffff168373ffffffffffffffffffffffffffffffffffffffff167f17307eab39ab6107e8899845ad3d59bd9653f200f220920489ca2b5937696c3183604051611264919061251a565b60405180910390a3505050565b5f8373ffffffffffffffffffffffffffffffffffffffff163b1115611416578273ffffffffffffffffffffffffffffffffffffffff1663150b7a02868685856040518563ffffffff1660e01b81526004016112cf94939291906131c2565b6020604051808303815f875af192505050801561130a57506040513d601f19601f820116820180604052508101906113079190613220565b60015b61138b573d805f8114611338576040519150601f19603f3d011682016040523d82523d5f602084013e61133d565b606091505b505f81510361138357836040517f64a0ae9200000000000000000000000000000000000000000000000000000000815260040161137a919061267a565b60405180910390fd5b805160208201fd5b63150b7a0260e01b7bffffffffffffffffffffffffffffffffffffffffffffffffffffffff1916817bffffffffffffffffffffffffffffffffffffffffffffffffffffffff19161461141457836040517f64a0ae9200000000000000000000000000000000000000000000000000000000815260040161140b919061267a565b60405180910390fd5b505b5050505050565b606061142882610ed1565b505f60065f8481526020019081526020015f20805461144690612d6f565b80601f016020809104026020016040519081016040528092919081815260200182805461147290612d6f565b80156114bd5780601f10611494576101008083540402835291602001916114bd565b820191905f5260205f20905b8154815290600101906020018083116114a057829003601f168201915b505050505090505f6114cd611911565b90505f8151036114e1578192505050611523565b5f825111156115155780826040516020016114fd929190613285565b60405160208183030381529060405292505050611523565b61151e846119a1565b925050505b919050565b611541828260405180602001604052805f815250611a07565b5050565b8060065f8481526020019081526020015f2090816115639190612fc5565b507ff8e1a15aba9398e019f0b49df1a4fde98ee17ae345cb5f6b5e2c27f5033e8ce782604051611593919061270a565b60405180910390a15050565b5f634906490660e01b7bffffffffffffffffffffffffffffffffffffffffffffffffffffffff1916827bffffffffffffffffffffffffffffffffffffffffffffffffffffffff191614806115f857506115f782611a2a565b5b9050919050565b5f60025f8381526020019081526020015f205f9054906101000a900473ffffffffffffffffffffffffffffffffffffffff169050919050565b808061167057505f73ffffffffffffffffffffffffffffffffffffffff168273ffffffffffffffffffffffffffffffffffffffff1614155b156117a2575f61167f84610ed1565b90505f73ffffffffffffffffffffffffffffffffffffffff168373ffffffffffffffffffffffffffffffffffffffff16141580156116e957508273ffffffffffffffffffffffffffffffffffffffff168173ffffffffffffffffffffffffffffffffffffffff1614155b80156116fc57506116fa8184610ba0565b155b1561173e57826040517fa9fbf51f000000000000000000000000000000000000000000000000000000008152600401611735919061267a565b60405180910390fd5b81156117a057838573ffffffffffffffffffffffffffffffffffffffff168273ffffffffffffffffffffffffffffffffffffffff167f8c5be1e5ebec7d5bd14f71427d1e84f3dd0314c0f7b2291e5b200ac8c7c3b92560405160405180910390a45b505b8360045f8581526020019081526020015f205f6101000a81548173ffffffffffffffffffffffffffffffffffffffff021916908373ffffffffffffffffffffffffffffffffffffffff16021790555050505050565b5f80611804858585611b0b565b90505f73ffffffffffffffffffffffffffffffffffffffff168173ffffffffffffffffffffffffffffffffffffffff16036118475761184284611d16565b611886565b8473ffffffffffffffffffffffffffffffffffffffff168173ffffffffffffffffffffffffffffffffffffffff1614611885576118848185611d5a565b5b5b5f73ffffffffffffffffffffffffffffffffffffffff168573ffffffffffffffffffffffffffffffffffffffff16036118c7576118c284611e31565b611906565b8473ffffffffffffffffffffffffffffffffffffffff168173ffffffffffffffffffffffffffffffffffffffff1614611905576119048585611ef1565b5b5b809150509392505050565b6060600d805461192090612d6f565b80601f016020809104026020016040519081016040528092919081815260200182805461194c90612d6f565b80156119975780601f1061196e57610100808354040283529160200191611997565b820191905f5260205f20905b81548152906001019060200180831161197a57829003601f168201915b5050505050905090565b60606119ac82610ed1565b505f6119b6611911565b90505f8151116119d45760405180602001604052805f8152506119ff565b806119de84611f75565b6040516020016119ef929190613285565b6040516020818303038152906040525b915050919050565b611a11838361203f565b611a25611a1c610f90565b5f858585611271565b505050565b5f7f80ac58cd000000000000000000000000000000000000000000000000000000007bffffffffffffffffffffffffffffffffffffffffffffffffffffffff1916827bffffffffffffffffffffffffffffffffffffffffffffffffffffffff19161480611af457507f5b5e139f000000000000000000000000000000000000000000000000000000007bffffffffffffffffffffffffffffffffffffffffffffffffffffffff1916827bffffffffffffffffffffffffffffffffffffffffffffffffffffffff1916145b80611b045750611b0382612132565b5b9050919050565b5f80611b16846115ff565b90505f73ffffffffffffffffffffffffffffffffffffffff168373ffffffffffffffffffffffffffffffffffffffff1614611b5757611b5681848661219b565b5b5f73ffffffffffffffffffffffffffffffffffffffff168173ffffffffffffffffffffffffffffffffffffffff1614611be257611b965f855f80611638565b600160035f8373ffffffffffffffffffffffffffffffffffffffff1673ffffffffffffffffffffffffffffffffffffffff1681526020019081526020015f205f82825403925050819055505b5f73ffffffffffffffffffffffffffffffffffffffff168573ffffffffffffffffffffffffffffffffffffffff1614611c6157600160035f8773ffffffffffffffffffffffffffffffffffffffff1673ffffffffffffffffffffffffffffffffffffffff1681526020019081526020015f205f82825401925050819055505b8460025f8681526020019081526020015f205f6101000a81548173ffffffffffffffffffffffffffffffffffffffff021916908373ffffffffffffffffffffffffffffffffffffffff160217905550838573ffffffffffffffffffffffffffffffffffffffff168273ffffffffffffffffffffffffffffffffffffffff167fddf252ad1be2c89b69c2b068fc378daa952ba7f163c4a11628f55a4df523b3ef60405160405180910390a4809150509392505050565b600980549050600a5f8381526020019081526020015f2081905550600981908060018154018082558091505060019003905f5260205f20015f909190919091505550565b5f611d64836108b7565b90505f60085f8481526020019081526020015f205490505f60075f8673ffffffffffffffffffffffffffffffffffffffff1673ffffffffffffffffffffffffffffffffffffffff1681526020019081526020015f209050828214611e03575f815f8581526020019081526020015f2054905080825f8581526020019081526020015f20819055508260085f8381526020019081526020015f2081905550505b60085f8581526020019081526020015f205f9055805f8481526020019081526020015f205f90555050505050565b5f6001600980549050611e4491906132a8565b90505f600a5f8481526020019081526020015f205490505f60098381548110611e7057611e6f612dfb565b5b905f5260205f20015490508060098381548110611e9057611e8f612dfb565b5b905f5260205f20018190555081600a5f8381526020019081526020015f2081905550600a5f8581526020019081526020015f205f90556009805480611ed857611ed76132db565b5b600190038181905f5260205f20015f9055905550505050565b5f6001611efd846108b7565b611f0791906132a8565b90508160075f8573ffffffffffffffffffffffffffffffffffffffff1673ffffffffffffffffffffffffffffffffffffffff1681526020019081526020015f205f8381526020019081526020015f20819055508060085f8481526020019081526020015f2081905550505050565b60605f6001611f838461225e565b0190505f8167ffffffffffffffff811115611fa157611fa06127e3565b5b6040519080825280601f01601f191660200182016040528015611fd35781602001600182028036833780820191505090505b5090505f82602083010190505b600115612034578080600190039150507f3031323334353637383961626364656600000000000000000000000000000000600a86061a8153600a858161202957612028613308565b5b0494505f8503611fe0575b819350505050919050565b5f73ffffffffffffffffffffffffffffffffffffffff168273ffffffffffffffffffffffffffffffffffffffff16036120af575f6040517f64a0ae920000000000000000000000000000000000000000000000000000000081526004016120a6919061267a565b60405180910390fd5b5f6120bb83835f610fa9565b90505f73ffffffffffffffffffffffffffffffffffffffff168173ffffffffffffffffffffffffffffffffffffffff161461212d575f6040517f73c6ac6e000000000000000000000000000000000000000000000000000000008152600401612124919061267a565b60405180910390fd5b505050565b5f7f01ffc9a7000000000000000000000000000000000000000000000000000000007bffffffffffffffffffffffffffffffffffffffffffffffffffffffff1916827bffffffffffffffffffffffffffffffffffffffffffffffffffffffff1916149050919050565b6121a68383836123af565b612259575f73ffffffffffffffffffffffffffffffffffffffff168373ffffffffffffffffffffffffffffffffffffffff160361221a57806040517f7e273289000000000000000000000000000000000000000000000000000000008152600401612211919061270a565b60405180910390fd5b81816040517f177e802f000000000000000000000000000000000000000000000000000000008152600401612250929190612dd4565b60405180910390fd5b505050565b5f805f90507a184f03e93ff9f4daa797ed6e38ed64bf6a1f01000000000000000083106122ba577a184f03e93ff9f4daa797ed6e38ed64bf6a1f01000000000000000083816122b0576122af613308565b5b0492506040810190505b6d04ee2d6d415b85acef810000000083106122f7576d04ee2d6d415b85acef810000000083816122ed576122ec613308565b5b0492506020810190505b662386f26fc10000831061232657662386f26fc10000838161231c5761231b613308565b5b0492506010810190505b6305f5e100831061234f576305f5e100838161234557612344613308565b5b0492506008810190505b612710831061237457612710838161236a57612369613308565b5b0492506004810190505b60648310612397576064838161238d5761238c613308565b5b0492506002810190505b600a83106123a6576001810190505b80915050919050565b5f8073ffffffffffffffffffffffffffffffffffffffff168373ffffffffffffffffffffffffffffffffffffffff161415801561246657508273ffffffffffffffffffffffffffffffffffffffff168473ffffffffffffffffffffffffffffffffffffffff16148061242757506124268484610ba0565b5b8061246557508273ffffffffffffffffffffffffffffffffffffffff1661244d83610f57565b73ffffffffffffffffffffffffffffffffffffffff16145b5b90509392505050565b5f604051905090565b5f80fd5b5f80fd5b5f7fffffffff0000000000000000000000000000000000000000000000000000000082169050919050565b6124b481612480565b81146124be575f80fd5b50565b5f813590506124cf816124ab565b92915050565b5f602082840312156124ea576124e9612478565b5b5f6124f7848285016124c1565b91505092915050565b5f8115159050919050565b61251481612500565b82525050565b5f60208201905061252d5f83018461250b565b92915050565b5f81519050919050565b5f82825260208201905092915050565b5f5b8381101561256a57808201518184015260208101905061254f565b5f8484015250505050565b5f601f19601f8301169050919050565b5f61258f82612533565b612599818561253d565b93506125a981856020860161254d565b6125b281612575565b840191505092915050565b5f6020820190508181035f8301526125d58184612585565b905092915050565b5f819050919050565b6125ef816125dd565b81146125f9575f80fd5b50565b5f8135905061260a816125e6565b92915050565b5f6020828403121561262557612624612478565b5b5f612632848285016125fc565b91505092915050565b5f73ffffffffffffffffffffffffffffffffffffffff82169050919050565b5f6126648261263b565b9050919050565b6126748161265a565b82525050565b5f60208201905061268d5f83018461266b565b92915050565b61269c8161265a565b81146126a6575f80fd5b50565b5f813590506126b781612693565b92915050565b5f80604083850312156126d3576126d2612478565b5b5f6126e0858286016126a9565b92505060206126f1858286016125fc565b9150509250929050565b612704816125dd565b82525050565b5f60208201905061271d5f8301846126fb565b92915050565b5f805f6060848603121561273a57612739612478565b5b5f612747868287016126a9565b9350506020612758868287016126a9565b9250506040612769868287016125fc565b9150509250925092565b61277c81612500565b8114612786575f80fd5b50565b5f8135905061279781612773565b92915050565b5f80604083850312156127b3576127b2612478565b5b5f6127c0858286016126a9565b92505060206127d185828601612789565b9150509250929050565b5f80fd5b5f80fd5b7f4e487b71000000000000000000000000000000000000000000000000000000005f52604160045260245ffd5b61281982612575565b810181811067ffffffffffffffff82111715612838576128376127e3565b5b80604052505050565b5f61284a61246f565b90506128568282612810565b919050565b5f67ffffffffffffffff821115612875576128746127e3565b5b61287e82612575565b9050602081019050919050565b828183375f83830152505050565b5f6128ab6128a68461285b565b612841565b9050828152602081018484840111156128c7576128c66127df565b5b6128d284828561288b565b509392505050565b5f82601f8301126128ee576128ed6127db565b5b81356128fe848260208601612899565b91505092915050565b5f6020828403121561291c5761291b612478565b5b5f82013567ffffffffffffffff8111156129395761293861247c565b5b612945848285016128da565b91505092915050565b5f6020828403121561296357612962612478565b5b5f612970848285016126a9565b91505092915050565b5f67ffffffffffffffff821115612993576129926127e3565b5b61299c82612575565b9050602081019050919050565b5f6129bb6129b684612979565b612841565b9050828152602081018484840111156129d7576129d66127df565b5b6129e284828561288b565b509392505050565b5f82601f8301126129fe576129fd6127db565b5b8135612a0e8482602086016129a9565b91505092915050565b5f805f8060808587031215612a2f57612a2e612478565b5b5f612a3c878288016126a9565b9450506020612a4d878288016126a9565b9350506040612a5e878288016125fc565b925050606085013567ffffffffffffffff811115612a7f57612a7e61247c565b5b612a8b878288016129ea565b91505092959194509250565b5f8060408385031215612aad57612aac612478565b5b5f612aba858286016126a9565b925050602083013567ffffffffffffffff811115612adb57612ada61247c565b5b612ae7858286016128da565b9150509250929050565b5f8060408385031215612b0757612b06612478565b5b5f612b14858286016126a9565b9250506020612b25858286016126a9565b9150509250929050565b5f67ffffffffffffffff821115612b4957612b486127e3565b5b602082029050602081019050919050565b5f80fd5b5f612b70612b6b84612b2f565b612841565b90508083825260208201905060208402830185811115612b9357612b92612b5a565b5b835b81811015612bda57803567ffffffffffffffff811115612bb857612bb76127db565b5b808601612bc589826128da565b85526020850194505050602081019050612b95565b5050509392505050565b5f82601f830112612bf857612bf76127db565b5b8135612c08848260208601612b5e565b91505092915050565b5f8060408385031215612c2757612c26612478565b5b5f612c34858286016126a9565b925050602083013567ffffffffffffffff811115612c5557612c5461247c565b5b612c6185828601612be4565b9150509250929050565b5f81519050919050565b5f82825260208201905092915050565b5f819050602082019050919050565b612c9d816125dd565b82525050565b5f612cae8383612c94565b60208301905092915050565b5f602082019050919050565b5f612cd082612c6b565b612cda8185612c75565b9350612ce583612c85565b805f5b83811015612d15578151612cfc8882612ca3565b9750612d0783612cba565b925050600181019050612ce8565b5085935050505092915050565b5f6020820190508181035f830152612d3a8184612cc6565b905092915050565b7f4e487b71000000000000000000000000000000000000000000000000000000005f52602260045260245ffd5b5f6002820490506001821680612d8657607f821691505b602082108103612d9957612d98612d42565b5b50919050565b5f606082019050612db25f83018661266b565b612dbf60208301856126fb565b612dcc604083018461266b565b949350505050565b5f604082019050612de75f83018561266b565b612df460208301846126fb565b9392505050565b7f4e487b71000000000000000000000000000000000000000000000000000000005f52603260045260245ffd5b5f819050815f5260205f209050919050565b5f6020601f8301049050919050565b5f82821b905092915050565b5f60088302612e847fffffffffffffffffffffffffffffffffffffffffffffffffffffffffffffffff82612e49565b612e8e8683612e49565b95508019841693508086168417925050509392505050565b5f819050919050565b5f612ec9612ec4612ebf846125dd565b612ea6565b6125dd565b9050919050565b5f819050919050565b612ee283612eaf565b612ef6612eee82612ed0565b848454612e55565b825550505050565b5f90565b612f0a612efe565b612f15818484612ed9565b505050565b5b81811015612f3857612f2d5f82612f02565b600181019050612f1b565b5050565b601f821115612f7d57612f4e81612e28565b612f5784612e3a565b81016020851015612f66578190505b612f7a612f7285612e3a565b830182612f1a565b50505b505050565b5f82821c905092915050565b5f612f9d5f1984600802612f82565b1980831691505092915050565b5f612fb58383612f8e565b9150826002028217905092915050565b612fce82612533565b67ffffffffffffffff811115612fe757612fe66127e3565b5b612ff18254612d6f565b612ffc828285612f3c565b5f60209050601f83116001811461302d575f841561301b578287015190505b6130258582612faa565b86555061308c565b601f19841661303b86612e28565b5f5b828110156130625784890151825560018201915060208501945060208101905061303d565b8683101561307f578489015161307b601f891682612f8e565b8355505b6001600288020188555050505b505050505050565b7f51756573744e46543a204e6f7420617574686f72697a656420746f206d696e745f82015250565b5f6130c860208361253d565b91506130d382613094565b602082019050919050565b5f6020820190508181035f8301526130f5816130bc565b9050919050565b7f4e487b71000000000000000000000000000000000000000000000000000000005f52601160045260245ffd5b5f613133826125dd565b91507fffffffffffffffffffffffffffffffffffffffffffffffffffffffffffffffff8203613165576131646130fc565b5b600182019050919050565b5f81519050919050565b5f82825260208201905092915050565b5f61319482613170565b61319e818561317a565b93506131ae81856020860161254d565b6131b781612575565b840191505092915050565b5f6080820190506131d55f83018761266b565b6131e2602083018661266b565b6131ef60408301856126fb565b8181036060830152613201818461318a565b905095945050505050565b5f8151905061321a816124ab565b92915050565b5f6020828403121561323557613234612478565b5b5f6132428482850161320c565b91505092915050565b5f81905092915050565b5f61325f82612533565b613269818561324b565b935061327981856020860161254d565b80840191505092915050565b5f6132908285613255565b915061329c8284613255565b91508190509392505050565b5f6132b2826125dd565b91506132bd836125dd565b92508282039050818111156132d5576132d46130fc565b5b92915050565b7f4e487b71000000000000000000000000000000000000000000000000000000005f52603160045260245ffd5b7f4e487b71000000000000000000000000000000000000000000000000000000005f52601260045260245ffdfea2646970667358221220df1b787192ba07e1403c57ba88905ed03d77c478437d7e7248703eb2bb0efac564736f6c63430008140033",
  "linkReferences": {},
  "deployedLinkReferences": {},
  "immutableReferences": {},
  "inputSourceName": "project/contracts/QuestNFT.sol",
  "buildInfoId": "solc-0_8_20-8115a2b26f0c42eae4d86c307af58d6309d0e48a"
}