{
  "_format": "hh3-artifact-1",
  "contractName": "TokenFactory",
  "sourceName": "contracts/TokenFactory.sol",
  "abi": [
    {
      "anonymous": false,
      "inputs": [
        {
          "indexed": true,
          "internalType": "address",
          "name": "tokenAddress",
          "type": "address"
        },
        {
          "indexed": true,
          "internalType": "address",
          "name": "creator",
          "type": "address"
        },
        {
          "indexed": false,
          "internalType": "string",
          "name": "name",
          "type": "string"
        },
        {
          "indexed": false,
          "internalType": "string",
          "name": "symbol",
          "type": "string"
        },
        {
          "indexed": false,
          "internalType": "uint256",
          "name": "initialSupply",
          "type": "uint256"
        }
      ],
      "name": "TokenCreated",
      "type": "event"
    },
    {
      "inputs": [
        {
          "internalType": "string",
          "name": "name",
          "type": "string"
        },
        {
          "internalType": "string",
          "name": "symbol",
          "type": "string"
        },
        {
          "internalType": "uint8",
          "name": "decimalsValue",
          "type": "uint8"
        },
        {
          "internalType": "uint256",
          "name": "initialSupply",
          "type": "uint256"
        },
        {
          "internalType": "string",
          "name": "image",
          "type": "string"
        }
      ],
      "name": "createToken",
      "outputs": [
        {
          "internalType": "address",
          "name": "",
          "type": "address"
        }
      ],
      "stateMutability": "nonpayable",
      "type": "function"
    },
    {
      "inputs": [
        {
          "internalType": "address",
          "name": "",
          "type": "address"
        },
        {
          "internalType": "uint256",
          "name": "",
          "type": "uint256"
        }
      ],
      "name": "creatorTokens",
      "outputs": [
        {
          "internalType": "address",
          "name": "",
          "type": "address"
        }
      ],
      "stateMutability": "view",
      "type": "function"
    },
    {
      "inputs": [],
      "name": "getAllTokens",
      "outputs": [
        {
          "internalType": "address[]",
          "name": "",
          "type": "address[]"
        }
      ],
      "stateMutability": "view",
      "type": "function"
    },
    {
      "inputs": [],
      "name": "getTokenCount",
      "outputs": [
        {
          "internalType": "uint256",
          "name": "",
          "type": "uint256"
        }
      ],
      "stateMutability": "view",
      "type": "function"
    },
    {
      "inputs": [
        {
          "internalType": "address",
          "name": "creator",
          "type": "address"
        }
      ],
      "name": "getTokensByCreator",
      "outputs": [
        {
          "internalType": "address[]",
          "name": "",
          "type": "address[]"
        }
      ],
      "stateMutability": "view",
      "type": "function"
    },
    {
      "inputs": [
        {
          "internalType": "address",
          "name": "",
          "type": "address"
        }
      ],
      "name": "tokenInfo",
      "outputs": [
        {
          "internalType": "string",
          "name": "name",
          "type": "string"
        },
        {
          "internalType": "string",
          "name": "symbol",
          "type": "string"
        },
        {
          "internalType": "uint8",
          "name": "decimals",
          "type": "uint8"
        },
        {
          "internalType": "uint256",
          "name": "initialSupply",
          "type": "uint256"
        },
        {
          "internalType": "string",
          "name": "image",
          "type": "string"
        },
        {
          "internalType": "address",
          "name": "creator",
          "type": "address"
        },
        {
          "internalType": "uint256",
          "name": "createdAt",
          "type": "uint256"
        }
      ],
      "stateMutability": "view",
      "type": "function"
    },
    {
      "inputs": [
        {
          "internalType": "uint256",
          "name": "",
          "type": "uint256"
        }
      ],
      "name": "tokens",
      "outputs": [
        {
          "internalType": "address",
          "name": "",
          "type": "address"
        }
      ],
      "stateMutability": "view",
      "type": "function"
    }
  ],
  "bytecode": "0x608060405234801561000f575f80fd5b506132d28061001d5f395ff3fe608060405234801562000010575f80fd5b506004361062000086575f3560e01c806378a89567116200006157806378a895671462000118578063d5c71275146200013a578063db3fa4cc1462000170578063f5dab71114620001a65762000086565b80632a5c792a146200008a5780634f64b2be14620000ac5780636962f49e14620000e2575b5f80fd5b62000094620001e2565b604051620000a3919062000abe565b60405180910390f35b620000ca6004803603810190620000c4919062000b20565b6200026e565b604051620000d9919062000b61565b60405180910390f35b620001006004803603810190620000fa919062000c21565b620002a9565b6040516200010f919062000b61565b60405180910390f35b6200012262000686565b60405162000131919062000d1f565b60405180910390f35b62000158600480360381019062000152919062000d69565b62000691565b60405162000167919062000abe565b60405180910390f35b6200018e600480360381019062000188919062000d99565b6200075b565b6040516200019d919062000b61565b60405180910390f35b620001c46004803603810190620001be919062000d69565b620007a4565b604051620001d9979695949392919062000e83565b60405180910390f35b60605f8054806020026020016040519081016040528092919081815260200182805480156200026457602002820191905f5260205f20905b815f9054906101000a900473ffffffffffffffffffffffffffffffffffffffff1673ffffffffffffffffffffffffffffffffffffffff16815260200190600101908083116200021a575b5050505050905090565b5f81815481106200027d575f80fd5b905f5260205f20015f915054906101000a900473ffffffffffffffffffffffffffffffffffffffff1681565b5f80898989898989898933604051620002c290620009b7565b620002d69998979695949392919062000f53565b604051809103905ff080158015620002f0573d5f803e3d5ffd5b5090505f8190505f81908060018154018082558091505060019003905f5260205f20015f9091909190916101000a81548173ffffffffffffffffffffffffffffffffffffffff021916908373ffffffffffffffffffffffffffffffffffffffff16021790555060015f3373ffffffffffffffffffffffffffffffffffffffff1673ffffffffffffffffffffffffffffffffffffffff1681526020019081526020015f2081908060018154018082558091505060019003905f5260205f20015f9091909190916101000a81548173ffffffffffffffffffffffffffffffffffffffff021916908373ffffffffffffffffffffffffffffffffffffffff1602179055506040518060e001604052808c8c8080601f0160208091040260200160405190810160405280939291908181526020018383808284375f81840152601f19601f8201169050808301925050505050505081526020018a8a8080601f0160208091040260200160405190810160405280939291908181526020018383808284375f81840152601f19601f8201169050808301925050505050505081526020018860ff16815260200187815260200186868080601f0160208091040260200160405190810160405280939291908181526020018383808284375f81840152601f19601f8201169050808301925050505050505081526020013373ffffffffffffffffffffffffffffffffffffffff1681526020014281525060025f8373ffffffffffffffffffffffffffffffffffffffff1673ffffffffffffffffffffffffffffffffffffffff1681526020019081526020015f205f820151815f0190816200055891906200122a565b5060208201518160010190816200057091906200122a565b506040820151816002015f6101000a81548160ff021916908360ff160217905550606082015181600301556080820151816004019081620005b291906200122a565b5060a0820151816005015f6101000a81548173ffffffffffffffffffffffffffffffffffffffff021916908373ffffffffffffffffffffffffffffffffffffffff16021790555060c082015181600601559050503373ffffffffffffffffffffffffffffffffffffffff168173ffffffffffffffffffffffffffffffffffffffff167f6e6ae68e7d7d45fbd855c40d1eaafa8de46c5fbec3ee26f1af88730e400bc92c8d8d8d8d8c6040516200066d9594939291906200130e565b60405180910390a3809250505098975050505050505050565b5f8080549050905090565b606060015f8373ffffffffffffffffffffffffffffffffffffffff1673ffffffffffffffffffffffffffffffffffffffff1681526020019081526020015f208054806020026020016040519081016040528092919081815260200182805480156200074f57602002820191905f5260205f20905b815f9054906101000a900473ffffffffffffffffffffffffffffffffffffffff1673ffffffffffffffffffffffffffffffffffffffff168152602001906001019080831162000705575b50505050509050919050565b6001602052815f5260405f20818154811062000775575f80fd5b905f5260205f20015f915091509054906101000a900473ffffffffffffffffffffffffffffffffffffffff1681565b6002602052805f5260405f205f91509050805f018054620007c59062001033565b80601f0160208091040260200160405190810160405280929190818152602001828054620007f39062001033565b8015620008425780601f10620008185761010080835404028352916020019162000842565b820191905f5260205f20905b8154815290600101906020018083116200082457829003601f168201915b505050505090806001018054620008599062001033565b80601f0160208091040260200160405190810160405280929190818152602001828054620008879062001033565b8015620008d65780601f10620008ac57610100808354040283529160200191620008d6565b820191905f5260205f20905b815481529060010190602001808311620008b857829003601f168201915b505050505090806002015f9054906101000a900460ff1690806003015490806004018054620009059062001033565b80601f0160208091040260200160405190810160405280929190818152602001828054620009339062001033565b8015620009825780601f10620009585761010080835404028352916020019162000982565b820191905f5260205f20905b8154815290600101906020018083116200096457829003601f168201915b505050505090806005015f9054906101000a900473ffffffffffffffffffffffffffffffffffffffff16908060060154905087565b611f41806200135c83390190565b5f81519050919050565b5f82825260208201905092915050565b5f819050602082019050919050565b5f73ffffffffffffffffffffffffffffffffffffffff82169050919050565b5f62000a1982620009ee565b9050919050565b62000a2b8162000a0d565b82525050565b5f62000a3e838362000a20565b60208301905092915050565b5f602082019050919050565b5f62000a6282620009c5565b62000a6e8185620009cf565b935062000a7b83620009df565b805f5b8381101562000ab157815162000a95888262000a31565b975062000aa28362000a4a565b92505060018101905062000a7e565b5085935050505092915050565b5f6020820190508181035f83015262000ad8818462000a56565b905092915050565b5f80fd5b5f80fd5b5f819050919050565b62000afc8162000ae8565b811462000b07575f80fd5b50565b5f8135905062000b1a8162000af1565b92915050565b5f6020828403121562000b385762000b3762000ae0565b5b5f62000b478482850162000b0a565b91505092915050565b62000b5b8162000a0d565b82525050565b5f60208201905062000b765f83018462000b50565b92915050565b5f80fd5b5f80fd5b5f80fd5b5f8083601f84011262000ba05762000b9f62000b7c565b5b8235905067ffffffffffffffff81111562000bc05762000bbf62000b80565b5b60208301915083600182028301111562000bdf5762000bde62000b84565b5b9250929050565b5f60ff82169050919050565b62000bfd8162000be6565b811462000c08575f80fd5b50565b5f8135905062000c1b8162000bf2565b92915050565b5f805f805f805f8060a0898b03121562000c405762000c3f62000ae0565b5b5f89013567ffffffffffffffff81111562000c605762000c5f62000ae4565b5b62000c6e8b828c0162000b88565b9850985050602089013567ffffffffffffffff81111562000c945762000c9362000ae4565b5b62000ca28b828c0162000b88565b9650965050604062000cb78b828c0162000c0b565b945050606062000cca8b828c0162000b0a565b935050608089013567ffffffffffffffff81111562000cee5762000ced62000ae4565b5b62000cfc8b828c0162000b88565b92509250509295985092959890939650565b62000d198162000ae8565b82525050565b5f60208201905062000d345f83018462000d0e565b92915050565b62000d458162000a0d565b811462000d50575f80fd5b50565b5f8135905062000d638162000d3a565b92915050565b5f6020828403121562000d815762000d8062000ae0565b5b5f62000d908482850162000d53565b91505092915050565b5f806040838503121562000db25762000db162000ae0565b5b5f62000dc18582860162000d53565b925050602062000dd48582860162000b0a565b9150509250929050565b5f81519050919050565b5f82825260208201905092915050565b5f5b8381101562000e1757808201518184015260208101905062000dfa565b5f8484015250505050565b5f601f19601f8301169050919050565b5f62000e3e8262000dde565b62000e4a818562000de8565b935062000e5c81856020860162000df8565b62000e678162000e22565b840191505092915050565b62000e7d8162000be6565b82525050565b5f60e0820190508181035f83015262000e9d818a62000e32565b9050818103602083015262000eb3818962000e32565b905062000ec4604083018862000e72565b62000ed3606083018762000d0e565b818103608083015262000ee7818662000e32565b905062000ef860a083018562000b50565b62000f0760c083018462000d0e565b98975050505050505050565b828183375f83830152505050565b5f62000f2e838562000de8565b935062000f3d83858462000f13565b62000f488362000e22565b840190509392505050565b5f60c0820190508181035f83015262000f6e818b8d62000f21565b9050818103602083015262000f8581898b62000f21565b905062000f96604083018862000e72565b62000fa5606083018762000d0e565b818103608083015262000fba81858762000f21565b905062000fcb60a083018462000b50565b9a9950505050505050505050565b7f4e487b71000000000000000000000000000000000000000000000000000000005f52604160045260245ffd5b7f4e487b71000000000000000000000000000000000000000000000000000000005f52602260045260245ffd5b5f60028204905060018216806200104b57607f821691505b60208210810362001061576200106062001006565b5b50919050565b5f819050815f5260205f209050919050565b5f6020601f8301049050919050565b5f82821b905092915050565b5f60088302620010c57fffffffffffffffffffffffffffffffffffffffffffffffffffffffffffffffff8262001088565b620010d1868362001088565b95508019841693508086168417925050509392505050565b5f819050919050565b5f620011126200110c620011068462000ae8565b620010e9565b62000ae8565b9050919050565b5f819050919050565b6200112d83620010f2565b620011456200113c8262001119565b84845462001094565b825550505050565b5f90565b6200115b6200114d565b6200116881848462001122565b505050565b5b818110156200118f57620011835f8262001151565b6001810190506200116e565b5050565b601f821115620011de57620011a88162001067565b620011b38462001079565b81016020851015620011c3578190505b620011db620011d28562001079565b8301826200116d565b50505b505050565b5f82821c905092915050565b5f620012005f1984600802620011e3565b1980831691505092915050565b5f6200121a8383620011ef565b9150826002028217905092915050565b620012358262000dde565b67ffffffffffffffff81111562001251576200125062000fd9565b5b6200125d825462001033565b6200126a82828562001193565b5f60209050601f831160018114620012a0575f84156200128b578287015190505b6200129785826200120d565b86555062001306565b601f198416620012b08662001067565b5f5b82811015620012d957848901518255600182019150602085019450602081019050620012b2565b86831015620012f95784890151620012f5601f891682620011ef565b8355505b6001600288020188555050505b505050505050565b5f6060820190508181035f8301526200132981878962000f21565b905081810360208301526200134081858762000f21565b905062001351604083018462000d0e565b969550505050505056fe608060405234801562000010575f80fd5b5060405162001f4138038062001f418339818101604052810190620000369190620006f9565b80868681600390816200004a919062000a1c565b5080600490816200005c919062000a1c565b5050505f73ffffffffffffffffffffffffffffffffffffffff168173ffffffffffffffffffffffffffffffffffffffff1603620000d2575f6040517f1e4fbdf7000000000000000000000000000000000000000000000000000000008152600401620000c9919062000b11565b60405180910390fd5b620000e3816200012f60201b60201c565b5083600560146101000a81548160ff021916908360ff160217905550816006908162000110919062000a1c565b50620001238184620001f260201b60201c565b50505050505062000bfa565b5f60055f9054906101000a900473ffffffffffffffffffffffffffffffffffffffff1690508160055f6101000a81548173ffffffffffffffffffffffffffffffffffffffff021916908373ffffffffffffffffffffffffffffffffffffffff1602179055508173ffffffffffffffffffffffffffffffffffffffff168173ffffffffffffffffffffffffffffffffffffffff167f8be0079c531659141344cd1fd0a4f28419497f9722a3daafe3b4186f6b6457e060405160405180910390a35050565b5f73ffffffffffffffffffffffffffffffffffffffff168273ffffffffffffffffffffffffffffffffffffffff160362000265575f6040517fec442f050000000000000000000000000000000000000000000000000000000081526004016200025c919062000b11565b60405180910390fd5b620002785f83836200027c60201b60201c565b5050565b5f73ffffffffffffffffffffffffffffffffffffffff168373ffffffffffffffffffffffffffffffffffffffff1603620002d0578060025f828254620002c3919062000b59565b92505081905550620003a1565b5f805f8573ffffffffffffffffffffffffffffffffffffffff1673ffffffffffffffffffffffffffffffffffffffff1681526020019081526020015f20549050818110156200035c578381836040517fe450d38c000000000000000000000000000000000000000000000000000000008152600401620003539392919062000ba4565b60405180910390fd5b8181035f808673ffffffffffffffffffffffffffffffffffffffff1673ffffffffffffffffffffffffffffffffffffffff1681526020019081526020015f2081905550505b5f73ffffffffffffffffffffffffffffffffffffffff168273ffffffffffffffffffffffffffffffffffffffff1603620003ea578060025f828254039250508190555062000434565b805f808473ffffffffffffffffffffffffffffffffffffffff1673ffffffffffffffffffffffffffffffffffffffff1681526020019081526020015f205f82825401925050819055505b8173ffffffffffffffffffffffffffffffffffffffff168373ffffffffffffffffffffffffffffffffffffffff167fddf252ad1be2c89b69c2b068fc378daa952ba7f163c4a11628f55a4df523b3ef8360405162000493919062000bdf565b60405180910390a3505050565b5f604051905090565b5f80fd5b5f80fd5b5f80fd5b5f80fd5b5f601f19601f8301169050919050565b7f4e487b71000000000000000000000000000000000000000000000000000000005f52604160045260245ffd5b6200050182620004b9565b810181811067ffffffffffffffff82111715620005235762000522620004c9565b5b80604052505050565b5f62000537620004a0565b9050620005458282620004f6565b919050565b5f67ffffffffffffffff821115620005675762000566620004c9565b5b6200057282620004b9565b9050602081019050919050565b5f5b838110156200059e57808201518184015260208101905062000581565b5f8484015250505050565b5f620005bf620005b9846200054a565b6200052c565b905082815260208101848484011115620005de57620005dd620004b5565b5b620005eb8482856200057f565b509392505050565b5f82601f8301126200060a5762000609620004b1565b5b81516200061c848260208601620005a9565b91505092915050565b5f60ff82169050919050565b6200063c8162000625565b811462000647575f80fd5b50565b5f815190506200065a8162000631565b92915050565b5f819050919050565b620006748162000660565b81146200067f575f80fd5b50565b5f81519050620006928162000669565b92915050565b5f73ffffffffffffffffffffffffffffffffffffffff82169050919050565b5f620006c38262000698565b9050919050565b620006d581620006b7565b8114620006e0575f80fd5b50565b5f81519050620006f381620006ca565b92915050565b5f805f805f8060c08789031215620007165762000715620004a9565b5b5f87015167ffffffffffffffff811115620007365762000735620004ad565b5b6200074489828a01620005f3565b965050602087015167ffffffffffffffff811115620007685762000767620004ad565b5b6200077689828a01620005f3565b95505060406200078989828a016200064a565b94505060606200079c89828a0162000682565b935050608087015167ffffffffffffffff811115620007c057620007bf620004ad565b5b620007ce89828a01620005f3565b92505060a0620007e189828a01620006e3565b9150509295509295509295565b5f81519050919050565b7f4e487b71000000000000000000000000000000000000000000000000000000005f52602260045260245ffd5b5f60028204905060018216806200083d57607f821691505b602082108103620008535762000852620007f8565b5b50919050565b5f819050815f5260205f209050919050565b5f6020601f8301049050919050565b5f82821b905092915050565b5f60088302620008b77fffffffffffffffffffffffffffffffffffffffffffffffffffffffffffffffff826200087a565b620008c386836200087a565b95508019841693508086168417925050509392505050565b5f819050919050565b5f62000904620008fe620008f88462000660565b620008db565b62000660565b9050919050565b5f819050919050565b6200091f83620008e4565b620009376200092e826200090b565b84845462000886565b825550505050565b5f90565b6200094d6200093f565b6200095a81848462000914565b505050565b5b818110156200098157620009755f8262000943565b60018101905062000960565b5050565b601f821115620009d0576200099a8162000859565b620009a5846200086b565b81016020851015620009b5578190505b620009cd620009c4856200086b565b8301826200095f565b50505b505050565b5f82821c905092915050565b5f620009f25f1984600802620009d5565b1980831691505092915050565b5f62000a0c8383620009e1565b9150826002028217905092915050565b62000a2782620007ee565b67ffffffffffffffff81111562000a435762000a42620004c9565b5b62000a4f825462000825565b62000a5c82828562000985565b5f60209050601f83116001811462000a92575f841562000a7d578287015190505b62000a898582620009ff565b86555062000af8565b601f19841662000aa28662000859565b5f5b8281101562000acb5784890151825560018201915060208501945060208101905062000aa4565b8683101562000aeb578489015162000ae7601f891682620009e1565b8355505b6001600288020188555050505b505050505050565b62000b0b81620006b7565b82525050565b5f60208201905062000b265f83018462000b00565b92915050565b7f4e487b71000000000000000000000000000000000000000000000000000000005f52601160045260245ffd5b5f62000b658262000660565b915062000b728362000660565b925082820190508082111562000b8d5762000b8c62000b2c565b5b92915050565b62000b9e8162000660565b82525050565b5f60608201905062000bb95f83018662000b00565b62000bc8602083018562000b93565b62000bd7604083018462000b93565b949350505050565b5f60208201905062000bf45f83018462000b93565b92915050565b6113398062000c085f395ff3fe608060405234801561000f575f80fd5b50600436106100fe575f3560e01c8063715018a611610095578063a9059cbb11610064578063a9059cbb14610286578063c1aef4f2146102b6578063dd62ed3e146102d4578063f2fde38b14610304576100fe565b8063715018a61461022457806379cc67901461022e5780638da5cb5b1461024a57806395d89b4114610268576100fe565b8063313ce567116100d1578063313ce5671461019e57806340c10f19146101bc57806342966c68146101d857806370a08231146101f4576100fe565b806306fdde0314610102578063095ea7b31461012057806318160ddd1461015057806323b872dd1461016e575b5f80fd5b61010a610320565b6040516101179190610f87565b60405180910390f35b61013a60048036038101906101359190611038565b6103b0565b6040516101479190611090565b60405180910390f35b6101586103d2565b60405161016591906110b8565b60405180910390f35b610188600480360381019061018391906110d1565b6103db565b6040516101959190611090565b60405180910390f35b6101a6610409565b6040516101b3919061113c565b60405180910390f35b6101d660048036038101906101d19190611038565b61041f565b005b6101f260048036038101906101ed9190611155565b610435565b005b61020e60048036038101906102099190611180565b610449565b60405161021b91906110b8565b60405180910390f35b61022c61048e565b005b61024860048036038101906102439190611038565b6104a1565b005b6102526104c1565b60405161025f91906111ba565b60405180910390f35b6102706104e9565b60405161027d9190610f87565b60405180910390f35b6102a0600480360381019061029b9190611038565b610579565b6040516102ad9190611090565b60405180910390f35b6102be61059b565b6040516102cb9190610f87565b60405180910390f35b6102ee60048036038101906102e991906111d3565b61062b565b6040516102fb91906110b8565b60405180910390f35b61031e60048036038101906103199190611180565b6106ad565b005b60606003805461032f9061123e565b80601f016020809104026020016040519081016040528092919081815260200182805461035b9061123e565b80156103a65780601f1061037d576101008083540402835291602001916103a6565b820191905f5260205f20905b81548152906001019060200180831161038957829003601f168201915b5050505050905090565b5f806103ba610731565b90506103c7818585610738565b600191505092915050565b5f600254905090565b5f806103e5610731565b90506103f285828561074a565b6103fd8585856107dd565b60019150509392505050565b5f600560149054906101000a900460ff16905090565b6104276108cd565b6104318282610954565b5050565b610446610440610731565b826109d3565b50565b5f805f8373ffffffffffffffffffffffffffffffffffffffff1673ffffffffffffffffffffffffffffffffffffffff1681526020019081526020015f20549050919050565b6104966108cd565b61049f5f610a52565b565b6104b3826104ad610731565b8361074a565b6104bd82826109d3565b5050565b5f60055f9054906101000a900473ffffffffffffffffffffffffffffffffffffffff16905090565b6060600480546104f89061123e565b80601f01602080910402602001604051908101604052809291908181526020018280546105249061123e565b801561056f5780601f106105465761010080835404028352916020019161056f565b820191905f5260205f20905b81548152906001019060200180831161055257829003601f168201915b5050505050905090565b5f80610583610731565b90506105908185856107dd565b600191505092915050565b6060600680546105aa9061123e565b80601f01602080910402602001604051908101604052809291908181526020018280546105d69061123e565b80156106215780601f106105f857610100808354040283529160200191610621565b820191905f5260205f20905b81548152906001019060200180831161060457829003601f168201915b5050505050905090565b5f60015f8473ffffffffffffffffffffffffffffffffffffffff1673ffffffffffffffffffffffffffffffffffffffff1681526020019081526020015f205f8373ffffffffffffffffffffffffffffffffffffffff1673ffffffffffffffffffffffffffffffffffffffff1681526020019081526020015f2054905092915050565b6106b56108cd565b5f73ffffffffffffffffffffffffffffffffffffffff168173ffffffffffffffffffffffffffffffffffffffff1603610725575f6040517f1e4fbdf700000000000000000000000000000000000000000000000000000000815260040161071c91906111ba565b60405180910390fd5b61072e81610a52565b50565b5f33905090565b6107458383836001610b15565b505050565b5f610755848461062b565b90507fffffffffffffffffffffffffffffffffffffffffffffffffffffffffffffffff8110156107d757818110156107c8578281836040517ffb8f41b20000000000000000000000000000000000000000000000000000000081526004016107bf9392919061126e565b60405180910390fd5b6107d684848484035f610b15565b5b50505050565b5f73ffffffffffffffffffffffffffffffffffffffff168373ffffffffffffffffffffffffffffffffffffffff160361084d575f6040517f96c6fd1e00000000000000000000000000000000000000000000000000000000815260040161084491906111ba565b60405180910390fd5b5f73ffffffffffffffffffffffffffffffffffffffff168273ffffffffffffffffffffffffffffffffffffffff16036108bd575f6040517fec442f050000000000000000000000000000000000000000000000000000000081526004016108b491906111ba565b60405180910390fd5b6108c8838383610ce4565b505050565b6108d5610731565b73ffffffffffffffffffffffffffffffffffffffff166108f36104c1565b73ffffffffffffffffffffffffffffffffffffffff161461095257610916610731565b6040517f118cdaa700000000000000000000000000000000000000000000000000000000815260040161094991906111ba565b60405180910390fd5b565b5f73ffffffffffffffffffffffffffffffffffffffff168273ffffffffffffffffffffffffffffffffffffffff16036109c4575f6040517fec442f050000000000000000000000000000000000000000000000000000000081526004016109bb91906111ba565b60405180910390fd5b6109cf5f8383610ce4565b5050565b5f73ffffffffffffffffffffffffffffffffffffffff168273ffffffffffffffffffffffffffffffffffffffff1603610a43575f6040517f96c6fd1e000000000000000000000000000000000000000000000000000000008152600401610a3a91906111ba565b60405180910390fd5b610a4e825f83610ce4565b5050565b5f60055f9054906101000a900473ffffffffffffffffffffffffffffffffffffffff1690508160055f6101000a81548173ffffffffffffffffffffffffffffffffffffffff021916908373ffffffffffffffffffffffffffffffffffffffff1602179055508173ffffffffffffffffffffffffffffffffffffffff168173ffffffffffffffffffffffffffffffffffffffff167f8be0079c531659141344cd1fd0a4f28419497f9722a3daafe3b4186f6b6457e060405160405180910390a35050565b5f73ffffffffffffffffffffffffffffffffffffffff168473ffffffffffffffffffffffffffffffffffffffff1603610b85575f6040517fe602df05000000000000000000000000000000000000000000000000000000008152600401610b7c91906111ba565b60405180910390fd5b5f73ffffffffffffffffffffffffffffffffffffffff168373ffffffffffffffffffffffffffffffffffffffff1603610bf5575f6040517f94280d62000000000000000000000000000000000000000000000000000000008152600401610bec91906111ba565b60405180910390fd5b8160015f8673ffffffffffffffffffffffffffffffffffffffff1673ffffffffffffffffffffffffffffffffffffffff1681526020019081526020015f205f8573ffffffffffffffffffffffffffffffffffffffff1673ffffffffffffffffffffffffffffffffffffffff1681526020019081526020015f20819055508015610cde578273ffffffffffffffffffffffffffffffffffffffff168473ffffffffffffffffffffffffffffffffffffffff167f8c5be1e5ebec7d5bd14f71427d1e84f3dd0314c0f7b2291e5b200ac8c7c3b92584604051610cd591906110b8565b60405180910390a35b50505050565b5f73ffffffffffffffffffffffffffffffffffffffff168373ffffffffffffffffffffffffffffffffffffffff1603610d34578060025f828254610d2891906112d0565b92505081905550610e02565b5f805f8573ffffffffffffffffffffffffffffffffffffffff1673ffffffffffffffffffffffffffffffffffffffff1681526020019081526020015f2054905081811015610dbd578381836040517fe450d38c000000000000000000000000000000000000000000000000000000008152600401610db49392919061126e565b60405180910390fd5b8181035f808673ffffffffffffffffffffffffffffffffffffffff1673ffffffffffffffffffffffffffffffffffffffff1681526020019081526020015f2081905550505b5f73ffffffffffffffffffffffffffffffffffffffff168273ffffffffffffffffffffffffffffffffffffffff1603610e49578060025f8282540392505081905550610e93565b805f808473ffffffffffffffffffffffffffffffffffffffff1673ffffffffffffffffffffffffffffffffffffffff1681526020019081526020015f205f82825401925050819055505b8173ffffffffffffffffffffffffffffffffffffffff168373ffffffffffffffffffffffffffffffffffffffff167fddf252ad1be2c89b69c2b068fc378daa952ba7f163c4a11628f55a4df523b3ef83604051610ef091906110b8565b60405180910390a3505050565b5f81519050919050565b5f82825260208201905092915050565b5f5b83811015610f34578082015181840152602081019050610f19565b5f8484015250505050565b5f601f19601f8301169050919050565b5f610f5982610efd565b610f638185610f07565b9350610f73818560208601610f17565b610f7c81610f3f565b840191505092915050565b5f6020820190508181035f830152610f9f8184610f4f565b905092915050565b5f80fd5b5f73ffffffffffffffffffffffffffffffffffffffff82169050919050565b5f610fd482610fab565b9050919050565b610fe481610fca565b8114610fee575f80fd5b50565b5f81359050610fff81610fdb565b92915050565b5f819050919050565b61101781611005565b8114611021575f80fd5b50565b5f813590506110328161100e565b92915050565b5f806040838503121561104e5761104d610fa7565b5b5f61105b85828601610ff1565b925050602061106c85828601611024565b9150509250929050565b5f8115159050919050565b61108a81611076565b82525050565b5f6020820190506110a35f830184611081565b92915050565b6110b281611005565b82525050565b5f6020820190506110cb5f8301846110a9565b92915050565b5f805f606084860312156110e8576110e7610fa7565b5b5f6110f586828701610ff1565b935050602061110686828701610ff1565b925050604061111786828701611024565b9150509250925092565b5f60ff82169050919050565b61113681611121565b82525050565b5f60208201905061114f5f83018461112d565b92915050565b5f6020828403121561116a57611169610fa7565b5b5f61117784828501611024565b91505092915050565b5f6020828403121561119557611194610fa7565b5b5f6111a284828501610ff1565b91505092915050565b6111b481610fca565b82525050565b5f6020820190506111cd5f8301846111ab565b92915050565b5f80604083850312156111e9576111e8610fa7565b5b5f6111f685828601610ff1565b925050602061120785828601610ff1565b9150509250929050565b7f4e487b71000000000000000000000000000000000000000000000000000000005f52602260045260245ffd5b5f600282049050600182168061125557607f821691505b60208210810361126857611267611211565b5b50919050565b5f6060820190506112815f8301866111ab565b61128e60208301856110a9565b61129b60408301846110a9565b949350505050565b7f4e487b71000000000000000000000000000000000000000000000000000000005f52601160045260245ffd5b5f6112da82611005565b91506112e583611005565b92508282019050808211156112fd576112fc6112a3565b5b9291505056fea26469706673582212201dfa3a01afd462235d87ec0198da80fb3f3eca47afd44e546615de93c57893c764736f6c63430008140033a2646970667358221220da963cfdc70f12809c839f6981f8c329bae097936c39164ba946cc55b3ceaa7e64736f6c63430008140033",
  "linkReferences": {},
  "deployedLinkReferences": {},
  "immutableReferences": {},
  "inputSourceName": "project/contracts/TokenFactory.sol",
  "buildInfoId": "solc-0_8_20-ebaabe41692d32fc89ad468f9c7b80f0bde29bbd"
}