{
  "_format": "hh3-artifact-1",
  "contractName": "TokenFactory",
  "sourceName": "contracts/TokenFactory.sol",
  "abi": [
    {
      "anonymous": false,
      "inputs": [
        {
          "indexed": true,
          "internalType": "address",
          "name": "tokenAddress",
          "type": "address"
        },
        {
          "indexed": true,
          "internalType": "address",
          "name": "creator",
          "type": "address"
        },
        {
          "indexed": false,
          "internalType": "string",
          "name": "name",
          "type": "string"
        },
        {
          "indexed": false,
          "internalType": "string",
          "name": "symbol",
          "type": "string"
        },
        {
          "indexed": false,
          "internalType": "uint256",
          "name": "initialSupply",
          "type": "uint256"
        }
      ],
      "name": "TokenCreated",
      "type": "event"
    },
    {
      "inputs": [
        {
          "internalType": "string",
          "name": "name",
          "type": "string"
        },
        {
          "internalType": "string",
          "name": "symbol",
          "type": "string"
        },
        {
          "internalType": "uint8",
          "name": "decimalsValue",
          "type": "uint8"
        },
        {
          "internalType": "uint256",
          "name": "initialSupply",
          "type": "uint256"
        },
        {
          "internalType": "string",
          "name": "image",
          "type": "string"
        }
      ],
      "name": "createToken",
      "outputs": [
        {
          "internalType": "address",
          "name": "",
          "type": "address"
        }
      ],
      "stateMutability": "nonpayable",
      "type": "function"
    },
    {
      "inputs": [
        {
          "internalType": "address",
          "name": "",
          "type": "address"
        },
        {
          "internalType": "uint256",
          "name": "",
          "type": "uint256"
        }
      ],
      "name": "creatorTokens",
      "outputs": [
        {
          "internalType": "address",
          "name": "",
          "type": "address"
        }
      ],
      "stateMutability": "view",
      "type": "function"
    },
    {
      "inputs": [],
      "name": "getAllTokens",
      "outputs": [
        {
          "internalType": "address[]",
          "name": "",
          "type": "address[]"
        }
      ],
      "stateMutability": "view",
      "type": "function"
    },
    {
      "inputs": [],
      "name": "getTokenCount",
      "outputs": [
        {
          "internalType": "uint256",
          "name": "",
          "type": "uint256"
        }
      ],
      "stateMutability": "view",
      "type": "function"
    },
    {
      "inputs": [
        {
          "internalType": "address",
          "name": "creator",
          "type": "address"
        }
      ],
      "name": "getTokensByCreator",
      "outputs": [
        {
          "internalType": "address[]",
          "name": "",
          "type": "address[]"
        }
      ],
      "stateMutability": "view",
      "type": "function"
    },
    {
      "inputs": [
        {
          "internalType": "address",
          "name": "",
          "type": "address"
        }
      ],
      "name": "tokenInfo",
      "outputs": [
        {
          "internalType": "string",
          "name": "name",
          "type": "string"
        },
        {
          "internalType": "string",
          "name": "symbol",
          "type": "string"
        },
        {
          "internalType": "uint8",
          "name": "decimals",
          "type": "uint8"
        },
        {
          "internalType": "uint256",
          "name": "initialSupply",
          "type": "uint256"
        },
        {
          "internalType": "string",
          "name": "image",
          "type": "string"
        },
        {
          "internalType": "address",
          "name": "creator",
          "type": "address"
        },
        {
          "internalType": "uint256",
          "name": "createdAt",
          "type": "uint256"
        }
      ],
      "stateMutability": "view",
      "type": "function"
    },
    {
      "inputs": [
        {
          "internalType": "uint256",
          "name": "",
          "type": "uint256"
        }
      ],
      "name": "tokens",
      "outputs": [
        {
          "internalType": "address",
          "name": "",
          "type": "address"
        }
      ],
      "stateMutability": "view",
      "type": "function"
    }
  ],
  "bytecode": "0x608060405234801561000f575f80fd5b50611b448061001d5f395ff3fe608060405234801562000010575f80fd5b506004361062000084575f3560e01c806378a89567116200005f57806378a8956714620000f1578063d5c712751462000102578063db3fa4cc1462000119578063f5dab7111462000130575f80fd5b80632a5c792a14620000885780634f64b2be14620000aa5780636962f49e14620000da575b5f80fd5b620000926200015c565b604051620000a191906200071c565b60405180910390f35b620000c1620000bb3660046200076a565b620001bd565b6040516001600160a01b039091168152602001620000a1565b620000c1620000eb366004620007ca565b620001e5565b5f54604051908152602001620000a1565b6200009262000113366004620008a6565b6200046f565b620000c16200012a366004620008c9565b620004e4565b6200014762000141366004620008a6565b62000519565b604051620000a1979695949392919062000939565b60605f805480602002602001604051908101604052809291908181526020018280548015620001b357602002820191905f5260205f20905b81546001600160a01b0316815260019091019060200180831162000194575b5050505050905090565b5f8181548110620001cc575f80fd5b5f918252602090912001546001600160a01b0316905081565b5f80898989898989898933604051620001fe906200070e565b6200021299989796959493929190620009ce565b604051809103905ff0801580156200022c573d5f803e3d5ffd5b505f8054600180820183557f290decd9548b62a8d60345a988386fc84ba6bc95484008f6362f93160ef3e56390910180546001600160a01b03199081166001600160a01b0386169081179092553384526020838152604080862080549586018155865294819020909301805490911690911790558151610100601f8e018390049092028101820190925260e082018c8152929350839282918e908e90819085018382808284375f92019190915250505090825250604080516020601f8d018190048102820181019092528b815291810191908c908c90819084018382808284375f9201919091525050509082525060ff891660208083019190915260408083018a90528051601f89018390048302810183019091528781526060909201919088908890819084018382808284375f920182905250938552505033602080850191909152426040948501526001600160a01b03861683526002905250208151819062000398908262000add565b5060208201516001820190620003af908262000add565b50604082015160028201805460ff191660ff9092169190911790556060820151600382015560808201516004820190620003ea908262000add565b5060a08201516005820180546001600160a01b0319166001600160a01b0392831617905560c09092015160069091015560405133918316907f6e6ae68e7d7d45fbd855c40d1eaafa8de46c5fbec3ee26f1af88730e400bc92c9062000459908f908f908f908f908e9062000ba6565b60405180910390a39a9950505050505050505050565b6001600160a01b0381165f90815260016020908152604091829020805483518184028101840190945280845260609392830182828015620004d857602002820191905f5260205f20905b81546001600160a01b03168152600190910190602001808311620004b9575b50505050509050919050565b6001602052815f5260405f208181548110620004fe575f80fd5b5f918252602090912001546001600160a01b03169150829050565b60026020525f9081526040902080548190620005359062000a51565b80601f0160208091040260200160405190810160405280929190818152602001828054620005639062000a51565b8015620005b25780601f106200058857610100808354040283529160200191620005b2565b820191905f5260205f20905b8154815290600101906020018083116200059457829003601f168201915b505050505090806001018054620005c99062000a51565b80601f0160208091040260200160405190810160405280929190818152602001828054620005f79062000a51565b8015620006465780601f106200061c5761010080835404028352916020019162000646565b820191905f5260205f20905b8154815290600101906020018083116200062857829003601f168201915b5050505060028301546003840154600485018054949560ff9093169491935090620006719062000a51565b80601f01602080910402602001604051908101604052809291908181526020018280546200069f9062000a51565b8015620006ee5780601f10620006c457610100808354040283529160200191620006ee565b820191905f5260205f20905b815481529060010190602001808311620006d057829003601f168201915b50505050600583015460069093015491926001600160a01b031691905087565b610f2b8062000be483390190565b602080825282518282018190525f9190848201906040850190845b818110156200075e5783516001600160a01b03168352928401929184019160010162000737565b50909695505050505050565b5f602082840312156200077b575f80fd5b5035919050565b5f8083601f84011262000793575f80fd5b50813567ffffffffffffffff811115620007ab575f80fd5b602083019150836020828501011115620007c3575f80fd5b9250929050565b5f805f805f805f8060a0898b031215620007e2575f80fd5b883567ffffffffffffffff80821115620007fa575f80fd5b620008088c838d0162000782565b909a50985060208b013591508082111562000821575f80fd5b6200082f8c838d0162000782565b909850965060408b0135915060ff821682146200084a575f80fd5b90945060608a0135935060808a0135908082111562000867575f80fd5b50620008768b828c0162000782565b999c989b5096995094979396929594505050565b80356001600160a01b0381168114620008a1575f80fd5b919050565b5f60208284031215620008b7575f80fd5b620008c2826200088a565b9392505050565b5f8060408385031215620008db575f80fd5b620008e6836200088a565b946020939093013593505050565b5f81518084525f5b818110156200091a57602081850181015186830182015201620008fc565b505f602082860101526020601f19601f83011685010191505092915050565b60e081525f6200094d60e083018a620008f4565b828103602084015262000961818a620008f4565b905060ff881660408401528660608401528281036080840152620009868187620008f4565b6001600160a01b039590951660a0840152505060c0015295945050505050565b81835281816020850137505f828201602090810191909152601f909101601f19169091010190565b60c081525f620009e360c083018b8d620009a6565b8281036020840152620009f8818a8c620009a6565b905060ff88166040840152866060840152828103608084015262000a1e818688620009a6565b91505060018060a01b03831660a08301529a9950505050505050505050565b634e487b7160e01b5f52604160045260245ffd5b600181811c9082168062000a6657607f821691505b60208210810362000a8557634e487b7160e01b5f52602260045260245ffd5b50919050565b601f82111562000ad8575f81815260208120601f850160051c8101602086101562000ab35750805b601f850160051c820191505b8181101562000ad45782815560010162000abf565b5050505b505050565b815167ffffffffffffffff81111562000afa5762000afa62000a3d565b62000b128162000b0b845462000a51565b8462000a8b565b602080601f83116001811462000b48575f841562000b305750858301515b5f19600386901b1c1916600185901b17855562000ad4565b5f85815260208120601f198616915b8281101562000b785788860151825594840194600190910190840162000b57565b508582101562000b9657878501515f19600388901b60f8161c191681555b5050505050600190811b01905550565b606081525f62000bbb606083018789620009a6565b828103602084015262000bd0818688620009a6565b915050826040830152969550505050505056fe608060405234801562000010575f80fd5b5060405162000f2b38038062000f2b833981016040819052620000339162000366565b8086866003620000448382620004b1565b506004620000538282620004b1565b5050506001600160a01b0381166200008557604051631e4fbdf760e01b81525f60048201526024015b60405180910390fd5b6200009081620000d0565b506005805460ff60a01b1916600160a01b60ff8716021790556006620000b78382620004b1565b50620000c4818462000121565b5050505050506200059f565b600580546001600160a01b038381166001600160a01b0319831681179093556040519116919082907f8be0079c531659141344cd1fd0a4f28419497f9722a3daafe3b4186f6b6457e0905f90a35050565b6001600160a01b0382166200014c5760405163ec442f0560e01b81525f60048201526024016200007c565b620001595f83836200015d565b5050565b6001600160a01b0383166200018b578060025f8282546200017f919062000579565b90915550620001fd9050565b6001600160a01b0383165f9081526020819052604090205481811015620001df5760405163391434e360e21b81526001600160a01b038516600482015260248101829052604481018390526064016200007c565b6001600160a01b0384165f9081526020819052604090209082900390555b6001600160a01b0382166200021b5760028054829003905562000239565b6001600160a01b0382165f9081526020819052604090208054820190555b816001600160a01b0316836001600160a01b03167fddf252ad1be2c89b69c2b068fc378daa952ba7f163c4a11628f55a4df523b3ef836040516200027f91815260200190565b60405180910390a3505050565b634e487b7160e01b5f52604160045260245ffd5b5f82601f830112620002b0575f80fd5b81516001600160401b0380821115620002cd57620002cd6200028c565b604051601f8301601f19908116603f01168101908282118183101715620002f857620002f86200028c565b8160405283815260209250868385880101111562000314575f80fd5b5f91505b8382101562000337578582018301518183018401529082019062000318565b5f93810190920192909252949350505050565b80516001600160a01b038116811462000361575f80fd5b919050565b5f805f805f8060c087890312156200037c575f80fd5b86516001600160401b038082111562000393575f80fd5b620003a18a838b01620002a0565b97506020890151915080821115620003b7575f80fd5b620003c58a838b01620002a0565b96506040890151915060ff82168214620003dd575f80fd5b606089015160808a0151929650945080821115620003f9575f80fd5b506200040889828a01620002a0565b9250506200041960a088016200034a565b90509295509295509295565b600181811c908216806200043a57607f821691505b6020821081036200045957634e487b7160e01b5f52602260045260245ffd5b50919050565b601f821115620004ac575f81815260208120601f850160051c81016020861015620004875750805b601f850160051c820191505b81811015620004a85782815560010162000493565b5050505b505050565b81516001600160401b03811115620004cd57620004cd6200028c565b620004e581620004de845462000425565b846200045f565b602080601f8311600181146200051b575f8415620005035750858301515b5f19600386901b1c1916600185901b178555620004a8565b5f85815260208120601f198616915b828110156200054b578886015182559484019460019091019084016200052a565b50858210156200056957878501515f19600388901b60f8161c191681555b5050505050600190811b01905550565b808201808211156200059957634e487b7160e01b5f52601160045260245ffd5b92915050565b61097e80620005ad5f395ff3fe608060405234801561000f575f80fd5b50600436106100fb575f3560e01c8063715018a611610093578063a9059cbb11610063578063a9059cbb14610212578063c1aef4f214610225578063dd62ed3e1461022d578063f2fde38b14610265575f80fd5b8063715018a6146101d457806379cc6790146101dc5780638da5cb5b146101ef57806395d89b411461020a575f80fd5b8063313ce567116100ce578063313ce5671461016557806340c10f191461018457806342966c681461019957806370a08231146101ac575f80fd5b806306fdde03146100ff578063095ea7b31461011d57806318160ddd1461014057806323b872dd14610152575b5f80fd5b610107610278565b60405161011491906107c2565b60405180910390f35b61013061012b366004610828565b610308565b6040519015158152602001610114565b6002545b604051908152602001610114565b610130610160366004610850565b610321565b600554600160a01b900460ff1660405160ff9091168152602001610114565b610197610192366004610828565b610344565b005b6101976101a7366004610889565b61035a565b6101446101ba3660046108a0565b6001600160a01b03165f9081526020819052604090205490565b610197610367565b6101976101ea366004610828565b61037a565b6005546040516001600160a01b039091168152602001610114565b61010761038f565b610130610220366004610828565b61039e565b6101076103ab565b61014461023b3660046108c0565b6001600160a01b039182165f90815260016020908152604080832093909416825291909152205490565b6101976102733660046108a0565b6103ba565b606060038054610287906108f1565b80601f01602080910402602001604051908101604052809291908181526020018280546102b3906108f1565b80156102fe5780601f106102d5576101008083540402835291602001916102fe565b820191905f5260205f20905b8154815290600101906020018083116102e157829003601f168201915b5050505050905090565b5f336103158185856103f9565b60019150505b92915050565b5f3361032e85828561040b565b610339858585610487565b506001949350505050565b61034c6104e4565b6103568282610511565b5050565b6103643382610545565b50565b61036f6104e4565b6103785f610579565b565b61038582338361040b565b6103568282610545565b606060048054610287906108f1565b5f33610315818585610487565b606060068054610287906108f1565b6103c26104e4565b6001600160a01b0381166103f057604051631e4fbdf760e01b81525f60048201526024015b60405180910390fd5b61036481610579565b61040683838360016105ca565b505050565b6001600160a01b038381165f908152600160209081526040808320938616835292905220545f19811015610481578181101561047357604051637dc7a0d960e11b81526001600160a01b038416600482015260248101829052604481018390526064016103e7565b61048184848484035f6105ca565b50505050565b6001600160a01b0383166104b057604051634b637e8f60e11b81525f60048201526024016103e7565b6001600160a01b0382166104d95760405163ec442f0560e01b81525f60048201526024016103e7565b61040683838361069c565b6005546001600160a01b031633146103785760405163118cdaa760e01b81523360048201526024016103e7565b6001600160a01b03821661053a5760405163ec442f0560e01b81525f60048201526024016103e7565b6103565f838361069c565b6001600160a01b03821661056e57604051634b637e8f60e11b81525f60048201526024016103e7565b610356825f8361069c565b600580546001600160a01b038381166001600160a01b0319831681179093556040519116919082907f8be0079c531659141344cd1fd0a4f28419497f9722a3daafe3b4186f6b6457e0905f90a35050565b6001600160a01b0384166105f35760405163e602df0560e01b81525f60048201526024016103e7565b6001600160a01b03831661061c57604051634a1406b160e11b81525f60048201526024016103e7565b6001600160a01b038085165f908152600160209081526040808320938716835292905220829055801561048157826001600160a01b0316846001600160a01b03167f8c5be1e5ebec7d5bd14f71427d1e84f3dd0314c0f7b2291e5b200ac8c7c3b9258460405161068e91815260200190565b60405180910390a350505050565b6001600160a01b0383166106c6578060025f8282546106bb9190610929565b909155506107369050565b6001600160a01b0383165f90815260208190526040902054818110156107185760405163391434e360e21b81526001600160a01b038516600482015260248101829052604481018390526064016103e7565b6001600160a01b0384165f9081526020819052604090209082900390555b6001600160a01b03821661075257600280548290039055610770565b6001600160a01b0382165f9081526020819052604090208054820190555b816001600160a01b0316836001600160a01b03167fddf252ad1be2c89b69c2b068fc378daa952ba7f163c4a11628f55a4df523b3ef836040516107b591815260200190565b60405180910390a3505050565b5f6020808352835180828501525f5b818110156107ed578581018301518582016040015282016107d1565b505f604082860101526040601f19601f8301168501019250505092915050565b80356001600160a01b0381168114610823575f80fd5b919050565b5f8060408385031215610839575f80fd5b6108428361080d565b946020939093013593505050565b5f805f60608486031215610862575f80fd5b61086b8461080d565b92506108796020850161080d565b9150604084013590509250925092565b5f60208284031215610899575f80fd5b5035919050565b5f602082840312156108b0575f80fd5b6108b98261080d565b9392505050565b5f80604083850312156108d1575f80fd5b6108da8361080d565b91506108e86020840161080d565b90509250929050565b600181811c9082168061090557607f821691505b60208210810361092357634e487b7160e01b5f52602260045260245ffd5b50919050565b8082018082111561031b57634e487b7160e01b5f52601160045260245ffdfea26469706673582212205000a6a0b6a2dc451ef9f044c5915982aa746b4a848133a13132b9bb160b829a64736f6c63430008140033a26469706673582212208a5e925eeefb40c4820a5b6fe72d161de8b73598cb8990eaab727e7ef90b680c64736f6c63430008140033",
  "linkReferences": {},
  "deployedLinkReferences": {},
  "immutableReferences": {},
  "inputSourceName": "project/contracts/TokenFactory.sol",
  "buildInfoId": "solc-0_8_20-0454613d85d139b768a0301d95c92021199c0e46"
}