{
  "_format": "hh3-artifact-1",
  "contractName": "QuestVault",
  "sourceName": "contracts/QuestVault.sol",
  "abi": [
    {
      "inputs": [
        {
          "internalType": "address",
          "name": "_rewardToken",
          "type": "address"
        },
        {
          "internalType": "uint256",
          "name": "_rewardPerClaim",
          "type": "uint256"
        },
        {
          "internalType": "uint256",
          "name": "_maxClaims",
          "type": "uint256"
        },
        {
          "internalType": "uint64",
          "name": "_expiryTimestamp",
          "type": "uint64"
        },
        {
          "internalType": "address",
          "name": "_creator",
          "type": "address"
        },
        {
          "internalType": "address",
          "name": "_signer",
          "type": "address"
        },
        {
          "internalType": "address",
          "name": "_registry",
          "type": "address"
        }
      ],
      "stateMutability": "nonpayable",
      "type": "constructor"
    },
    {
      "inputs": [],
      "name": "ECDSAInvalidSignature",
      "type": "error"
    },
    {
      "inputs": [
        {
          "internalType": "uint256",
          "name": "length",
          "type": "uint256"
        }
      ],
      "name": "ECDSAInvalidSignatureLength",
      "type": "error"
    },
    {
      "inputs": [
        {
          "internalType": "bytes32",
          "name": "s",
          "type": "bytes32"
        }
      ],
      "name": "ECDSAInvalidSignatureS",
      "type": "error"
    },
    {
      "inputs": [
        {
          "internalType": "address",
          "name": "token",
          "type": "address"
        }
      ],
      "name": "SafeERC20FailedOperation",
      "type": "error"
    },
    {
      "anonymous": false,
      "inputs": [
        {
          "indexed": true,
          "internalType": "address",
          "name": "user",
          "type": "address"
        },
        {
          "indexed": false,
          "internalType": "uint256",
          "name": "amount",
          "type": "uint256"
        }
      ],
      "name": "ClaimSuccess",
      "type": "event"
    },
    {
      "anonymous": false,
      "inputs": [
        {
          "indexed": false,
          "internalType": "string",
          "name": "reason",
          "type": "string"
        }
      ],
      "name": "QuestClosed",
      "type": "event"
    },
    {
      "inputs": [],
      "name": "active",
      "outputs": [
        {
          "internalType": "bool",
          "name": "",
          "type": "bool"
        }
      ],
      "stateMutability": "view",
      "type": "function"
    },
    {
      "inputs": [
        {
          "internalType": "bytes",
          "name": "",
          "type": "bytes"
        }
      ],
      "name": "checkUpkeep",
      "outputs": [
        {
          "internalType": "bool",
          "name": "upkeepNeeded",
          "type": "bool"
        },
        {
          "internalType": "bytes",
          "name": "performData",
          "type": "bytes"
        }
      ],
      "stateMutability": "view",
      "type": "function"
    },
    {
      "inputs": [
        {
          "internalType": "address",
          "name": "user",
          "type": "address"
        },
        {
          "internalType": "bytes",
          "name": "signature",
          "type": "bytes"
        }
      ],
      "name": "claim",
      "outputs": [],
      "stateMutability": "nonpayable",
      "type": "function"
    },
    {
      "inputs": [],
      "name": "claimsMade",
      "outputs": [
        {
          "internalType": "uint256",
          "name": "",
          "type": "uint256"
        }
      ],
      "stateMutability": "view",
      "type": "function"
    },
    {
      "inputs": [],
      "name": "creator",
      "outputs": [
        {
          "internalType": "address",
          "name": "",
          "type": "address"
        }
      ],
      "stateMutability": "view",
      "type": "function"
    },
    {
      "inputs": [],
      "name": "expiryTimestamp",
      "outputs": [
        {
          "internalType": "uint64",
          "name": "",
          "type": "uint64"
        }
      ],
      "stateMutability": "view",
      "type": "function"
    },
    {
      "inputs": [
        {
          "internalType": "address",
          "name": "",
          "type": "address"
        }
      ],
      "name": "hasClaimed",
      "outputs": [
        {
          "internalType": "bool",
          "name": "",
          "type": "bool"
        }
      ],
      "stateMutability": "view",
      "type": "function"
    },
    {
      "inputs": [],
      "name": "manualClose",
      "outputs": [],
      "stateMutability": "nonpayable",
      "type": "function"
    },
    {
      "inputs": [],
      "name": "maxClaims",
      "outputs": [
        {
          "internalType": "uint256",
          "name": "",
          "type": "uint256"
        }
      ],
      "stateMutability": "view",
      "type": "function"
    },
    {
      "inputs": [
        {
          "internalType": "bytes",
          "name": "",
          "type": "bytes"
        }
      ],
      "name": "performUpkeep",
      "outputs": [],
      "stateMutability": "nonpayable",
      "type": "function"
    },
    {
      "inputs": [],
      "name": "registry",
      "outputs": [
        {
          "internalType": "contract PlayerRegistry",
          "name": "",
          "type": "address"
        }
      ],
      "stateMutability": "view",
      "type": "function"
    },
    {
      "inputs": [],
      "name": "rewardPerClaim",
      "outputs": [
        {
          "internalType": "uint256",
          "name": "",
          "type": "uint256"
        }
      ],
      "stateMutability": "view",
      "type": "function"
    },
    {
      "inputs": [],
      "name": "rewardToken",
      "outputs": [
        {
          "internalType": "address",
          "name": "",
          "type": "address"
        }
      ],
      "stateMutability": "view",
      "type": "function"
    },
    {
      "inputs": [],
      "name": "signer",
      "outputs": [
        {
          "internalType": "address",
          "name": "",
          "type": "address"
        }
      ],
      "stateMutability": "view",
      "type": "function"
    },
    {
      "inputs": [],
      "name": "withdrawRemaining",
      "outputs": [],
      "stateMutability": "nonpayable",
      "type": "function"
    }
  ],
  "bytecode": "0x61016060405234801562000011575f80fd5b5060405162001e8538038062001e8583398181016040528101906200003791906200023b565b8673ffffffffffffffffffffffffffffffffffffffff1660808173ffffffffffffffffffffffffffffffffffffffff16815250508560a081815250508460c081815250508367ffffffffffffffff1660e08167ffffffffffffffff16815250508273ffffffffffffffffffffffffffffffffffffffff166101008173ffffffffffffffffffffffffffffffffffffffff16815250508173ffffffffffffffffffffffffffffffffffffffff166101208173ffffffffffffffffffffffffffffffffffffffff16815250508073ffffffffffffffffffffffffffffffffffffffff166101408173ffffffffffffffffffffffffffffffffffffffff16815250506001805f6101000a81548160ff02191690831515021790555050505050505050620002e9565b5f80fd5b5f73ffffffffffffffffffffffffffffffffffffffff82169050919050565b5f6200018b8262000160565b9050919050565b6200019d816200017f565b8114620001a8575f80fd5b50565b5f81519050620001bb8162000192565b92915050565b5f819050919050565b620001d581620001c1565b8114620001e0575f80fd5b50565b5f81519050620001f381620001ca565b92915050565b5f67ffffffffffffffff82169050919050565b6200021781620001f9565b811462000222575f80fd5b50565b5f8151905062000235816200020c565b92915050565b5f805f805f805f60e0888a0312156200025957620002586200015c565b5b5f620002688a828b01620001ab565b97505060206200027b8a828b01620001e3565b96505060406200028e8a828b01620001e3565b9550506060620002a18a828b0162000225565b9450506080620002b48a828b01620001ab565b93505060a0620002c78a828b01620001ab565b92505060c0620002da8a828b01620001ab565b91505092959891949750929550565b60805160a05160c05160e051610100516101205161014051611ad3620003b25f395f818161049601526108e001525f81816102ea015261079001525f81816102b4015281816104ba01528181610ad40152610c5701525f8181610348015281816104040152818161058801526105ff01525f818161037c015281816104380152818161066b01528181610a420152610ab001525f818161030e0152818161096d0152610a0c01525f818161098e01528181610bb201528181610c790152610cc30152611ad35ff3fe608060405234801561000f575f80fd5b50600436106100f3575f3560e01c80637b10399911610095578063bb1757cf11610064578063bb1757cf14610250578063cf5380b41461026c578063ee38db951461028a578063f7c618c114610294576100f3565b80637b103999146101ec578063a0b094141461020a578063ade6e2aa14610214578063b13b62e714610232576100f3565b80633b62395e116100d15780633b62395e146101515780634585e33b1461016f5780636e04ff0d1461018b57806373b2e80e146101bc576100f3565b806302d05d3f146100f757806302fb0c5e14610115578063238ac93314610133575b5f80fd5b6100ff6102b2565b60405161010c91906111a1565b60405180910390f35b61011d6102d6565b60405161012a91906111d4565b60405180910390f35b61013b6102e8565b60405161014891906111a1565b60405180910390f35b61015961030c565b6040516101669190611205565b60405180910390f35b61018960048036038101906101849190611287565b610330565b005b6101a560048036038101906101a09190611287565b6103e9565b6040516101b392919061135c565b60405180910390f35b6101d660048036038101906101d191906113b4565b610477565b6040516101e391906111d4565b60405180910390f35b6101f4610494565b604051610201919061143a565b60405180910390f35b6102126104b8565b005b61021c610586565b6040516102299190611475565b60405180910390f35b61023a6105aa565b6040516102479190611205565b60405180910390f35b61026a6004803603810190610265919061148e565b6105af565b005b610274610aae565b6040516102819190611205565b60405180910390f35b610292610ad2565b005b61029c610cc1565b6040516102a991906111a1565b60405180910390f35b7f000000000000000000000000000000000000000000000000000000000000000081565b60015f9054906101000a900460ff1681565b7f000000000000000000000000000000000000000000000000000000000000000081565b7f000000000000000000000000000000000000000000000000000000000000000081565b60015f9054906101000a900460ff1680156103a157507f000000000000000000000000000000000000000000000000000000000000000067ffffffffffffffff16421015806103a057507f00000000000000000000000000000000000000000000000000000000000000005f5410155b5b156103e5576103e46040518060400160405280601481526020017f436861696e6c696e6b204175746f6d6174696f6e000000000000000000000000815250610ce5565b5b5050565b5f606060015f9054906101000a900460ff16801561045d57507f000000000000000000000000000000000000000000000000000000000000000067ffffffffffffffff164210158061045c57507f00000000000000000000000000000000000000000000000000000000000000005f5410155b5b915060405180602001604052805f81525090509250929050565b6002602052805f5260405f205f915054906101000a900460ff1681565b7f000000000000000000000000000000000000000000000000000000000000000081565b7f000000000000000000000000000000000000000000000000000000000000000073ffffffffffffffffffffffffffffffffffffffff163373ffffffffffffffffffffffffffffffffffffffff1614610546576040517f08c379a000000000000000000000000000000000000000000000000000000000815260040161053d90611545565b60405180910390fd5b6105846040518060400160405280600c81526020017f4d616e75616c20636c6f73650000000000000000000000000000000000000000815250610ce5565b565b7f000000000000000000000000000000000000000000000000000000000000000081565b5f5481565b60015f9054906101000a900460ff166105fd576040517f08c379a00000000000000000000000000000000000000000000000000000000081526004016105f4906115ad565b60405180910390fd5b7f000000000000000000000000000000000000000000000000000000000000000067ffffffffffffffff164210610669576040517f08c379a000000000000000000000000000000000000000000000000000000000815260040161066090611615565b60405180910390fd5b7f00000000000000000000000000000000000000000000000000000000000000005f54106106cc576040517f08c379a00000000000000000000000000000000000000000000000000000000081526004016106c39061167d565b60405180910390fd5b60025f8473ffffffffffffffffffffffffffffffffffffffff1673ffffffffffffffffffffffffffffffffffffffff1681526020019081526020015f205f9054906101000a900460ff1615610756576040517f08c379a000000000000000000000000000000000000000000000000000000000815260040161074d906116e5565b60405180910390fd5b5f308460405160200161076a929190611748565b6040516020818303038152906040528051906020012090505f61078c82610d4d565b90507f000000000000000000000000000000000000000000000000000000000000000073ffffffffffffffffffffffffffffffffffffffff1661081b85858080601f0160208091040260200160405190810160405280939291908181526020018383808284375f81840152601f19601f8201169050808301925050505050505083610d8090919063ffffffff16565b73ffffffffffffffffffffffffffffffffffffffff1614610871576040517f08c379a0000000000000000000000000000000000000000000000000000000008152600401610868906117bd565b60405180910390fd5b600160025f8773ffffffffffffffffffffffffffffffffffffffff1673ffffffffffffffffffffffffffffffffffffffff1681526020019081526020015f205f6101000a81548160ff02191690831515021790555060015f808282546108d79190611808565b925050819055507f000000000000000000000000000000000000000000000000000000000000000073ffffffffffffffffffffffffffffffffffffffff166393cb9aeb8660646040518363ffffffff1660e01b815260040161093a929190611874565b5f604051808303815f87803b158015610951575f80fd5b505af1158015610963573d5f803e3d5ffd5b505050506109d2857f00000000000000000000000000000000000000000000000000000000000000007f000000000000000000000000000000000000000000000000000000000000000073ffffffffffffffffffffffffffffffffffffffff16610daa9092919063ffffffff16565b8473ffffffffffffffffffffffffffffffffffffffff167fd4c9d8ecc8bf1be6dc655169b10dbe7d7f935d65175441b40c60e52e529818f37f0000000000000000000000000000000000000000000000000000000000000000604051610a389190611205565b60405180910390a27f00000000000000000000000000000000000000000000000000000000000000005f5410610aa757610aa66040518060400160405280601281526020017f4d617820636c61696d7320726561636865640000000000000000000000000000815250610ce5565b5b5050505050565b7f000000000000000000000000000000000000000000000000000000000000000081565b7f000000000000000000000000000000000000000000000000000000000000000073ffffffffffffffffffffffffffffffffffffffff163373ffffffffffffffffffffffffffffffffffffffff1614610b60576040517f08c379a0000000000000000000000000000000000000000000000000000000008152600401610b5790611545565b60405180910390fd5b60015f9054906101000a900460ff1615610baf576040517f08c379a0000000000000000000000000000000000000000000000000000000008152600401610ba6906118e5565b60405180910390fd5b5f7f000000000000000000000000000000000000000000000000000000000000000073ffffffffffffffffffffffffffffffffffffffff166370a08231306040518263ffffffff1660e01b8152600401610c0991906111a1565b602060405180830381865afa158015610c24573d5f803e3d5ffd5b505050506040513d601f19601f82011682018060405250810190610c48919061192d565b90505f811115610cbe57610cbd7f0000000000000000000000000000000000000000000000000000000000000000827f000000000000000000000000000000000000000000000000000000000000000073ffffffffffffffffffffffffffffffffffffffff16610daa9092919063ffffffff16565b5b50565b7f000000000000000000000000000000000000000000000000000000000000000081565b60015f9054906101000a900460ff1615610d4a575f60015f6101000a81548160ff0219169083151502179055507f33e2b1e7f7e38f35a4a2c028afd807aa5148e92af5748f8052cae2fce3004a4d81604051610d41919061199a565b60405180910390a15b50565b5f7f19457468657265756d205369676e6564204d6573736167653a0a3332000000005f5281601c52603c5f209050919050565b5f805f80610d8e8686610e29565b925092509250610d9e8282610e7e565b82935050505092915050565b610e24838473ffffffffffffffffffffffffffffffffffffffff1663a9059cbb8585604051602401610ddd9291906119ba565b604051602081830303815290604052915060e01b6020820180517bffffffffffffffffffffffffffffffffffffffffffffffffffffffff8381831617835250505050610fe0565b505050565b5f805f6041845103610e69575f805f602087015192506040870151915060608701515f1a9050610e5b8882858561107b565b955095509550505050610e77565b5f600285515f1b9250925092505b9250925092565b5f6003811115610e9157610e906119e1565b5b826003811115610ea457610ea36119e1565b5b0315610fdc5760016003811115610ebe57610ebd6119e1565b5b826003811115610ed157610ed06119e1565b5b03610f08576040517ff645eedf00000000000000000000000000000000000000000000000000000000815260040160405180910390fd5b60026003811115610f1c57610f1b6119e1565b5b826003811115610f2f57610f2e6119e1565b5b03610f7357805f1c6040517ffce698f7000000000000000000000000000000000000000000000000000000008152600401610f6a9190611205565b60405180910390fd5b600380811115610f8657610f856119e1565b5b826003811115610f9957610f986119e1565b5b03610fdb57806040517fd78bce0c000000000000000000000000000000000000000000000000000000008152600401610fd29190611a26565b60405180910390fd5b5b5050565b5f8060205f8451602086015f885af180610fff576040513d5f823e3d81fd5b3d92505f519150505f8214611018576001811415611033565b5f8473ffffffffffffffffffffffffffffffffffffffff163b145b1561107557836040517f5274afe700000000000000000000000000000000000000000000000000000000815260040161106c91906111a1565b60405180910390fd5b50505050565b5f805f7f7fffffffffffffffffffffffffffffff5d576e7357a4501ddfe92f46681b20a0845f1c11156110b7575f600385925092509250611158565b5f6001888888886040515f81526020016040526040516110da9493929190611a5a565b6020604051602081039080840390855afa1580156110fa573d5f803e3d5ffd5b5050506020604051035190505f73ffffffffffffffffffffffffffffffffffffffff168173ffffffffffffffffffffffffffffffffffffffff160361114b575f60015f801b93509350935050611158565b805f805f1b935093509350505b9450945094915050565b5f73ffffffffffffffffffffffffffffffffffffffff82169050919050565b5f61118b82611162565b9050919050565b61119b81611181565b82525050565b5f6020820190506111b45f830184611192565b92915050565b5f8115159050919050565b6111ce816111ba565b82525050565b5f6020820190506111e75f8301846111c5565b92915050565b5f819050919050565b6111ff816111ed565b82525050565b5f6020820190506112185f8301846111f6565b92915050565b5f80fd5b5f80fd5b5f80fd5b5f80fd5b5f80fd5b5f8083601f84011261124757611246611226565b5b8235905067ffffffffffffffff8111156112645761126361122a565b5b6020830191508360018202830111156112805761127f61122e565b5b9250929050565b5f806020838503121561129d5761129c61121e565b5b5f83013567ffffffffffffffff8111156112ba576112b9611222565b5b6112c685828601611232565b92509250509250929050565b5f81519050919050565b5f82825260208201905092915050565b5f5b838110156113095780820151818401526020810190506112ee565b5f8484015250505050565b5f601f19601f8301169050919050565b5f61132e826112d2565b61133881856112dc565b93506113488185602086016112ec565b61135181611314565b840191505092915050565b5f60408201905061136f5f8301856111c5565b81810360208301526113818184611324565b90509392505050565b61139381611181565b811461139d575f80fd5b50565b5f813590506113ae8161138a565b92915050565b5f602082840312156113c9576113c861121e565b5b5f6113d6848285016113a0565b91505092915050565b5f819050919050565b5f6114026113fd6113f884611162565b6113df565b611162565b9050919050565b5f611413826113e8565b9050919050565b5f61142482611409565b9050919050565b6114348161141a565b82525050565b5f60208201905061144d5f83018461142b565b92915050565b5f67ffffffffffffffff82169050919050565b61146f81611453565b82525050565b5f6020820190506114885f830184611466565b92915050565b5f805f604084860312156114a5576114a461121e565b5b5f6114b2868287016113a0565b935050602084013567ffffffffffffffff8111156114d3576114d2611222565b5b6114df86828701611232565b92509250509250925092565b5f82825260208201905092915050565b7f51756573745661756c743a204f6e6c792063726561746f7200000000000000005f82015250565b5f61152f6018836114eb565b915061153a826114fb565b602082019050919050565b5f6020820190508181035f83015261155c81611523565b9050919050565b7f51756573745661756c743a205175657374206e6f7420616374697665000000005f82015250565b5f611597601c836114eb565b91506115a282611563565b602082019050919050565b5f6020820190508181035f8301526115c48161158b565b9050919050565b7f51756573745661756c743a2051756573742065787069726564000000000000005f82015250565b5f6115ff6019836114eb565b915061160a826115cb565b602082019050919050565b5f6020820190508181035f83015261162c816115f3565b9050919050565b7f51756573745661756c743a204d617820636c61696d73207265616368656400005f82015250565b5f611667601e836114eb565b915061167282611633565b602082019050919050565b5f6020820190508181035f8301526116948161165b565b9050919050565b7f51756573745661756c743a20416c726561647920636c61696d656400000000005f82015250565b5f6116cf601b836114eb565b91506116da8261169b565b602082019050919050565b5f6020820190508181035f8301526116fc816116c3565b9050919050565b5f8160601b9050919050565b5f61171982611703565b9050919050565b5f61172a8261170f565b9050919050565b61174261173d82611181565b611720565b82525050565b5f6117538285611731565b6014820191506117638284611731565b6014820191508190509392505050565b7f51756573745661756c743a20496e76616c6964207369676e61747572650000005f82015250565b5f6117a7601d836114eb565b91506117b282611773565b602082019050919050565b5f6020820190508181035f8301526117d48161179b565b9050919050565b7f4e487b71000000000000000000000000000000000000000000000000000000005f52601160045260245ffd5b5f611812826111ed565b915061181d836111ed565b9250828201905080821115611835576118346117db565b5b92915050565b5f819050919050565b5f61185e6118596118548461183b565b6113df565b6111ed565b9050919050565b61186e81611844565b82525050565b5f6040820190506118875f830185611192565b6118946020830184611865565b9392505050565b7f51756573745661756c743a205175657374207374696c6c2061637469766500005f82015250565b5f6118cf601e836114eb565b91506118da8261189b565b602082019050919050565b5f6020820190508181035f8301526118fc816118c3565b9050919050565b61190c816111ed565b8114611916575f80fd5b50565b5f8151905061192781611903565b92915050565b5f602082840312156119425761194161121e565b5b5f61194f84828501611919565b91505092915050565b5f81519050919050565b5f61196c82611958565b61197681856114eb565b93506119868185602086016112ec565b61198f81611314565b840191505092915050565b5f6020820190508181035f8301526119b28184611962565b905092915050565b5f6040820190506119cd5f830185611192565b6119da60208301846111f6565b9392505050565b7f4e487b71000000000000000000000000000000000000000000000000000000005f52602160045260245ffd5b5f819050919050565b611a2081611a0e565b82525050565b5f602082019050611a395f830184611a17565b92915050565b5f60ff82169050919050565b611a5481611a3f565b82525050565b5f608082019050611a6d5f830187611a17565b611a7a6020830186611a4b565b611a876040830185611a17565b611a946060830184611a17565b9594505050505056fea2646970667358221220f193d819fd25a3bebe6c1b2475fe4a5e2011e04b1e5b97ea2a6a805ced15faa964736f6c63430008140033",
  "linkReferences": {},
  "deployedLinkReferences": {},
  "immutableReferences": {
    "7331": [
      {
        "length": 32,
        "start": 2446
      },
      {
        "length": 32,
        "start": 2994
      },
      {
        "length": 32,
        "start": 3193
      },
      {
        "length": 32,
        "start": 3267
      }
    ],
    "7333": [
      {
        "length": 32,
        "start": 782
      },
      {
        "length": 32,
        "start": 2413
      },
      {
        "length": 32,
        "start": 2572
      }
    ],
    "7335": [
      {
        "length": 32,
        "start": 892
      },
      {
        "length": 32,
        "start": 1080
      },
      {
        "length": 32,
        "start": 1643
      },
      {
        "length": 32,
        "start": 2626
      },
      {
        "length": 32,
        "start": 2736
      }
    ],
    "7339": [
      {
        "length": 32,
        "start": 840
      },
      {
        "length": 32,
        "start": 1028
      },
      {
        "length": 32,
        "start": 1416
      },
      {
        "length": 32,
        "start": 1535
      }
    ],
    "7343": [
      {
        "length": 32,
        "start": 692
      },
      {
        "length": 32,
        "start": 1210
      },
      {
        "length": 32,
        "start": 2772
      },
      {
        "length": 32,
        "start": 3159
      }
    ],
    "7345": [
      {
        "length": 32,
        "start": 746
      },
      {
        "length": 32,
        "start": 1936
      }
    ],
    "7348": [
      {
        "length": 32,
        "start": 1174
      },
      {
        "length": 32,
        "start": 2272
      }
    ]
  },
  "inputSourceName": "project/contracts/QuestVault.sol",
  "buildInfoId": "solc-0_8_20-f5e4e42de6593d92725a6780edcd37e0592d60db"
}