{
  "_format": "hh3-artifact-1",
  "contractName": "QuestFactory",
  "sourceName": "contracts/QuestFactory.sol",
  "abi": [
    {
      "inputs": [
        {
          "internalType": "address",
          "name": "_kyraToken",
          "type": "address"
        }
      ],
      "stateMutability": "nonpayable",
      "type": "constructor"
    },
    {
      "anonymous": false,
      "inputs": [
        {
          "indexed": true,
          "internalType": "address",
          "name": "questAddress",
          "type": "address"
        },
        {
          "indexed": true,
          "internalType": "address",
          "name": "creator",
          "type": "address"
        },
        {
          "indexed": false,
          "internalType": "string",
          "name": "name",
          "type": "string"
        },
        {
          "indexed": false,
          "internalType": "enum Quest.RewardType",
          "name": "rewardType",
          "type": "uint8"
        },
        {
          "indexed": false,
          "internalType": "enum Quest.QuestType",
          "name": "questType",
          "type": "uint8"
        },
        {
          "indexed": false,
          "internalType": "address",
          "name": "rewardToken",
          "type": "address"
        }
      ],
      "name": "QuestCreated",
      "type": "event"
    },
    {
      "inputs": [
        {
          "internalType": "string",
          "name": "_name",
          "type": "string"
        },
        {
          "internalType": "string",
          "name": "_description",
          "type": "string"
        },
        {
          "internalType": "enum Quest.QuestType",
          "name": "_questType",
          "type": "uint8"
        },
        {
          "internalType": "uint256",
          "name": "_rewardAmount",
          "type": "uint256"
        },
        {
          "internalType": "uint256",
          "name": "_maxClaims",
          "type": "uint256"
        },
        {
          "internalType": "uint64",
          "name": "_expiryTimestamp",
          "type": "uint64"
        }
      ],
      "name": "createKYRAQuest",
      "outputs": [
        {
          "internalType": "address",
          "name": "",
          "type": "address"
        }
      ],
      "stateMutability": "nonpayable",
      "type": "function"
    },
    {
      "inputs": [
        {
          "internalType": "string",
          "name": "_name",
          "type": "string"
        },
        {
          "internalType": "string",
          "name": "_description",
          "type": "string"
        },
        {
          "internalType": "enum Quest.QuestType",
          "name": "_questType",
          "type": "uint8"
        },
        {
          "internalType": "address",
          "name": "_nftContract",
          "type": "address"
        },
        {
          "internalType": "uint256",
          "name": "_maxClaims",
          "type": "uint256"
        },
        {
          "internalType": "uint64",
          "name": "_expiryTimestamp",
          "type": "uint64"
        }
      ],
      "name": "createNFTQuest",
      "outputs": [
        {
          "internalType": "address",
          "name": "",
          "type": "address"
        }
      ],
      "stateMutability": "nonpayable",
      "type": "function"
    },
    {
      "inputs": [
        {
          "internalType": "string",
          "name": "_name",
          "type": "string"
        },
        {
          "internalType": "string",
          "name": "_description",
          "type": "string"
        },
        {
          "internalType": "enum Quest.QuestType",
          "name": "_questType",
          "type": "uint8"
        },
        {
          "internalType": "address",
          "name": "_rewardToken",
          "type": "address"
        },
        {
          "internalType": "uint256",
          "name": "_rewardAmount",
          "type": "uint256"
        },
        {
          "internalType": "uint256",
          "name": "_maxClaims",
          "type": "uint256"
        },
        {
          "internalType": "uint64",
          "name": "_expiryTimestamp",
          "type": "uint64"
        }
      ],
      "name": "createTokenQuest",
      "outputs": [
        {
          "internalType": "address",
          "name": "",
          "type": "address"
        }
      ],
      "stateMutability": "nonpayable",
      "type": "function"
    },
    {
      "inputs": [
        {
          "internalType": "address",
          "name": "",
          "type": "address"
        },
        {
          "internalType": "uint256",
          "name": "",
          "type": "uint256"
        }
      ],
      "name": "creatorQuests",
      "outputs": [
        {
          "internalType": "address",
          "name": "",
          "type": "address"
        }
      ],
      "stateMutability": "view",
      "type": "function"
    },
    {
      "inputs": [],
      "name": "getAllQuests",
      "outputs": [
        {
          "internalType": "address[]",
          "name": "",
          "type": "address[]"
        }
      ],
      "stateMutability": "view",
      "type": "function"
    },
    {
      "inputs": [],
      "name": "getQuestCount",
      "outputs": [
        {
          "internalType": "uint256",
          "name": "",
          "type": "uint256"
        }
      ],
      "stateMutability": "view",
      "type": "function"
    },
    {
      "inputs": [
        {
          "internalType": "address",
          "name": "creator",
          "type": "address"
        }
      ],
      "name": "getQuestsByCreator",
      "outputs": [
        {
          "internalType": "address[]",
          "name": "",
          "type": "address[]"
        }
      ],
      "stateMutability": "view",
      "type": "function"
    },
    {
      "inputs": [],
      "name": "kyraToken",
      "outputs": [
        {
          "internalType": "address",
          "name": "",
          "type": "address"
        }
      ],
      "stateMutability": "view",
      "type": "function"
    },
    {
      "inputs": [
        {
          "internalType": "uint256",
          "name": "",
          "type": "uint256"
        }
      ],
      "name": "quests",
      "outputs": [
        {
          "internalType": "address",
          "name": "",
          "type": "address"
        }
      ],
      "stateMutability": "view",
      "type": "function"
    }
  ],
  "bytecode": "0x60a060405234801561000f575f80fd5b50604051612b01380380612b0183398101604081905261002e9161003f565b6001600160a01b031660805261006c565b5f6020828403121561004f575f80fd5b81516001600160a01b0381168114610065575f80fd5b9392505050565b608051612a7661008b5f395f818161014901526105920152612a765ff3fe608060405234801562000010575f80fd5b50600436106200009c575f3560e01c806381d6b0d8116200006b57806381d6b0d8146200011557806393bfe72c146200012c578063b8a0bf191462000143578063c43252a9146200016b578063e085f9801462000182575f80fd5b80632ac58c3314620000a05780633bb659a214620000d45780636397178114620000ed578063773fb64b14620000fe575b5f80fd5b620000b7620000b13660046200065f565b62000199565b6040516001600160a01b0390911681526020015b60405180910390f35b620000de620001ce565b604051620000cb91906200068c565b5f54604051908152602001620000cb565b620000b76200010f3660046200074e565b6200022f565b620000de6200012636600462000809565b62000391565b620000b76200013d3660046200082e565b62000406565b620000b77f000000000000000000000000000000000000000000000000000000000000000081565b620000b76200017c366004620008e1565b6200056a565b620000b7620001933660046200097a565b62000611565b6001602052815f5260405f208181548110620001b3575f80fd5b5f918252602090912001546001600160a01b03169150829050565b60605f8054806020026020016040519081016040528092919081815260200182805480156200022557602002820191905f5260205f20905b81546001600160a01b0316815260019091019060200180831162000206575b5050505050905090565b5f808a8a8a8a5f8b8b8b8b8b336040516200024a9062000639565b620002609b9a99989796959493929190620009f8565b604051809103905ff0801580156200027a573d5f803e3d5ffd5b5090505f8190505f81908060018154018082558091505060019003905f5260205f20015f9091909190916101000a8154816001600160a01b0302191690836001600160a01b0316021790555060015f336001600160a01b03166001600160a01b031681526020019081526020015f2081908060018154018082558091505060019003905f5260205f20015f9091909190916101000a8154816001600160a01b0302191690836001600160a01b03160217905550336001600160a01b0316816001600160a01b03167f2ee040f19a71b8a838159fd6be653c814e3426f887be70bdbfc3f7ec60004d2e8e8e5f8d8d6040516200037a95949392919062000a8e565b60405180910390a39b9a5050505050505050505050565b6001600160a01b0381165f90815260016020908152604091829020805483518184028101840190945280845260609392830182828015620003fa57602002820191905f5260205f20905b81546001600160a01b03168152600190910190602001808311620003db575b50505050509050919050565b5f808989898960018a8a60018b8b33604051620004239062000639565b620004399b9a99989796959493929190620009f8565b604051809103905ff08015801562000453573d5f803e3d5ffd5b5090505f8190505f81908060018154018082558091505060019003905f5260205f20015f9091909190916101000a8154816001600160a01b0302191690836001600160a01b0316021790555060015f336001600160a01b03166001600160a01b031681526020019081526020015f2081908060018154018082558091505060019003905f5260205f20015f9091909190916101000a8154816001600160a01b0302191690836001600160a01b03160217905550336001600160a01b0316816001600160a01b03167f2ee040f19a71b8a838159fd6be653c814e3426f887be70bdbfc3f7ec60004d2e8d8d60018c8c6040516200055495949392919062000a8e565b60405180910390a39a9950505050505050505050565b60405163773fb64b60e01b81525f90309063773fb64b90620005c1908c908c908c908c908c907f0000000000000000000000000000000000000000000000000000000000000000908d908d908d9060040162000ade565b6020604051808303815f875af1158015620005de573d5f803e3d5ffd5b505050506040513d601f19601f8201168201806040525081019062000604919062000b54565b9998505050505050505050565b5f818154811062000620575f80fd5b5f918252602090912001546001600160a01b0316905081565b611ece8062000b7383390190565b6001600160a01b03811681146200065c575f80fd5b50565b5f806040838503121562000671575f80fd5b82356200067e8162000647565b946020939093013593505050565b602080825282518282018190525f9190848201906040850190845b81811015620006ce5783516001600160a01b031683529284019291840191600101620006a7565b50909695505050505050565b5f8083601f840112620006eb575f80fd5b50813567ffffffffffffffff81111562000703575f80fd5b6020830191508360208285010111156200071b575f80fd5b9250929050565b80356003811062000731575f80fd5b919050565b803567ffffffffffffffff8116811462000731575f80fd5b5f805f805f805f805f60e08a8c03121562000767575f80fd5b893567ffffffffffffffff808211156200077f575f80fd5b6200078d8d838e01620006da565b909b50995060208c0135915080821115620007a6575f80fd5b50620007b58c828d01620006da565b9098509650620007ca905060408b0162000722565b945060608a0135620007dc8162000647565b935060808a0135925060a08a01359150620007fa60c08b0162000736565b90509295985092959850929598565b5f602082840312156200081a575f80fd5b8135620008278162000647565b9392505050565b5f805f805f805f8060c0898b03121562000846575f80fd5b883567ffffffffffffffff808211156200085e575f80fd5b6200086c8c838d01620006da565b909a50985060208b013591508082111562000885575f80fd5b50620008948b828c01620006da565b9097509550620008a9905060408a0162000722565b93506060890135620008bb8162000647565b925060808901359150620008d260a08a0162000736565b90509295985092959890939650565b5f805f805f805f8060c0898b031215620008f9575f80fd5b883567ffffffffffffffff8082111562000911575f80fd5b6200091f8c838d01620006da565b909a50985060208b013591508082111562000938575f80fd5b50620009478b828c01620006da565b90975095506200095c905060408a0162000722565b93506060890135925060808901359150620008d260a08a0162000736565b5f602082840312156200098b575f80fd5b5035919050565b81835281816020850137505f828201602090810191909152601f909101601f19169091010190565b634e487b7160e01b5f52602160045260245ffd5b60028110620009e157620009e1620009ba565b9052565b60038110620009e157620009e1620009ba565b61012081525f62000a0f61012083018d8f62000992565b828103602084015262000a24818c8e62000992565b91505062000a36604083018a620009ce565b62000a456060830189620009e5565b6001600160a01b03968716608083015260a082019590955260c081019390935267ffffffffffffffff9190911660e0830152909216610100909201919091529695505050505050565b608081525f62000aa360808301878962000992565b905062000ab46020830186620009ce565b62000ac36040830185620009e5565b6001600160a01b039290921660609190910152949350505050565b60e081525f62000af360e083018b8d62000992565b828103602084015262000b08818a8c62000992565b91505062000b1a6040830188620009e5565b6001600160a01b03959095166060820152608081019390935260a083019190915267ffffffffffffffff1660c09091015295945050505050565b5f6020828403121562000b65575f80fd5b815162000827816200064756fe608060405234801562000010575f80fd5b5060405162001ece38038062001ece8339810160408190526200003391620002de565b806001600160a01b0381166200006257604051631e4fbdf760e01b81525f600482015260240160405180910390fd5b6200006d8162000187565b50600180556002620000808a8262000441565b5060036200008f898262000441565b506004805488919060ff191660018381811115620000b157620000b162000509565b02179055506004805487919061ff001916610100836002811115620000da57620000da62000509565b0217905550600480546001600160a01b03808816620100000262010000600160b01b03199092169190911790915560058590556006849055600880546001600160481b0319166001600160401b0385161768010000000000000000179055604051908216907f15139115c870dee812adf85be6d48c5bae97e942b6b367d692ac3fc049652ceb9062000170908c908b906200051d565b60405180910390a250505050505050505062000575565b5f80546001600160a01b038381166001600160a01b0319831681178455604051919092169283917f8be0079c531659141344cd1fd0a4f28419497f9722a3daafe3b4186f6b6457e09190a35050565b634e487b7160e01b5f52604160045260245ffd5b5f5b8381101562000206578181015183820152602001620001ec565b50505f910152565b5f82601f8301126200021e575f80fd5b81516001600160401b03808211156200023b576200023b620001d6565b604051601f8301601f19908116603f01168101908282118183101715620002665762000266620001d6565b816040528381528660208588010111156200027f575f80fd5b62000292846020830160208901620001ea565b9695505050505050565b805160038110620002ab575f80fd5b919050565b80516001600160a01b0381168114620002ab575f80fd5b80516001600160401b0381168114620002ab575f80fd5b5f805f805f805f805f6101208a8c031215620002f8575f80fd5b89516001600160401b03808211156200030f575f80fd5b6200031d8d838e016200020e565b9a5060208c015191508082111562000333575f80fd5b50620003428c828d016200020e565b98505060408a01516002811062000357575f80fd5b96506200036760608b016200029c565b95506200037760808b01620002b0565b945060a08a0151935060c08a015192506200039560e08b01620002c7565b9150620003a66101008b01620002b0565b90509295985092959850929598565b600181811c90821680620003ca57607f821691505b602082108103620003e957634e487b7160e01b5f52602260045260245ffd5b50919050565b601f8211156200043c575f81815260208120601f850160051c81016020861015620004175750805b601f850160051c820191505b81811015620004385782815560010162000423565b5050505b505050565b81516001600160401b038111156200045d576200045d620001d6565b62000475816200046e8454620003b5565b84620003ef565b602080601f831160018114620004ab575f8415620004935750858301515b5f19600386901b1c1916600185901b17855562000438565b5f85815260208120601f198616915b82811015620004db57888601518255948401946001909101908401620004ba565b5085821015620004f957878501515f19600388901b60f8161c191681555b5050505050600190811b01905550565b634e487b7160e01b5f52602160045260245ffd5b604081525f83518060408401526200053d816060850160208801620001ea565b601f01601f191682016060019050600283106200056857634e487b7160e01b5f52602160045260245ffd5b8260208301529392505050565b61194b80620005835f395ff3fe608060405234801561000f575f80fd5b5060043610610187575f3560e01c806373b2e80e116100d9578063d38d0a9211610093578063f2fde38b1161006e578063f2fde38b1461037d578063f7b2a7be14610390578063f7c618c114610399578063fc9c99ac146103b2575f80fd5b8063d38d0a9214610348578063e91a7ca614610362578063ee38db9514610375575f80fd5b806373b2e80e146102a45780638da5cb5b146102c6578063967c1527146102ea578063ade6e2aa14610309578063b13b62e714610336578063cf5380b41461033f575f80fd5b80634e71d92d116101445780636c76c8c91161011f5780636c76c8c91461026a578063715018a61461028157806371c9fbc8146102895780637284e4161461029c575f80fd5b80634e71d92d1461023c578063587adead146102445780636a39d91c14610257575f80fd5b806302fb0c5e1461018b57806306fdde03146101b4578063150b7a02146101c95780631fbe11be1461020157806337895e441461021f57806343d726d614610234575b5f80fd5b60085461019f90600160401b900460ff1681565b60405190151581526020015b60405180910390f35b6101bc6103ba565b6040516101ab91906115e2565b6101e86101d7366004611616565b630a85bd0160e11b95945050505050565b6040516001600160e01b031990911681526020016101ab565b610209610446565b6040516101ab9a999897969594939291906116e1565b61023261022d36600461176f565b6105de565b005b610232610767565b6102326107a7565b6102326102523660046117de565b61096b565b6102326102653660046117de565b610bc0565b610273600a5481565b6040519081526020016101ab565b610232610c7b565b6102736102973660046117de565b610c8c565b6101bc610cab565b61019f6102b23660046117f5565b600b6020525f908152604090205460ff1681565b5f546001600160a01b03165b6040516001600160a01b0390911681526020016101ab565b6004546102fc90610100900460ff1681565b6040516101ab919061180e565b60085461031d9067ffffffffffffffff1681565b60405167ffffffffffffffff90911681526020016101ab565b61027360075481565b61027360065481565b6004546103559060ff1681565b6040516101ab9190611822565b6102326103703660046117de565b610cb8565b610232610de8565b61023261038b3660046117f5565b610fcf565b61027360055481565b6004546102d2906201000090046001600160a01b031681565b610273611009565b600280546103c790611830565b80601f01602080910402602001604051908101604052809291908181526020018280546103f390611830565b801561043e5780601f106104155761010080835404028352916020019161043e565b820191905f5260205f20905b81548152906001019060200180831161042157829003601f168201915b505050505081565b6004546005546006546007546008546002805460609687965f968796879687968796879687968796939560039560ff808516966101008604821696620100009096046001600160a01b03169590939267ffffffffffffffff811692600160401b90910416908a906104b690611830565b80601f01602080910402602001604051908101604052809291908181526020018280546104e290611830565b801561052d5780601f106105045761010080835404028352916020019161052d565b820191905f5260205f20905b81548152906001019060200180831161051057829003601f168201915b5050505050995088805461054090611830565b80601f016020809104026020016040519081016040528092919081815260200182805461056c90611830565b80156105b75780601f1061058e576101008083540402835291602001916105b7565b820191905f5260205f20905b81548152906001019060200180831161059a57829003601f168201915b50505050509850995099509950995099509950995099509950995090919293949596979899565b600160045460ff1660018111156105f7576105f76116a9565b146106435760405162461bcd60e51b8152602060048201526017602482015276145d595cdd0e88139bdd08185b88139195081c5d595cdd604a1b60448201526064015b60405180910390fd5b5f5b81811015610762576004546201000090046001600160a01b03166342842e0e333086868681811061067857610678611868565b905060200201356040518463ffffffff1660e01b815260040161069d9392919061187c565b5f604051808303815f87803b1580156106b4575f80fd5b505af11580156106c6573d5f803e3d5ffd5b5050505060098383838181106106de576106de611868565b83546001810185555f9485526020948590209190940292909201359190920155507ff36d7a61da5869f1f725b62b3414422372ff984566d321f9758ec768fb859a8883838381811061073257610732611868565b9050602002013560405161074891815260200190565b60405180910390a18061075a816118b4565b915050610645565b505050565b61076f6110ba565b6107a56040518060400160405280601581526020017426b0b73ab0b61031b637b9b290313c9037bbb732b960591b8152506110e6565b565b6107af611128565b600854600160401b900460ff166107fc5760405162461bcd60e51b815260206004820152601160248201527051756573743a204e6f742061637469766560781b604482015260640161063a565b60085467ffffffffffffffff1642106108485760405162461bcd60e51b815260206004820152600e60248201526d145d595cdd0e88115e1c1a5c995960921b604482015260640161063a565b600654600754106108975760405162461bcd60e51b8152602060048201526019602482015278145d595cdd0e8813585e0818db185a5b5cc81c995858da1959603a1b604482015260640161063a565b335f908152600b602052604090205460ff16156108ef5760405162461bcd60e51b8152602060048201526016602482015275145d595cdd0e88105b1c9958591e4818db185a5b595960521b604482015260640161063a565b5f600454610100900460ff16600281111561090c5761090c6116a9565b146109595760405162461bcd60e51b815260206004820152601c60248201527f51756573743a20566572696669636174696f6e20726571756972656400000000604482015260640161063a565b61096233611152565b6107a560018055565b610973611128565b600854600160401b900460ff166109c05760405162461bcd60e51b815260206004820152601160248201527051756573743a204e6f742061637469766560781b604482015260640161063a565b60085467ffffffffffffffff164210610a0c5760405162461bcd60e51b815260206004820152600e60248201526d145d595cdd0e88115e1c1a5c995960921b604482015260640161063a565b60065460075410610a5b5760405162461bcd60e51b8152602060048201526019602482015278145d595cdd0e8813585e0818db185a5b5cc81c995858da1959603a1b604482015260640161063a565b335f908152600b602052604090205460ff1615610ab35760405162461bcd60e51b8152602060048201526016602482015275145d595cdd0e88105b1c9958591e4818db185a5b595960521b604482015260640161063a565b6001600454610100900460ff166002811115610ad157610ad16116a9565b14610b165760405162461bcd60e51b8152602060048201526015602482015274145d595cdd0e88139bdd0818481454881c5d595cdd605a1b604482015260640161063a565b6040516bffffffffffffffffffffffff193060601b166020820152634b59524160e01b60348201525f90603801604051602081830303815290604052805190602001209050808214610baa5760405162461bcd60e51b815260206004820181905260248201527f51756573743a20496e76616c696420766572696669636174696f6e20636f6465604482015260640161063a565b610bb333611152565b50610bbd60018055565b50565b5f60045460ff166001811115610bd857610bd86116a9565b14610c255760405162461bcd60e51b815260206004820152601960248201527f51756573743a204e6f7420616e20455243323020717565737400000000000000604482015260640161063a565b600454610c43906201000090046001600160a01b0316333084611453565b60405181815233907fb72712ce4f427e59460e718077779daa16ef7cdf3f673552e38e2cde826b68989060200160405180910390a250565b610c836110ba565b6107a55f6114b3565b60098181548110610c9b575f80fd5b5f91825260209091200154905081565b600380546103c790611830565b600160045460ff166001811115610cd157610cd16116a9565b14610d185760405162461bcd60e51b8152602060048201526017602482015276145d595cdd0e88139bdd08185b88139195081c5d595cdd604a1b604482015260640161063a565b60048054604051632142170760e11b8152620100009091046001600160a01b0316916342842e0e91610d50913391309187910161187c565b5f604051808303815f87803b158015610d67575f80fd5b505af1158015610d79573d5f803e3d5ffd5b5050600980546001810182555f919091527f6e1540171b6c0c960b71a7020d9f60077f6af931a8bbf590da0223dacf75c7af0183905550506040518181527ff36d7a61da5869f1f725b62b3414422372ff984566d321f9758ec768fb859a88906020015b60405180910390a150565b610df06110ba565b600854600160401b900460ff161580610e15575060085467ffffffffffffffff164210155b610e575760405162461bcd60e51b815260206004820152601360248201527251756573743a205374696c6c2061637469766560681b604482015260640161063a565b5f60045460ff166001811115610e6f57610e6f6116a9565b03610f1d57600480546040516370a0823160e01b815230928101929092525f91620100009091046001600160a01b0316906370a0823190602401602060405180830381865afa158015610ec4573d5f803e3d5ffd5b505050506040513d601f19601f82011682018060405250810190610ee891906118cc565b90508015610bbd57610bbd610f045f546001600160a01b031690565b6004546201000090046001600160a01b03169083611502565b600a545b600954811015610bbd576004546001600160a01b0362010000909104166342842e0e30610f555f546001600160a01b031690565b60098581548110610f6857610f68611868565b905f5260205f2001546040518463ffffffff1660e01b8152600401610f8f9392919061187c565b5f604051808303815f87803b158015610fa6575f80fd5b505af1158015610fb8573d5f803e3d5ffd5b505050508080610fc7906118b4565b915050610f21565b610fd76110ba565b6001600160a01b03811661100057604051631e4fbdf760e01b81525f600482015260240161063a565b610bbd816114b3565b5f8060045460ff166001811115611022576110226116a9565b036110aa57600554600480546040516370a0823160e01b815230928101929092526201000090046001600160a01b0316906370a0823190602401602060405180830381865afa158015611077573d5f803e3d5ffd5b505050506040513d601f19601f8201168201806040525081019061109b91906118cc565b6110a591906118e3565b905090565b600a546009546110a59190611902565b5f546001600160a01b031633146107a55760405163118cdaa760e01b815233600482015260240161063a565b6008805468ff0000000000000000191690556040517f33e2b1e7f7e38f35a4a2c028afd807aa5148e92af5748f8052cae2fce3004a4d90610ddd9083906115e2565b60026001540361114b57604051633ee5aeb560e01b815260040160405180910390fd5b6002600155565b6001600160a01b0381165f908152600b60205260408120805460ff191660011790556007805491611182836118b4565b909155505f905060045460ff1660018111156111a0576111a06116a9565b036112df57600554600480546040516370a0823160e01b815230928101929092526201000090046001600160a01b0316906370a0823190602401602060405180830381865afa1580156111f5573d5f803e3d5ffd5b505050506040513d601f19601f8201168201806040525081019061121991906118cc565b10156112725760405162461bcd60e51b815260206004820152602260248201527f51756573743a20496e73756666696369656e74207265776172642062616c616e604482015261636560f01b606482015260840161063a565b60055460045461129491620100009091046001600160a01b0316908390611502565b600554604080519182525f60208301526001600160a01b038316917ff01da32686223933d8a18a391060918c7f11a3648639edd87ae013e2e2731743910160405180910390a2611415565b600954600a54106113325760405162461bcd60e51b815260206004820152601860248201527f51756573743a204e6f204e46547320617661696c61626c650000000000000000604482015260640161063a565b5f6009600a548154811061134857611348611868565b5f918252602082200154600a80549193509091611364836118b4565b909155505060048054604051632142170760e11b8152620100009091046001600160a01b0316916342842e0e916113a1913091879187910161187c565b5f604051808303815f87803b1580156113b8575f80fd5b505af11580156113ca573d5f803e3d5ffd5b50506040805160018152602081018590526001600160a01b03861693507ff01da32686223933d8a18a391060918c7f11a3648639edd87ae013e2e273174392500160405180910390a2505b60065460075410610bbd57610bbd6040518060400160405280601281526020017113585e0818db185a5b5cc81c995858da195960721b8152506110e6565b6114ad84856001600160a01b03166323b872dd86868660405160240161147b9392919061187c565b604051602081830303815290604052915060e01b6020820180516001600160e01b038381831617835250505050611533565b50505050565b5f80546001600160a01b038381166001600160a01b0319831681178455604051919092169283917f8be0079c531659141344cd1fd0a4f28419497f9722a3daafe3b4186f6b6457e09190a35050565b6040516001600160a01b0383811660248301526044820183905261076291859182169063a9059cbb9060640161147b565b5f8060205f8451602086015f885af180611552576040513d5f823e3d81fd5b50505f513d91508115611569578060011415611576565b6001600160a01b0384163b155b156114ad57604051635274afe760e01b81526001600160a01b038516600482015260240161063a565b5f81518084525f5b818110156115c3576020818501810151868301820152016115a7565b505f602082860101526020601f19601f83011685010191505092915050565b602081525f6115f4602083018461159f565b9392505050565b80356001600160a01b0381168114611611575f80fd5b919050565b5f805f805f6080868803121561162a575f80fd5b611633866115fb565b9450611641602087016115fb565b935060408601359250606086013567ffffffffffffffff80821115611664575f80fd5b818801915088601f830112611677575f80fd5b813581811115611685575f80fd5b896020828501011115611696575f80fd5b9699959850939650602001949392505050565b634e487b7160e01b5f52602160045260245ffd5b600281106116cd576116cd6116a9565b9052565b600381106116cd576116cd6116a9565b5f6101408083526116f48184018e61159f565b90508281036020840152611708818d61159f565b915050611718604083018b6116bd565b611725606083018a6116d1565b6001600160a01b0397909716608082015260a081019590955260c085019390935260e084019190915267ffffffffffffffff16610100830152151561012090910152949350505050565b5f8060208385031215611780575f80fd5b823567ffffffffffffffff80821115611797575f80fd5b818501915085601f8301126117aa575f80fd5b8135818111156117b8575f80fd5b8660208260051b85010111156117cc575f80fd5b60209290920196919550909350505050565b5f602082840312156117ee575f80fd5b5035919050565b5f60208284031215611805575f80fd5b6115f4826115fb565b6020810161181c82846116d1565b92915050565b6020810161181c82846116bd565b600181811c9082168061184457607f821691505b60208210810361186257634e487b7160e01b5f52602260045260245ffd5b50919050565b634e487b7160e01b5f52603260045260245ffd5b6001600160a01b039384168152919092166020820152604081019190915260600190565b634e487b7160e01b5f52601160045260245ffd5b5f600182016118c5576118c56118a0565b5060010190565b5f602082840312156118dc575f80fd5b5051919050565b5f826118fd57634e487b7160e01b5f52601260045260245ffd5b500490565b8181038181111561181c5761181c6118a056fea26469706673582212203e8655e07bf1d7025a163e79b84f6caab36366a7c36c01ed82d9e550c84b3bc864736f6c63430008140033a2646970667358221220e10e54f55d05059534df0535fd0942c8a522c3ce77b21bd1b4afe7d96543118f64736f6c63430008140033",
  "linkReferences": {},
  "deployedLinkReferences": {},
  "immutableReferences": {
    "9203": [
      {
        "length": 32,
        "start": 329
      },
      {
        "length": 32,
        "start": 1426
      }
    ]
  },
  "inputSourceName": "project/contracts/QuestFactory.sol",
  "buildInfoId": "solc-0_8_20-850ffbd59d84f5bfac87d00ef796bb2a6eaac52c"
}